S00C00004C6162342E73726563D5
S11300000C942E000C946B060C94D7060C944307A6
S11300100C94AF070C941B080C944B000C94F20E38
S11300200C944B000C94A00E0C9487080C94F308C9
S11300300C945F090C94CB090C94370A0C94A30A12
S11300400C940F0B0C947B0B0C94E70B0C94530C3B
S11300500C94BF0C0C942B0D0C94970D11241FBE03
S1130060CFEFD4E0DEBFCDBF11E0A0E0B1E0EAEB1A
S1130070F5E202C005900D92A635B107D9F724E048
S1130080A6E5B1E001C01D92A93AB207E1F70E94CA
S1130090B5040C94DB120C940000CF92DF92EF9223
S11300A0FF920F931F93CF93DF93FC0122852223AA
S11300B041F11E9924C0EC0104811581C12CD12C7D
S11300C00F2EFBE4EF2EF3E0FF2EF02D20E030E0C6
S11300D0A90160E070E0CB010E94A70F0F2EFDE4A0
S11300E0EF2EF0E0FF2EF02D8E0120E030E0A9018C
S11300F065E37CE080E090E00E94A70F02C0FC0171
S1130100128680E090E0DF91CF911F910F91FF90D4
S1130110EF90DF90CF900895CF92DF92EF92FF920D
S11301200F931F93CF93DF93FC012385222341F187
S11301301F9924C0EC0104811581C12CD12C0F2EF0
S1130140F8E9EF2EF3E0FF2EF02D20E030E0A901D6
S113015060E070E0CB010E94A70F0F2EFCE8EF2EA9
S1130160F0E0FF2EF02D8E0120E030E0A90165E3E0
S11301707CE080E090E00E94A70F02C0FC0113869F
S113018080E090E0DF91CF911F910F91FF90EF906D
S1130190DF90CF90089585B1806D85B98EB18C6064
S11301A08EB98DB3806C8DBBEBE6F0E080818C6002
S11301B08083ECE6F0E08081806D80830895CF92A7
S11301C0DF92EF92FF920F931F93629919C0FC0183
S11301D02085211115C081E0808704811581C12CFF
S11301E0D12C0F2EF5E2EF2EF3E0FF2EF02D20E0C0
S11301F030E0A90160E070E0CB010E94A70F04C0C9
S1130200629B02C0FC01108680E090E01F910F9178
S1130210FF90EF90DF90CF900895CF92DF92EF920E
S1130220FF920F931F9363991AC0FC01218521113A
S113023016C081E0818704811581CC24C394D12C1C
S11302400F2EF5E2EF2EF3E0FF2EF02D20E030E04C
S1130250A90160E070E0CB010E94A70F04C0639B7A
S113026002C0FC01118680E090E01F910F91FF9085
S1130270EF90DF90CF900895CF93DF93EC016299D4
S113028005C060E070E00E94DF0001C01886639939
S113029006C060E070E0CE010E940D0101C0198625
S11302A080E090E0DF91CF910895CF92DF92EF92BA
S11302B0FF920F931F93CF93DF931E992FC0FC01DE
S11302C0268121112BC0EC0181E0868304811581F4
S11302D0C12CD12C0F2EFBE4EF2EF3E0FF2EF02DDA
S11302E020E030E0A90160E070E0CB010E94A70F9C
S11302F08A85811117C081E08A870F2EFDE4EF2ED5
S1130300F0E0FF2EF02D8E0120E030E0A90169E03D
S11303107DE380E090E00E94A70F04C01E9B02C012
S1130320FC01168280E090E0DF91CF911F910F9144
S1130330FF90EF90DF90CF900895CF92DF92EF92ED
S1130340FF920F931F93CF93DF931F992FC0FC014C
S1130350278121112BC0EC0181E087830481158161
S1130360C12CD12C0F2EF8E9EF2EF3E0FF2EF02D47
S113037020E030E0A90160E070E0CB010E94A70F0B
S11303808B85811117C081E08B870F2EFCE8EF2E3F
S1130390F0E0FF2EF02D8E0120E030E0A90169E0AD
S11303A07DE380E090E00E94A70F04C01F9B02C081
S11303B0FC01178280E090E0DF91CF911F910F91B3
S11303C0FF90EF90DF90CF900895CF92DF92EF925D
S11303D0FF920F931F931C9919C0FC0124852111CE
S11303E015C081E0848704811581C12CD12C0F2E86
S11303F0F5EEEF2EF3E0FF2EF02D20E030E0A90122
S113040060E070E0CB010E94A70F04C01C9B02C0F7
S1130410FC01148680E090E01F910F91FF90EF9013
S1130420DF90CF900895CF93DF93EC011E9905C020
S113043060E070E00E94550101C01E821F9906C051
S113044060E070E0CE010E949D0101C01F821C99F2
S113045006C060E070E0CE010E94E50101C01C8688
S113046080E090E0DF91CF91089580EC8093E400E8
S113047087EB8093E5008FE08093E7000895663072
S1130480710508F06BC090ED980F9A3048F4E82F8E
S1130490F0E0EE0FFF1FEE51FF4F2081318102C0CB
S11304A020E030E0FB0177230CF43196F595E795D5
S11304B0E451FF4F61707078772334F4615071090F
S11304C06E6F7F6F6F5F7F4F660F771F660F771FAB
S11304D08FE090E0062E02C0880F991F0A94E2F77D
S11304E080954081982F9423A9014F705527062E9B
S11304F002C0440F551F0A94E2F7492B4083A90117
S1130500529542954F7045275F7045274F70552788
S1130510062E02C0440F551F0A94E2F795819823D2
S1130520492B4583432F55274F705527062E02C06C
S1130530440F551F0A94E2F792859823492B42876A
S113054047854823C901892F992782958F7002C056
S1130550880F991F6A95E2F7842B878708958F92F5
S11305609F92AF92BF92CF92DF92EF92FF92CF937E
S1130570DF934B015C01EA0124E630E040E050E007
S11305800E942F120F2EFAE0CF2ED12CE12CF12C49
S1130590F02DA70196010E942F12BE0180E3820F65
S11305A00E943F022196C501B401A70196010E9451
S11305B02F12862FBE01805D0E943F02DF91CF91F2
S11305C0FF90EF90DF90CF90BF90AF909F908F906F
S11305D00895CF93DF93EC0140E050E069E475E0C7
S11305E08C819D810E94B810BC01990F880B990BD6
S11305F040E050E00E94AF0240E050E069E475E062
S11306008E819F810E94B810BC01990F880B990BB1
S113061044E050E00E94AF028885811109C042E0A5
S113062050E06AE070E080E090E00E94AF0208C011
S113063042E050E061E070E080E090E00E94AF02B0
S113064080E090E0DF91CF910895CF92DF92EF9216
S1130650FF920F931F9321E0672B09F420E0FC0124
S11306602087C12CD12C0F2EF9EEEF2EF2E0FF2EB5
S1130670F02D8C0120E030E0A90160E070E0CB01B6
S11306800E94A70F80E090E01F910F91FF90EF90E0
S1130690DF90CF900895CF92DF92EF92FF920F9365
S11306A01F93CF93DF93EC018885811113C00C81D4
S11306B01D81C12CD12C0F2EFDE4EF2EF5E0FF2E71
S11306C0F02D20E030E0A90160E070E0CB010E9451
S11306D0A70F12C00E811F81C12CD12C0F2EFDE457
S11306E0EF2EF5E0FF2EF02D20E030E0A90160E0D0
S11306F070E0CB010E94A70FC12CD12C0F2EF9EE74
S1130700EF2EF2E0FF2EF02D8E0120E030E0A90163
S113071060E070E0CB010E94A70F80E090E0DF91E1
S1130720CF911F910F91FF90EF90DF90CF9008959C
S1130730CF92DF92EF92FF920F931F93CF93DF93A9
S1130740EC018885811113C00C811D81C12CD12C31
S11307500F2EF6E5EF2EF5E0FF2EF02D20E030E031
S1130760A90160E070E0CB010E94A70F12C00E81C6
S11307701F81C12CD12C0F2EF6E5EF2EF5E0FF2EB4
S1130780F02D20E030E0A90160E070E0CB010E9490
S1130790A70FC12CD12C0F2EF9EEEF2EF2E0FF2E75
S11307A0F02D8E0120E030E0A90160E070E0CB0183
S11307B00E94A70F80E090E0DF91CF911F910F91ED
S11307C0FF90EF90DF90CF900895CF92DF92EF9259
S11307D0FF920F931F93CF93DF93EC0188858111D0
S11307E013C00C811D81C12CD12C0F2EFFE5EF2EDF
S11307F0F5E0FF2EF02D20E030E0A90160E070E08C
S1130800CB010E94A70F12C00E811F81C12CD12CD5
S11308100F2EFFE5EF2EF5E0FF2EF02D20E030E067
S1130820A90160E070E0CB010E94A70FC12CD12C7C
S11308300F2EF9EEEF2EF2E0FF2EF02D8E0120E0C8
S113084030E0A90160E070E0CB010E94A70F80E0D6
S113085090E0DF91CF911F910F91FF90EF90DF9087
S1130860CF900895CF92DF92EF92FF920F931F9350
S1130870FC0104811581C12CD12C0F2EFCE3EF2E39
S1130880F1E0FF2EF02D20E030E0A90160E070E0FF
S1130890CB010E94A70F80E090E01F910F91FF9081
S11308A0EF90DF90CF900895CF92DF92EF92FF9276
S11308B00F931F93FC0104811581C12CD12C0F2EA1
S11308C0F3E1EF2EF2E0FF2EF02D20E030E0A9015D
S11308D060E070E0CB010E94A70F80E090E01F91E0
S11308E00F91FF90EF90DF90CF900895CF92DF9219
S11308F0EF92FF920F931F93CF93DF93EC01C12CE0
S1130900D12C0F2EF2EDEF2EF4E0FF2EF02D06E2A7
S113091011E020E030E0A90160E070E0CB010E942A
S1130920A70F0CE111E020E030E0A90160E070E0E5
S1130930CB010E94A70F0F2EF9EEEF2EF2E0FF2E4F
S1130940F02D8E0120E030E0A90160E070E0CB01E1
S11309500E94A70F80E090E0DF91CF911F910F914B
S1130960FF90EF90DF90CF9008950E9489050E9438
S113097035020E94CB0041E062E374E080E091E044
S11309800E94B31142E064E574E080E091E00E94CB
S1130990B31140E050E066E774E083E191E00E9427
S11309A0CD110895CF92DF92EF92FF920F931F9390
S11309B0CF93DF93EC018C81811123C00F811885C3
S11309C0C12CD12C0F2EF9EEEF2EF1E1FF2EF02DDC
S11309D020E030E0A90160E070E0CB010E94A70FA5
S11309E00F2EF2EDEF2EF4E0FF2EF02D8E0120E01D
S11309F030E0A90162E17AE780E090E00E94A70F6D
S1130A003DC00F811885C12CD12C0F2EFCE0EF2E98
S1130A10F2E1FF2EF02D20E030E0A90160E070E06B
S1130A20CB010E94A70F6C8170E088EE93E00E94D6
S1130A301B122DE730E0DB010E944E128B019C015A
S1130A40992324F40D5F1F4F2F4F3F4FC901B80165
S1130A5095958795779567959595879577956795F6
S1130A60C12CD12C0F2EF2EDEF2EF4E0FF2EF02D41
S1130A708E0120E030E0A9010E94A70F80E090E001
S1130A80DF91CF911F910F91FF90EF90DF90CF9066
S1130A900895FC01848190E00895FC0194819336CB
S1130AA010F49F5F948380E090E00895FC019481AA
S1130AB0992311F09150948380E090E00895CF92AF
S1130AC0DF92EF92FF920F931F93FC0184818111B7
S1130AD003C08581848314C08583148207811085B3
S1130AE0C12CD12C0F2EF9EEEF2EF1E1FF2EF02DBB
S1130AF020E030E0A90160E070E0CB010E94A70F84
S1130B0080E090E01F910F91FF90EF90DF90CF90E5
S1130B100895E1E6F0E080E88083108227982F9A18
S1130B20E1E8F0E080818D6080831092850010926E
S1130B308400EFE6F0E080818260808382EC90E0C4
S1130B4090938900809388000895CF93DF9300D019
S1130B5000D0CDB7DEB789E492E029E233E0FC01AE
S1130B60709791838083409682179307C1F7109200
S1130B701A0310921903E4E8F1E081EA91E0918309
S1130B8080838EEB91E0968F858FABEDB1E0B3AFB0
S1130B90A2AF1D921C92FA83E983E5E8F3E0FC839B
S1130BA0EB8389819A8106960E949A128B819C819B
S1130BB0E981FA81978B868B918F808F85E491E10F
S1130BC0948F838F158214827D96FA83E983EB8157
S1130BD0FC81E05AFF4FFC83EB8389819A81885F13
S1130BE09140F9F6ECE1F2E0118210821582148250
S1130BF013821282E1E6F0E080E880831082109292
S1130C0085001092840084E08093810081E08093C9
S1130C106F000F900F900F900F90DF91CF91089578
S1130C20CF93DF9300D0CDB7DEB79A8389838091C9
S1130C303A0190913B0106960E949A12892B59F42D
S1130C4089819A8190933B0180933A0161E070E03D
S1130C5006960E94BA120F900F90DF91CF910895DB
S1130C600F931F93CF93DF93E0915E01F0915F01A7
S1130C70309761F180913E0190913F01009731F1ED
S1130C80C0913C01D0913D01AA81BB81109779F0BC
S1130C90468157816085718516960D911D912D9120
S1130CA03C911997401B510B620B730B7AF4FC01B6
S1130CB02081318130933F0120933E01D183C08351
S1130CC090933D0180933C010E941006DF91CF91E7
S1130CD01F910F9108951F920F920FB60F92112436
S1130CE02F933F934F935F936F937F938F939F9330
S1130CF0AF93BF93EF93FF93209156013091570127
S1130D004091840050918500C901032E000CAA0B68
S1130D10BB0BDC019927882760E070E0842B952BBE
S1130D20A62BB72B8093580190935901A0935A0195
S1130D30B0935B01B09B1BC040918400509185002F
S1130D40C9010196092E000CAA0BBB0BDC019927E3
S1130D50882760E070E0842B952BA62BB72B80931B
S1130D60580190935901A0935A01B0935B01E0910B
S1130D70F801F091F901309739F060E070E080916A
S1130D8060019091610109950E943006FF91EF91F5
S1130D90BF91AF919F918F917F916F915F914F918F
S1130DA03F912F910F900FBE0F901F9018951F9297
S1130DB00F920FB60F9211242F933F934F935F938B
S1130DC06F937F938F939F93AF93BF93EF93FF930F
S1130DD02091560130915701409184005091850033
S1130DE0C901032E000CAA0BBB0BDC019927882731
S1130DF060E070E0842B952BA62BB72B80935801D1
S1130E0090935901A0935A01B0935B01B09B1BC00E
S1130E104091840050918500C9010196092E000C6F
S1130E20AA0BBB0BDC019927882760E070E0842BB8
S1130E30952BA62BB72B8093580190935901A0931F
S1130E405A01B0935B01E091FA01F091FB013097F4
S1130E5039F061E070E0809162019091630109953D
S1130E600E943006FF91EF91BF91AF919F918F91B6
S1130E707F916F915F914F913F912F910F900FBE92
S1130E800F901F9018951F920F920FB60F92112476
S1130E902F933F934F935F936F937F938F939F937E
S1130EA0AF93BF93EF93FF93209156013091570175
S1130EB04091840050918500C901032E000CAA0BB7
S1130EC0BB0BDC019927882760E070E0842B952B0D
S1130ED0A62BB72B8093580190935901A0935A01E4
S1130EE0B0935B01B09B1BC040918400509185007E
S1130EF0C9010196092E000CAA0BBB0BDC01992732
S1130F00882760E070E0842B952BA62BB72B809369
S1130F10580190935901A0935A01B0935B01E09159
S1130F20FC01F091FD01309739F062E070E08091AE
S1130F3064019091650109950E943006FF91EF913B
S1130F40BF91AF919F918F917F916F915F914F91DD
S1130F503F912F910F900FBE0F901F9018951F92E5
S1130F600F920FB60F9211242F933F934F935F93D9
S1130F706F937F938F939F93AF93BF93EF93FF935D
S1130F802091560130915701409184005091850081
S1130F90C901032E000CAA0BBB0BDC01992788277F
S1130FA060E070E0842B952BA62BB72B809358011F
S1130FB090935901A0935A01B0935B01B09B1BC05D
S1130FC04091840050918500C9010196092E000CBE
S1130FD0AA0BBB0BDC019927882760E070E0842B07
S1130FE0952BA62BB72B8093580190935901A0936E
S1130FF05A01B0935B01E091FE01F091FF0130973B
S113100039F063E070E08091660190916701099581
S11310100E943006FF91EF91BF91AF919F918F9104
S11310207F916F915F914F913F912F910F900FBEE0
S11310300F901F9018951F920F920FB60F921124C4
S11310402F933F934F935F936F937F938F939F93CC
S1131050AF93BF93EF93FF932091560130915701C3
S11310604091840050918500C901032E000CAA0B05
S1131070BB0BDC019927882760E070E0842B952B5B
S1131080A62BB72B8093580190935901A0935A0132
S1131090B0935B01B09B1BC04091840050918500CC
S11310A0C9010196092E000CAA0BBB0BDC01992780
S11310B0882760E070E0842B952BA62BB72B8093B8
S11310C0580190935901A0935A01B0935B01E091A8
S11310D00002F0910102309739F064E070E08091F1
S11310E068019091690109950E943006FF91EF9182
S11310F0BF91AF919F918F917F916F915F914F912C
S11311003F912F910F900FBE0F901F9018951F9233
S11311100F920FB60F9211242F933F934F935F9327
S11311206F937F938F939F93AF93BF93EF93FF93AB
S113113020915601309157014091840050918500CF
S1131140C901032E000CAA0BBB0BDC0199278827CD
S113115060E070E0842B952BA62BB72B809358016D
S113116090935901A0935A01B0935B01B09B1BC0AB
S11311704091840050918500C9010196092E000C0C
S1131180AA0BBB0BDC019927882760E070E0842B55
S1131190952BA62BB72B8093580190935901A093BC
S11311A05A01B0935B01E0910202F091030230977F
S11311B039F065E070E080916A0190916B010995C6
S11311C00E943006FF91EF91BF91AF919F918F9153
S11311D07F916F915F914F913F912F910F900FBE2F
S11311E00F901F9018951F920F920FB60F92112413
S11311F02F933F934F935F936F937F938F939F931B
S1131200AF93BF93EF93FF93209156013091570111
S11312104091840050918500C901032E000CAA0B53
S1131220BB0BDC019927882760E070E0842B952BA9
S1131230A62BB72B8093580190935901A0935A0180
S1131240B0935B01B09B1BC040918400509185001A
S1131250C9010196092E000CAA0BBB0BDC019927CE
S1131260882760E070E0842B952BA62BB72B809306
S1131270580190935901A0935A01B0935B01E091F6
S11312800402F0910502309739F066E070E0809135
S11312906C0190916D0109950E943006FF91EF91C8
S11312A0BF91AF919F918F917F916F915F914F917A
S11312B03F912F910F900FBE0F901F9018951F9282
S11312C00F920FB60F9211242F933F934F935F9376
S11312D06F937F938F939F93AF93BF93EF93FF93FA
S11312E0209156013091570140918400509185001E
S11312F0C901032E000CAA0BBB0BDC01992788271C
S113130060E070E0842B952BA62BB72B80935801BB
S113131090935901A0935A01B0935B01B09B1BC0F9
S11313204091840050918500C9010196092E000C5A
S1131330AA0BBB0BDC019927882760E070E0842BA3
S1131340952BA62BB72B8093580190935901A0930A
S11313505A01B0935B01E0910602F09107023097C5
S113136039F067E070E080916E0190916F0109950A
S11313700E943006FF91EF91BF91AF919F918F91A1
S11313807F916F915F914F913F912F910F900FBE7D
S11313900F901F9018951F920F920FB60F92112461
S11313A02F933F934F935F936F937F938F939F9369
S11313B0AF93BF93EF93FF93209156013091570160
S11313C04091840050918500C901032E000CAA0BA2
S11313D0BB0BDC019927882760E070E0842B952BF8
S11313E0A62BB72B8093580190935901A0935A01CF
S11313F0B0935B01B09B1BC0409184005091850069
S1131400C9010196092E000CAA0BBB0BDC0199271C
S1131410882760E070E0842B952BA62BB72B809354
S1131420580190935901A0935A01B0935B01E09144
S11314300802F0910902309739F068E070E0809179
S113144070019091710109950E943006FF91EF910E
S1131450BF91AF919F918F917F916F915F914F91C8
S11314603F912F910F900FBE0F901F9018951F92D0
S11314700F920FB60F9211242F933F934F935F93C4
S11314806F937F938F939F93AF93BF93EF93FF9348
S1131490209156013091570140918400509185006C
S11314A0C901032E000CAA0BBB0BDC01992788276A
S11314B060E070E0842B952BA62BB72B809358010A
S11314C090935901A0935A01B0935B01B09B1BC048
S11314D04091840050918500C9010196092E000CA9
S11314E0AA0BBB0BDC019927882760E070E0842BF2
S11314F0952BA62BB72B8093580190935901A09359
S11315005A01B0935B01E0910A02F0910B0230970B
S113151039F069E070E0809172019091730109954E
S11315200E943006FF91EF91BF91AF919F918F91EF
S11315307F916F915F914F913F912F910F900FBECB
S11315400F901F9018951F920F920FB60F921124AF
S11315502F933F934F935F936F937F938F939F93B7
S1131560AF93BF93EF93FF932091560130915701AE
S11315704091840050918500C901032E000CAA0BF0
S1131580BB0BDC019927882760E070E0842B952B46
S1131590A62BB72B8093580190935901A0935A011D
S11315A0B0935B01B09B1BC04091840050918500B7
S11315B0C9010196092E000CAA0BBB0BDC0199276B
S11315C0882760E070E0842B952BA62BB72B8093A3
S11315D0580190935901A0935A01B0935B01E09193
S11315E00C02F0910D02309739F06AE070E08091BE
S11315F074019091750109950E943006FF91EF9155
S1131600BF91AF919F918F917F916F915F914F9116
S11316103F912F910F900FBE0F901F9018951F921E
S11316200F920FB60F9211242F933F934F935F9312
S11316306F937F938F939F93AF93BF93EF93FF9396
S113164020915601309157014091840050918500BA
S1131650C901032E000CAA0BBB0BDC0199278827B8
S113166060E070E0842B952BA62BB72B8093580158
S113167090935901A0935A01B0935B01B09B1BC096
S11316804091840050918500C9010196092E000CF7
S1131690AA0BBB0BDC019927882760E070E0842B40
S11316A0952BA62BB72B8093580190935901A093A7
S11316B05A01B0935B01E0910E02F0910F02309752
S11316C039F06BE070E08091760190917701099593
S11316D00E943006FF91EF91BF91AF919F918F913E
S11316E07F916F915F914F913F912F910F900FBE1A
S11316F00F901F9018951F920F920FB60F921124FE
S11317002F933F934F935F936F937F938F939F9305
S1131710AF93BF93EF93FF932091560130915701FC
S11317204091840050918500C901032E000CAA0B3E
S1131730BB0BDC019927882760E070E0842B952B94
S1131740A62BB72B8093580190935901A0935A016B
S1131750B0935B01B09B1BC0409184005091850005
S1131760C9010196092E000CAA0BBB0BDC019927B9
S1131770882760E070E0842B952BA62BB72B8093F1
S1131780580190935901A0935A01B0935B01E091E1
S11317901002F0911102309739F06CE070E0809102
S11317A078019091790109950E943006FF91EF919B
S11317B0BF91AF919F918F917F916F915F914F9165
S11317C03F912F910F900FBE0F901F9018951F926D
S11317D00F920FB60F9211242F933F934F935F9361
S11317E06F937F938F939F93AF93BF93EF93FF93E5
S11317F02091560130915701409184005091850009
S1131800C901032E000CAA0BBB0BDC019927882706
S113181060E070E0842B952BA62BB72B80935801A6
S113182090935901A0935A01B0935B01B09B1BC0E4
S11318304091840050918500C9010196092E000C45
S1131840AA0BBB0BDC019927882760E070E0842B8E
S1131850952BA62BB72B8093580190935901A093F5
S11318605A01B0935B01E0911202F0911302309798
S113187039F06DE070E080917A0190917B010995D7
S11318800E943006FF91EF91BF91AF919F918F918C
S11318907F916F915F914F913F912F910F900FBE68
S11318A00F901F9018951F920F920FB60F9211244C
S11318B02F933F934F935F936F937F938F939F9354
S11318C0AF93BF93EF93FF9320915601309157014B
S11318D04091840050918500C901032E000CAA0B8D
S11318E0BB0BDC019927882760E070E0842B952BE3
S11318F0A62BB72B8093580190935901A0935A01BA
S1131900B0935B01B09B1BC0409184005091850053
S1131910C9010196092E000CAA0BBB0BDC01992707
S1131920882760E070E0842B952BA62BB72B80933F
S1131930580190935901A0935A01B0935B01E0912F
S11319401402F0911502309739F06EE070E0809146
S11319507C0190917D0109950E943006FF91EF91E1
S1131960BF91AF919F918F917F916F915F914F91B3
S11319703F912F910F900FBE0F901F9018951F92BB
S11319800F920FB60F9211242F933F934F935F93AF
S11319906F937F938F939F93AF93BF93EF93FF9333
S11319A02091560130915701409184005091850057
S11319B0C901032E000CAA0BBB0BDC019927882755
S11319C060E070E0842B952BA62BB72B80935801F5
S11319D090935901A0935A01B0935B01B09B1BC033
S11319E04091840050918500C9010196092E000C94
S11319F0AA0BBB0BDC019927882760E070E0842BDD
S1131A00952BA62BB72B8093580190935901A09343
S1131A105A01B0935B01E0911602F09117023097DE
S1131A2039F06FE070E080917E0190917F0109951B
S1131A300E943006FF91EF91BF91AF919F918F91DA
S1131A407F916F915F914F913F912F910F900FBEB6
S1131A500F901F9018951F920F920FB60F9211249A
S1131A602F933F934F935F936F937F938F939F93A2
S1131A70AF93BF93EF93FF93209156013091570199
S1131A804091840050918500C901032E000CAA0BDB
S1131A90BB0BDC019927882760E070E0842B952B31
S1131AA0A62BB72B8093580190935901A0935A0108
S1131AB0B0935B01B09B1BC04091840050918500A2
S1131AC0C9010196092E000CAA0BBB0BDC01992756
S1131AD0882760E070E0842B952BA62BB72B80938E
S1131AE0580190935901A0935A01B0935B01E0917E
S1131AF01802F0911902309739F060E170E080919A
S1131B0080019091810109950E943006FF91EF9127
S1131B10BF91AF919F918F917F916F915F914F9101
S1131B203F912F910F900FBE0F901F9018951F9209
S1131B300F920FB60F9211242F933F934F935F93FD
S1131B406F937F938F939F93AF93BF93EF93FF9381
S1131B5020915601309157014091840050918500A5
S1131B60C901032E000CAA0BBB0BDC0199278827A3
S1131B7060E070E0842B952BA62BB72B8093580143
S1131B8090935901A0935A01B0935B01B09B1BC081
S1131B904091840050918500C9010196092E000CE2
S1131BA0AA0BBB0BDC019927882760E070E0842B2B
S1131BB0952BA62BB72B8093580190935901A09392
S1131BC05A01B0935B01E0911A02F0911B02309725
S1131BD039F061E170E0809182019091830109956F
S1131BE00E943006FF91EF91BF91AF919F918F9129
S1131BF07F916F915F914F913F912F910F900FBE05
S1131C000F901F901895EF92FF920F931F93CF930D
S1131C10DF937B01EB01A881B981109761F1FC018D
S1131C20068117812085318516964D915D916D91C0
S1131C307C911997041715072607370714F41BC05E
S1131C40DF01ED91FC911197309749F0468157815E
S1131C506085718504171507260737078CF7EC0193
S1131C60F983E883109721F4F7019183808307C0F7
S1131C708D939C9304C0EC01B983A883F5CFDF91C5
S1131C80CF911F910F91FF90EF900895EF92FF92E3
S1131C900F931F93CF93DF937B01EB01A881B9814D
S1131CA0109761F1FC010281138124813581129620
S1131CB04D915D916D917C91159704171507260739
S1131CC0370714F41BC0DF01ED91FC911197309795
S1131CD049F04281538164817581041715072607F1
S1131CE037078CF7EC01F983E883109721F4F701A7
S1131CF09183808307C08D939C9304C0EC01B983C6
S1131D00A883F5CFDF91CF911F910F91FF90EF90B2
S1131D100895DC01ED91FC911197309759F48FEF00
S1131D208093EC008093ED008093EE0081E083BF0C
S1131D308895FDCF208131812D933C93CF01089567
S1131D401F920F920FB60F9211242F933F934F932C
S1131D505F936F937F938F939F93EF93FF93809100
S1131D605601909157010196909357018093560123
S1131D70E0915C01F0915D01309701F14281538162
S1131D806481758186179707C9F4CA01209184007C
S1131D9030918500421B530B4130510529F4809149
S1131DA08400909185000196909389008093880027
S1131DB0EFE6F0E080818260808305C0EFE6F0E02A
S1131DC080818D7F8083FF91EF919F918F917F918F
S1131DD06F915F914F913F912F910F900FBE0F9094
S1131DE01F9018951F920F920FB60F921124CF9245
S1131DF0DF92EF92FF922F933F934F935F936F93F2
S1131E007F938F939F93AF93BF93EF93FF93C09070
S1131E105601D09057012091840030918500B099EB
S1131E200FC00D2C000CEE08FF08D6019927882757
S1131E306901E12CF12CC82AD92AEA2AFB2A15C007
S1131E4020918400309185008FEFC81AD80A0D2C98
S1131E50000CEE08FF08D601992788276901E12CB8
S1131E60F12CC82AD92AEA2AFB2AE0915C01F091D4
S1131E705D01309709F442C082819381A481B581C8
S1131E808C199D09AE09BF09181619061A061B06F6
S1131E90ECF18CE591E00E94890E6EE571E00E9400
S1131EA0030EE0915C01F0915D01309739F182817C
S1131EB09381A481B5818C199D09AE09BF091816B7
S1131EC019061A061B062CF721C09C0140918400B8
S1131ED050918500841B950B019731F42091840067
S1131EE0309185002F5F3F4F309389002093880005
S1131EF0EFE6F0E080818260808305C0EFE6F0E0E9
S1131F0080818D7F80830E9430060CC08281938102
S1131F10A481B58120915601309157012A173B07BE
S1131F2069F7D3CFFF91EF91BF91AF919F918F91BB
S1131F307F916F915F914F913F912F91FF90EF901F
S1131F40DF90CF900F900FBE0F901F9018953F9287
S1131F504F925F926F927F928F929F92AF92BF92B5
S1131F60CF92DF92EF92FF920F931F93CF93DF9361
S1131F702B013C0149015A018FB78078382EF8941F
S1131F8080E491E00E94890EEC011B870A87FD869C
S1131F90EC86DF86CE86332061F0E0913A01F09141
S1131FA03B010280F381E02D82819381A481B5817C
S1131FB008C08091580190915901A0915A01B091A3
S1131FC05B01480E591E6A1E7B1E4A825B826C822C
S1131FD07D82181419041A041B0444F00F2E88245B
S1131FE08A94982CA82CFFE7BF2EF02D840C951C06
S1131FF0A61CB71C8E829F82A886B9868091560142
S1132000909157014091840050918500B0990EC081
S1132010092E000CAA0BBB0BDC019927882760E072
S113202070E0842B952BA62BB72B13C02091840032
S1132030309185000196092E000CAA0BBB0BDC0124
S113204099278827A90160E070E0842B952BA62BA3
S1132050B72B481A590A6A0A7B0A14141504160481
S11320601704ACF56CE571E0CE010E94460EE091D8
S11320705C01F0915D01309721F182819381A4810B
S1132080B58120915601309157012A173B07C9F4B5
S11320909C014091840050918500841B950B01970D
S11320A031F420918400309185002F5F3F4F3093AD
S11320B0890020938800EFE6F0E0808182608083CD
S11320C041C0EFE6F0E080818D7F80833BC06EE508
S11320D071E0CE010E94030E3320B9F180913E01DC
S11320E090913F01009781F1E0913C01F0913D0115
S11320F020915E0130915F0102811381D90116960E
S11321004D915D916D917C911997D80116960D9121
S11321101D912D913C911997401B510B620B730B30
S11321209AF4DC012D913C91119730933F01209357
S11321303E01ED93FC9390933D0180933C010E94FA
S1132140100602C0332009F07894CE01DF91CF91BC
S11321501F910F91FF90EF90DF90CF90BF90AF90C1
S11321609F908F907F906F905F904F903F900895D5
S1132170CF92DF92EF92FF920F931F93CF93DF934F
S1132180EC017B016A011FB71078F894A881B9812A
S1132190109761F11496ED91FC911597309741F0E9
S11321A0A081B1811496ED91FC9115973097C1F7F8
S11321B020913A0130913B012A173B0721F011236A
S11321C009F43DC007C0112309F43CC078948FEF93
S11321D09FEF52C08A819B810097D1F1FC01158247
S11321E0148236C0789480E090E046C080913A0131
S11321F090913B0199838883112329F08A819B81E3
S1132200019709F07894B601CE01F7010995F82EEB
S1132210092F8FB7F894198218828A819B818230A2
S1132220910538F01B821A82FC01158214820E94E7
S11322301006112351F078948F2D902F1DC08FEF2D
S11322409FEF1AC08FEF9FEF17C08F2D902F14C0F0
S11322503B832A83F901D583C483CD010E941006F0
S1132260E0913A01F0913B0182819381892B09F439
S1132270B9CFF983E883C2CFDF91CF911F910F913A
S1132280FF90EF90DF90CF90089500913A01109164
S11322903B018EE591E00E94890EEC01D801139672
S11322A09C938E93129778944E855F856C857D857B
S11322B08A859B850E94B8108FB7F894809140015D
S11322C09091410199838883D0934101C093400147
S11322D0E0913C01F0913D0100811181E8012A81E6
S11322E03B81A0915E01B0915F011097C1F021156F
S11322F0310559F216968D919D910D90BC91A02DAA
S1132300E9014E815F8168857985841B950BA60B55
S1132310B70B181619061A061B060CF0B6CF109345
S11323203D0100933C0180913E0190913F019183D6
S11323308083F0933F01E0933E01A0913C01B09172
S11323403D011496ED91FC911597309741F0A081D1
S1132350B1811496ED91FC9115973097C1F7CD0199
S11323600E94100692CF4231B8F42FB7F89450E08F
S1132370440F551FFA01E05AFE4F91838083FA01FE
S1132380E850FE4F7183608341E050E0FC015383C9
S1132390428322230CF4789408958C017B016A0112
S11323A08FB7F8940E94A5057894E114F10441F0E4
S11323B020E030E0A90160E070E0CB010E94A70FAB
S11323C08FB7F8940E943006789481E083BF889593
S11323D0FDCF672B79F04EB121E030E0B901FC016B
S11323E0048002C0660F771F0A94E2F7CB01842BA6
S11323F08EB90FC04EB121E030E0B901FC01048078
S113240002C0660F771F0A94E2F7CB0180958423FC
S11324108EB980E090E008954EB121E030E0FC01F7
S1132420048002C0220F331F0A94E2F724272EB936
S113243080E090E0089597FB072E16F4009407D0EF
S113244077FD09D00E94551207FC05D03EF4909503
S113245081959F4F0895709561957F4F0895052E3E
S113246097FB1EF400940E94461257FD07D00E9469
S1132470691207FC03D04EF40C9446125095409513
S1132480309521953F4F4F4F5F4F0895909580951C
S1132490709561957F4F8F4F9F4F08950E948B12C7
S11324A0B7FF0895821B930B0895AA1BBB1B51E130
S11324B007C0AA1FBB1FA617B70710F0A61BB70BB0
S11324C0881F991F5A95A9F780959095BC01CD0155
S11324D00895A1E21A2EAA1BBB1BFD010DC0AA1F61
S11324E0BB1FEE1FFF1FA217B307E407F50720F079
S11324F0A21BB30BE40BF50B661F771F881F991FF4
S11325001A9469F760957095809590959B01AC013C
S1132510BD01CF010895A29FB001B39FC001A39F45
S1132520700D811D1124911DB29F700D811D112408
S1132530911D0895DC012D923D924D925D926D9214
S11325407D928D929D92AD92BD92CD92DD92ED924F
S1132550FD920D931D93CD93DD93FF91EF918DB774
S11325608D938EB78D938FB78D93ED93FD938827BD
S113257099270994DC01CB0181309105811D2D90AF
S11325803D904D905D906D907D908D909D90AD901F
S1132590BD90CD90DD90ED90FD900D911D91CD916C
S11325A0DD91ED91FD910D90F894FEBF0FBEEDBF4E
S10D25B0ED91FD910994F894FFCF1A
S11325BA00000000060100000000130100000000F2
S11325CA0000000000000026011C010000000000B9
S11325DA0000003001000000000000000035010086
S11325EA000000000600000000041C021C02840112
S11325FA390251151001111E111B500B411B411FA9
S109260A1101511F511BD8
S9030000FC
