:100000000C942E000C9419060C9485060C94F106A1
:100010000C945D070C94C9070C944B000C94040ECF
:100020000C944B000C94B10D0C9435080C94A10861
:100030000C940D090C9479090C94E5090C94510A5F
:100040000C94BD0A0C94290B0C94950B0C94010C88
:100050000C946D0C0C94D90C0C94450D11241FBEFE
:10006000CFEFD4E0DEBFCDBF11E0A0E0B1E0E4E12E
:10007000F5E202C005900D92AC31B107D9F724E04A
:10008000ACE1B1E001C01D92AF36B207E1F70E94CA
:1000900018040C9488120C940000CF92DF92EF9217
:1000A000FF920F931F93FC012285222321F01E9BB8
:1000B0000BC0FC01128680E090E01F910F91FF9031
:1000C000EF90DF90CF9008958C0140E050E062EF18
:1000D00072E0848195810E946410C12CD12C8DE442
:1000E000E82E80E0F82E20E030E0A90165E37CE016
:1000F00080E090E00E94F40EDECFCF92DF92EF928C
:10010000FF920F931F93FC012385222321F01F9B55
:100110000BC0FC01138680E090E01F910F91FF90CF
:10012000EF90DF90CF9008958C0140E050E06BE2BB
:1001300073E0848195810E946410C12CD12C8DE7DD
:10014000E82E80E0F82E20E030E0A90165E37CE0B5
:1001500080E090E00E94F40EDECF85B1806D85B91D
:100160008EB18C608EB98DB3806C8DBBEBE6F0E008
:1001700080818C608083ECE6F0E08081806D8083FC
:100180000895629904C0FC012085222339F0629B06
:1001900002C0FC01108680E090E0089581E0808735
:1001A00040E050E06EEC72E0848195810E94641022
:1001B00080E090E00895639904C0FC01218522232A
:1001C00039F0639B02C0FC01118680E090E0089545
:1001D00081E0818741E050E06EEC72E0848195819E
:1001E0000E94641080E090E00895CF93DF93EC01CB
:1001F000629903C08885882361F01886639903C0DB
:100200008985882361F0198680E090E0DF91CF91A5
:10021000089560E070E0CE010E94C100EFCF60E081
:1002200070E0CE010E94DB0080E090E0DF91CF9192
:100230000895CF92DF92EF92FF920F931F931E9932
:1002400012C0FC01268121110EC021E026833285D7
:10025000332371F080E090E01F910F91FF90EF90B9
:10026000DF90CF9008951E9BF5CFFC011682F2CF50
:100270008C012287C12CD12C8DE4E82E80E0F82E51
:1002800020E030E0A9016AE176E080E090E00E94A1
:10029000F40EE0CFCF92DF92EF92FF920F931F9375
:1002A0001F9912C0FC01278121110EC021E0278374
:1002B0003385332371F080E090E01F910F91FF9020
:1002C000EF90DF90CF9008951F9BF5CFFC01178230
:1002D000F2CF8C012387C12CD12C8DE7E82E80E052
:1002E000F82E20E030E0A9016AE176E080E090E0BD
:1002F0000E94F40EE0CF1C9904C0FC012485222347
:1003000039F01C9B02C0FC01148680E090E0089547
:1003100081E0848740E050E064E673E08481958169
:100320000E94641080E090E00895CF93DF93EC0189
:100330001E9903C08E818823C1F01E821F9903C0BD
:100340008F81882361F01F821C9903C08C858823CC
:1003500091F01C8680E090E0DF91CF91089560E0FD
:1003600070E0CE010E944A01EFCF60E070E0CE0164
:100370000E941901E3CF60E070E0CE010E947B0192
:1003800080E090E0DF91CF91089590ED980F9A3042
:1003900060F19B012170307837FD71C0220F331F4F
:1003A000220F331F50E040E0A0E0B0E077FD5DC0D9
:1003B00075956795FB01E451FF4F8FE090E001C018
:1003C000880F2A95EAF78095908198239B2B90833C
:1003D000958198239A2B958392859823942B9287C5
:1003E00097858923852B87870895E82FF0E0EE0F06
:1003F000FF1FE855FF4F408151819B0121703078EC
:1004000037FD36C0220F331F220F331FCA018F70F2
:100410009927982F022E01C0990F0A94EAF7B92F55
:10042000CA01929582958F7089279F7089278F7056
:100430009927982F022E01C0990F0A94EAF7A92F45
:10044000852F99278F709927022E01C0880F0A9453
:10045000EAF7482F852F82958F70022E01C0880FF2
:100460000A94EAF7582F77FFA3CF6F5F7F4FA0CF93
:10047000215031092E6F3F6F2F5F3F4FC3CF215067
:1004800031092E6F3F6F2F5F3F4F88CF80EC8093F5
:10049000E40087EB8093E5008FE08093E700089508
:1004A000CF92DF92EF92FF92CF93DF936B017C01AB
:1004B000EA0146305105F0F02196C630D10538F0FA
:1004C000DF91CF91FF90EF90DF90CF900895C7011B
:1004D000B6012AE030E040E050E00E94DC11862FB7
:1004E000BE01805DDF91CF91FF90EF90DF90CF90C4
:1004F0000C94C50124E630E040E050E00E94DC119D
:100500002AE030E040E050E00E94DC11BE0180E3D0
:10051000820F0E94C501D0CFCF93DF93EC0140E062
:1005200050E069EE74E08C819D810E946410BC01F2
:10053000990F880B990B40E050E00E94500240E078
:1005400050E069EE74E08E819F810E946410BC01CE
:10055000990F880B990B44E050E00E945002888567
:1005600062E070E0882369F080E30E94C50163E0E7
:1005700070E081E30E94C50180E090E0DF91CF91BF
:10058000089581E30E94C50163E070E080E30E946A
:10059000C50180E090E0DF91CF910895CF92DF9286
:1005A000EF92FF920F931F9321E0672B09F420E055
:1005B000FC012087C12CD12C2CE8E22E22E0F22E67
:1005C0008C0120E030E0A90160E070E0CB010E94E6
:1005D000F40E80E090E01F910F91FF90EF90DF907C
:1005E000CF900895CF92DF92EF92FF920F931F93D7
:1005F000CF93DF93EC018885882351F10E811F8111
:10060000C12CD12C8DEEE82E84E0F82E20E030E0D5
:10061000A90160E070E0CB010E94F40EC12CD12C46
:100620009CE8E92E92E0F92E8E0120E030E0A9014D
:1006300060E070E0CB010E94F40E80E090E0DF917A
:10064000CF911F910F91FF90EF90DF90CF90089581
:100650000C811D81D5CFCF92DF92EF92FF920F9345
:100660001F93CF93DF93EC018885882351F10E818E
:100670001F81C12CD12C86EFE82E84E0F82E20E0DB
:1006800030E0A90160E070E0CB010E94F40EC12CC3
:10069000D12C9CE8E92E92E0F92E8E0120E030E08A
:1006A000A90160E070E0CB010E94F40E80E090E0D0
:1006B000DF91CF911F910F91FF90EF90DF90CF903E
:1006C00008950C811D81D5CFCF92DF92EF92FF92DA
:1006D0000F931F93CF93DF93EC018885882351F10B
:1006E0000E811F81C12CD12C8FEFE82E84E0F82ED3
:1006F00020E030E0A90160E070E0CB010E94F40E40
:10070000C12CD12C9CE8E92E92E0F92E8E0120E03C
:1007100030E0A90160E070E0CB010E94F40E80E0BF
:1007200090E0DF91CF911F910F91FF90EF90DF90BC
:10073000CF9008950C811D81D5CFCF92DF92EF929B
:10074000FF920F931F93CF93DF93EC010C811D81D8
:10075000C12CD12C8AE8E82E84E0F82E20E030E08D
:10076000A90160E070E0CB010E94F40E0E811F81B0
:1007700020E030E0A90160E070E0CB010E94F40EBF
:100780009CE8E92E92E0F92E8E0120E030E0A901EC
:1007900060E070E0CB010E94F40E80E090E0DF9119
:1007A000CF911F910F91FF90EF90DF90CF90089520
:1007B000CF92DF92EF92FF920F931F93FC0104817F
:1007C0001581C12CD12C85EFE82E80E0F82E20E099
:1007D00030E0A90160E070E0CB010E94F40E80E0FF
:1007E00090E01F910F91FF90EF90DF90CF900895D0
:1007F000CF92DF92EF92FF920F931F93FC0104813F
:100800001581C12CD12C85E9E82E81E0F82E20E05D
:1008100030E0A90160E070E0CB010E94F40E80E0BE
:1008200090E01F910F91FF90EF90DF90CF9008958F
:100830000F931F93CF93DF93CDB7DEB7EA970FB631
:10084000F894DEBF0FBECDBF1FAA1EAA19AE18AE08
:1008500084E08AAF1AAA19AA1CAA1BAA86E08DAB4B
:10086000198E188E1B8E1A8E1C8E1D8E1E8ECE011A
:10087000C69698A38F8F19A21F861E86198A188A7A
:100880001A8A1B8A1C8A05979E8B8D8B1F8A1BA236
:100890001AA21DA21CA249979FA38EA30A9799A7EB
:1008A00088A71AA6FE0131968DE0DF011D928A9578
:1008B000E9F78E010E5D1F4F1E830D831CA61BA63C
:1008C0001EA61DA6F8ABEFA70E9427050E944602B0
:1008D0000E94AD0041E068ED73E0CE018B960E946E
:1008E000611142E068EF73E0CE018B960E946111C6
:1008F00040E050E06DE973E0C8010E947B11EA9688
:100900000FB6F894DEBF0FBECDBFDF91CF911F9120
:100910000F910895CF92DF92EF92FF920F931F9362
:10092000CF93DF93EC018C810F811885C12CD12CE2
:100930008823A1F189EBE82E81E1F82E20E030E058
:10094000A90160E070E0CB010E94F40E6C8170E0C0
:1009500084EF91E00E94C8112DE730E0DB010E9496
:10096000FB119595879577956795959587957795DB
:1009700067953AE8E32E34E0F32E8E0120E030E074
:10098000A9010E94F40E80E090E0DF91CF911F91C9
:100990000F91FF90EF90DF90CF90089547E9E42EFC
:1009A00041E1F42E20E030E0A90160E070E0CB01ED
:1009B0000E94F40E5AE8E52E54E0F52E8E0120E058
:1009C00030E0A90162E17AE780E090E00E94F40E55
:1009D000DACFFC01848190E00895FC019481933684
:1009E00010F49F5F948380E090E00895FC0194816F
:1009F000992311F09150948380E090E00895CF9274
:100A0000DF92EF92FF920F931F93FC01848181117B
:100A10000BC08581848380E090E01F910F91FF904F
:100A2000EF90DF90CF900895858314820781108521
:100A3000C12CD12C87E9E82E81E1F82E20E030E0AE
:100A4000A90160E070E0CB010E94F40EE4CFE1E682
:100A5000F0E080E88083108227982F9AE1E8F0E0A8
:100A600080818D6080831092850010928400EFE673
:100A7000F0E080818260808382EC90E09093890036
:100A8000809388000895CF93DF9300D000D0CDB736
:100A9000DEB78FE092E02FEE32E0FC017097918399
:100AA0008083409682179307C1F71092E00210925C
:100AB000DF02EAE4F1E087E691E09183808384E855
:100AC00091E0968F858FA1EAB1E0B3AFA2AF1D92FE
:100AD0001C92FA83E983EBE4F3E0FC83EB838981E6
:100AE0009A8106960E9447128B819C81E981FA8146
:100AF000978B868B918F808F86EE90E1948F838F7A
:100B0000158214827D96FA83E983EB81FC81E05A99
:100B1000FF4FFC83EB8389819A818E5B9140F9F6CC
:100B2000E2EEF1E0118210821582148213821282A9
:100B3000E1E6F0E080E88083108210928500109258
:100B4000840084E08093810081E080936F000F90A7
:100B50000F900F900F90DF91CF910895CF93DF9377
:100B600000D0CDB7DEB79A83898380910001909140
:100B7000010106960E944712892B29F00F900F90D1
:100B8000DF91CF91089589819A819093010180939B
:100B9000000161E070E006960E9467120F931F93B8
:100BA000CF93DF93E0912401F09125013097F1F08C
:100BB00080910401909105010097C1F0C09102015C
:100BC000D0910301AA81BB811097A9F0468157817A
:100BD0006085718516960D911D912D913C91199707
:100BE000401B510B620B730B77FD05C0DF91CF915A
:100BF0001F910F910895FC012081318130930501EF
:100C000020930401D183C083909303018093020158
:100C1000DF91CF911F910F910C94AE058FEF8093D0
:100C2000EC008093ED008093EE0081E083BF889517
:100C3000FDCF1F920F920FB60F9211242F933F9367
:100C40004F935F936F937F938F939F93AF93BF93D4
:100C5000EF93FF9320911C0130911D01409184007E
:100C600050918500C901032E000CAA0BBB0BDC01BF
:100C70009927882760E070E0842B952BA62BB72B53
:100C800080931E0190931F01A0932001B093210136
:100C9000B09B1BC04091840050918500C901019612
:100CA000092E000CAA0BBB0BDC019927882760E0FA
:100CB00070E0842B952BA62BB72B80931E0190936D
:100CC0001F01A0932001B0932101E091BE01F0919A
:100CD000BF01309739F060E070E08091260190917B
:100CE000270109950E94CE05FF91EF91BF91AF9129
:100CF0009F918F917F916F915F914F913F912F9134
:100D00000F900FBE0F901F9018951F920F920FB665
:100D10000F9211242F933F934F935F936F937F9381
:100D20008F939F93AF93BF93EF93FF9320911C01F9
:100D300030911D014091840050918500C901032E1E
:100D4000000CAA0BBB0BDC019927882760E070E040
:100D5000842B952BA62BB72B80931E0190931F01FC
:100D6000A0932001B0932101B09B1BC0409184004F
:100D700050918500C9010196092E000CAA0BBB0BEE
:100D8000DC019927882760E070E0842B952BA62B47
:100D9000B72B80931E0190931F01A0932001B09365
:100DA0002101E091C001F091C101309739F061E07B
:100DB00070E0809128019091290109950E94CE054B
:100DC000FF91EF91BF91AF919F918F917F916F9123
:100DD0005F914F913F912F910F900FBE0F901F90F9
:100DE00018951F920F920FB60F9211242F933F93D5
:100DF0004F935F936F937F938F939F93AF93BF9323
:100E0000EF93FF9320911C0130911D0140918400CC
:100E100050918500C901032E000CAA0BBB0BDC010D
:100E20009927882760E070E0842B952BA62BB72BA1
:100E300080931E0190931F01A0932001B093210184
:100E4000B09B1BC04091840050918500C901019660
:100E5000092E000CAA0BBB0BDC019927882760E048
:100E600070E0842B952BA62BB72B80931E019093BB
:100E70001F01A0932001B0932101E091C201F091E4
:100E8000C301309739F062E070E080912A019091BF
:100E90002B0109950E94CE05FF91EF91BF91AF9173
:100EA0009F918F917F916F915F914F913F912F9182
:100EB0000F900FBE0F901F9018951F920F920FB6B4
:100EC0000F9211242F933F934F935F936F937F93D0
:100ED0008F939F93AF93BF93EF93FF9320911C0148
:100EE00030911D014091840050918500C901032E6D
:100EF000000CAA0BBB0BDC019927882760E070E08F
:100F0000842B952BA62BB72B80931E0190931F014A
:100F1000A0932001B0932101B09B1BC0409184009D
:100F200050918500C9010196092E000CAA0BBB0B3C
:100F3000DC019927882760E070E0842B952BA62B95
:100F4000B72B80931E0190931F01A0932001B093B3
:100F50002101E091C401F091C501309739F063E0BF
:100F600070E080912C0190912D0109950E94CE0591
:100F7000FF91EF91BF91AF919F918F917F916F9171
:100F80005F914F913F912F910F900FBE0F901F9047
:100F900018951F920F920FB60F9211242F933F9323
:100FA0004F935F936F937F938F939F93AF93BF9371
:100FB000EF93FF9320911C0130911D01409184001B
:100FC00050918500C901032E000CAA0BBB0BDC015C
:100FD0009927882760E070E0842B952BA62BB72BF0
:100FE00080931E0190931F01A0932001B0932101D3
:100FF000B09B1BC04091840050918500C9010196AF
:10100000092E000CAA0BBB0BDC019927882760E096
:1010100070E0842B952BA62BB72B80931E01909309
:101020001F01A0932001B0932101E091C601F0912E
:10103000C701309739F064E070E080912E01909103
:101040002F0109950E94CE05FF91EF91BF91AF91BD
:101050009F918F917F916F915F914F913F912F91D0
:101060000F900FBE0F901F9018951F920F920FB602
:101070000F9211242F933F934F935F936F937F931E
:101080008F939F93AF93BF93EF93FF9320911C0196
:1010900030911D014091840050918500C901032EBB
:1010A000000CAA0BBB0BDC019927882760E070E0DD
:1010B000842B952BA62BB72B80931E0190931F0199
:1010C000A0932001B0932101B09B1BC040918400EC
:1010D00050918500C9010196092E000CAA0BBB0B8B
:1010E000DC019927882760E070E0842B952BA62BE4
:1010F000B72B80931E0190931F01A0932001B09302
:101100002101E091C801F091C901309739F065E003
:1011100070E0809130019091310109950E94CE05D7
:10112000FF91EF91BF91AF919F918F917F916F91BF
:101130005F914F913F912F910F900FBE0F901F9095
:1011400018951F920F920FB60F9211242F933F9371
:101150004F935F936F937F938F939F93AF93BF93BF
:10116000EF93FF9320911C0130911D014091840069
:1011700050918500C901032E000CAA0BBB0BDC01AA
:101180009927882760E070E0842B952BA62BB72B3E
:1011900080931E0190931F01A0932001B093210121
:1011A000B09B1BC04091840050918500C9010196FD
:1011B000092E000CAA0BBB0BDC019927882760E0E5
:1011C00070E0842B952BA62BB72B80931E01909358
:1011D0001F01A0932001B0932101E091CA01F09179
:1011E000CB01309739F066E070E080913201909148
:1011F000330109950E94CE05FF91EF91BF91AF9108
:101200009F918F917F916F915F914F913F912F911E
:101210000F900FBE0F901F9018951F920F920FB650
:101220000F9211242F933F934F935F936F937F936C
:101230008F939F93AF93BF93EF93FF9320911C01E4
:1012400030911D014091840050918500C901032E09
:10125000000CAA0BBB0BDC019927882760E070E02B
:10126000842B952BA62BB72B80931E0190931F01E7
:10127000A0932001B0932101B09B1BC0409184003A
:1012800050918500C9010196092E000CAA0BBB0BD9
:10129000DC019927882760E070E0842B952BA62B32
:1012A000B72B80931E0190931F01A0932001B09350
:1012B0002101E091CC01F091CD01309739F067E048
:1012C00070E0809134019091350109950E94CE051E
:1012D000FF91EF91BF91AF919F918F917F916F910E
:1012E0005F914F913F912F910F900FBE0F901F90E4
:1012F00018951F920F920FB60F9211242F933F93C0
:101300004F935F936F937F938F939F93AF93BF930D
:10131000EF93FF9320911C0130911D0140918400B7
:1013200050918500C901032E000CAA0BBB0BDC01F8
:101330009927882760E070E0842B952BA62BB72B8C
:1013400080931E0190931F01A0932001B09321016F
:10135000B09B1BC04091840050918500C90101964B
:10136000092E000CAA0BBB0BDC019927882760E033
:1013700070E0842B952BA62BB72B80931E019093A6
:101380001F01A0932001B0932101E091CE01F091C3
:10139000CF01309739F068E070E08091360190918C
:1013A000370109950E94CE05FF91EF91BF91AF9152
:1013B0009F918F917F916F915F914F913F912F916D
:1013C0000F900FBE0F901F9018951F920F920FB69F
:1013D0000F9211242F933F934F935F936F937F93BB
:1013E0008F939F93AF93BF93EF93FF9320911C0133
:1013F00030911D014091840050918500C901032E58
:10140000000CAA0BBB0BDC019927882760E070E079
:10141000842B952BA62BB72B80931E0190931F0135
:10142000A0932001B0932101B09B1BC04091840088
:1014300050918500C9010196092E000CAA0BBB0B27
:10144000DC019927882760E070E0842B952BA62B80
:10145000B72B80931E0190931F01A0932001B0939E
:101460002101E091D001F091D101309739F069E08C
:1014700070E0809138019091390109950E94CE0564
:10148000FF91EF91BF91AF919F918F917F916F915C
:101490005F914F913F912F910F900FBE0F901F9032
:1014A00018951F920F920FB60F9211242F933F930E
:1014B0004F935F936F937F938F939F93AF93BF935C
:1014C000EF93FF9320911C0130911D014091840006
:1014D00050918500C901032E000CAA0BBB0BDC0147
:1014E0009927882760E070E0842B952BA62BB72BDB
:1014F00080931E0190931F01A0932001B0932101BE
:10150000B09B1BC04091840050918500C901019699
:10151000092E000CAA0BBB0BDC019927882760E081
:1015200070E0842B952BA62BB72B80931E019093F4
:101530001F01A0932001B0932101E091D201F0910D
:10154000D301309739F06AE070E080913A019091D0
:101550003B0109950E94CE05FF91EF91BF91AF919C
:101560009F918F917F916F915F914F913F912F91BB
:101570000F900FBE0F901F9018951F920F920FB6ED
:101580000F9211242F933F934F935F936F937F9309
:101590008F939F93AF93BF93EF93FF9320911C0181
:1015A00030911D014091840050918500C901032EA6
:1015B000000CAA0BBB0BDC019927882760E070E0C8
:1015C000842B952BA62BB72B80931E0190931F0184
:1015D000A0932001B0932101B09B1BC040918400D7
:1015E00050918500C9010196092E000CAA0BBB0B76
:1015F000DC019927882760E070E0842B952BA62BCF
:10160000B72B80931E0190931F01A0932001B093EC
:101610002101E091D401F091D501309739F06BE0D0
:1016200070E080913C0190913D0109950E94CE05AA
:10163000FF91EF91BF91AF919F918F917F916F91AA
:101640005F914F913F912F910F900FBE0F901F9080
:1016500018951F920F920FB60F9211242F933F935C
:101660004F935F936F937F938F939F93AF93BF93AA
:10167000EF93FF9320911C0130911D014091840054
:1016800050918500C901032E000CAA0BBB0BDC0195
:101690009927882760E070E0842B952BA62BB72B29
:1016A00080931E0190931F01A0932001B09321010C
:1016B000B09B1BC04091840050918500C9010196E8
:1016C000092E000CAA0BBB0BDC019927882760E0D0
:1016D00070E0842B952BA62BB72B80931E01909343
:1016E0001F01A0932001B0932101E091D601F09158
:1016F000D701309739F06CE070E080913E01909115
:101700003F0109950E94CE05FF91EF91BF91AF91E6
:101710009F918F917F916F915F914F913F912F9109
:101720000F900FBE0F901F9018951F920F920FB63B
:101730000F9211242F933F934F935F936F937F9357
:101740008F939F93AF93BF93EF93FF9320911C01CF
:1017500030911D014091840050918500C901032EF4
:10176000000CAA0BBB0BDC019927882760E070E016
:10177000842B952BA62BB72B80931E0190931F01D2
:10178000A0932001B0932101B09B1BC04091840025
:1017900050918500C9010196092E000CAA0BBB0BC4
:1017A000DC019927882760E070E0842B952BA62B1D
:1017B000B72B80931E0190931F01A0932001B0933B
:1017C0002101E091D801F091D901309739F06DE015
:1017D00070E0809140019091410109950E94CE05F1
:1017E000FF91EF91BF91AF919F918F917F916F91F9
:1017F0005F914F913F912F910F900FBE0F901F90CF
:1018000018951F920F920FB60F9211242F933F93AA
:101810004F935F936F937F938F939F93AF93BF93F8
:10182000EF93FF9320911C0130911D0140918400A2
:1018300050918500C901032E000CAA0BBB0BDC01E3
:101840009927882760E070E0842B952BA62BB72B77
:1018500080931E0190931F01A0932001B09321015A
:10186000B09B1BC04091840050918500C901019636
:10187000092E000CAA0BBB0BDC019927882760E01E
:1018800070E0842B952BA62BB72B80931E01909391
:101890001F01A0932001B0932101E091DA01F091A2
:1018A000DB01309739F06EE070E080914201909159
:1018B000430109950E94CE05FF91EF91BF91AF9131
:1018C0009F918F917F916F915F914F913F912F9158
:1018D0000F900FBE0F901F9018951F920F920FB68A
:1018E0000F9211242F933F934F935F936F937F93A6
:1018F0008F939F93AF93BF93EF93FF9320911C011E
:1019000030911D014091840050918500C901032E42
:10191000000CAA0BBB0BDC019927882760E070E064
:10192000842B952BA62BB72B80931E0190931F0120
:10193000A0932001B0932101B09B1BC04091840073
:1019400050918500C9010196092E000CAA0BBB0B12
:10195000DC019927882760E070E0842B952BA62B6B
:10196000B72B80931E0190931F01A0932001B09389
:101970002101E091DC01F091DD01309739F06FE059
:1019800070E0809144019091450109950E94CE0537
:10199000FF91EF91BF91AF919F918F917F916F9147
:1019A0005F914F913F912F910F900FBE0F901F901D
:1019B00018951F920F920FB60F9211242F933F93F9
:1019C0004F935F936F937F938F939F93AF93BF9347
:1019D000EF93FF9320911C0130911D0140918400F1
:1019E00050918500C901032E000CAA0BBB0BDC0132
:1019F0009927882760E070E0842B952BA62BB72BC6
:101A000080931E0190931F01A0932001B0932101A8
:101A1000B09B1BC04091840050918500C901019684
:101A2000092E000CAA0BBB0BDC019927882760E06C
:101A300070E0842B952BA62BB72B80931E019093DF
:101A40001F01A0932001B0932101E091DE01F091EC
:101A5000DF01309739F060E170E0809146019091AC
:101A6000470109950E94CE05FF91EF91BF91AF917B
:101A70009F918F917F916F915F914F913F912F91A6
:101A80000F900FBE0F901F9018951F920F920FB6D8
:101A90000F9211242F933F934F935F936F937F93F4
:101AA0008F939F93AF93BF93EF93FF9320911C016C
:101AB00030911D014091840050918500C901032E91
:101AC000000CAA0BBB0BDC019927882760E070E0B3
:101AD000842B952BA62BB72B80931E0190931F016F
:101AE000A0932001B0932101B09B1BC040918400C2
:101AF00050918500C9010196092E000CAA0BBB0B61
:101B0000DC019927882760E070E0842B952BA62BB9
:101B1000B72B80931E0190931F01A0932001B093D7
:101B20002101E091E001F091E101309739F061E1AC
:101B300070E0809148019091490109950E94CE057D
:101B4000FF91EF91BF91AF919F918F917F916F9195
:101B50005F914F913F912F910F900FBE0F901F906B
:101B600018951F920F920FB60F9211242F933F9347
:101B70004F935F936F937F938F939F93EF93FF9315
:101B800080911C0190911D01019690931D018093FD
:101B90001C01E0912201F0912301309739F042813C
:101BA00053816481758186179707A1F080916F003A
:101BB0008D7F80936F00FF91EF919F918F917F9127
:101BC0006F915F914F913F912F910F900FBE0F90AA
:101BD0001F901895CA012091840030918500421B06
:101BE000530B4130510551F0909389008093880048
:101BF00080916F00826080936F00DDCF80918400C0
:101C0000909185000196F0CF1F920F920FB60F9220
:101C100011248F929F92AF92BF92CF92DF92EF9258
:101C2000FF920F931F932F933F934F935F936F9365
:101C30007F938F939F93AF93BF93CF93DF93EF9354
:101C4000FF93E0901C01F0901D0180918400909121
:101C50008500B09998C047010F2C000CAA08BB085A
:101C6000540199248824A0E0B0E0882A992AAA2A5D
:101C7000BB2AC0912201D09123018091240190912F
:101C80002501209709F43FC04A815B816C817D81E9
:101C90008A019B01081919092A093B091016110626
:101CA000120613060CF440C0D880C9800097B9F121
:101CB0000E811F8128853985FC0146815781608509
:101CC000718504171507260737074CF1DC010AC098
:101CD00046815781608571850417150726073707E8
:101CE000DCF0DF01ED91FC911197309789F71982B3
:101CF0001882CD93DC93382F292FCD2DDC2D832F07
:101D0000922F209709F610922301109222019093AE
:101D100025018093240113C0F983E883EACF9983D6
:101D200088833C2F2D2FE9CFD0932301C09322012C
:101D30009093250180932401E616F706D9F180914E
:101D40006F008D7F80936F000E94CE05FF91EF9111
:101D5000DF91CF91BF91AF919F918F917F916F91C3
:101D60005F914F913F912F911F910F91FF90EF90B5
:101D7000DF90CF90BF90AF909F908F900F900FBE4D
:101D80000F901F9018952091840030918500470195
:101D90008FEF881A980A092C000CAA08BB08D401F6
:101DA000992788274901A12CB12C882A992AAA2A87
:101DB000BB2A5FCFCA012091840030918500421B6D
:101DC000530B4130510551F0909389008093880066
:101DD00080916F00826080936F00B6CF8091840005
:101DE000909185000196F0CF3F924F925F926F9253
:101DF0007F928F929F92AF92BF92CF92DF92EF929B
:101E0000FF920F931F93CF93DF93EFB7E0783E2EAF
:101E1000F894C0910601D0910701209709F452C1AE
:101E2000E881F981F0930701E09306011B870A8797
:101E3000FD86EC86DF86CE86332009F46FC0E09104
:101E40000001F09101010280F381E02DC280D38076
:101E5000E480F580C60ED71EE81EF91ECA82DB821A
:101E6000EC82FD8212161306140615060CF0F8C05B
:101E7000DA01C9018C019D010C0D1D1D2E1D3F1D98
:101E80000E831F832887398780911C0190911D0143
:101E90006091840070918500B09949C02C01092E91
:101EA000000C660877085201992488242B01612CC4
:101EB000712C482859286A287B28B701A6014419A3
:101EC00055096609770914161506160617060CF04B
:101ED00068C0A0912201B0912301109709F4DCC0E1
:101EE00012960D911D912D913C911597C016D1061A
:101EF000E206F3065CF4D0C04281538164817581AF
:101F0000C416D506E606F7064CF1DF01ED91FC910B
:101F10001197309789F71982188222C0C0901E014C
:101F2000D0901F01E0902001F090210193CFE0912B
:101F30008400F09185002C014FEF441A540A052CBF
:101F4000000C66087708B201552744272F01612C41
:101F5000712C442A552A662A772AAFCFF983E88361
:101F6000CD93DC938217930709F47FC080916F00B3
:101F70008D7F80936F00332009F07894CE01DF913C
:101F8000CF911F910F91FF90EF90DF90CF90BF9076
:101F9000AF909F908F907F906F905F904F903F9009
:101FA0000895A0912401B0912501109709F483C0F0
:101FB0001696CD90DD90ED90FC9019970C151D05AF
:101FC0002E053F0564F477C0C680D780E084F18495
:101FD0000C151D052E053F050CF45BC0DF01ED91CE
:101FE000FC911197309781F719821882CD93DC9379
:101FF000332021F28091040190910501009709F4AA
:10200000BCCFE0910201F0910301209124013091B5
:10201000250102811381D90116964D915D916D9133
:102020007C911997D80116960D911D912D913C9197
:102030001997401B510B620B730B77FF9ECFDC018E
:102040002D913C9111973093050120930401ED935C
:10205000FC9390930301809302010E94AE058DCF03
:102060008FEF9FEFAFEFBFE705CFC801409184002E
:1020700050918500041B150B01301105B1F09093B0
:1020800089008093880080916F00826080936F0048
:1020900072CFF983E883AACFB983A883D0932301B1
:1020A000C0932201970186015DCF809184009091B9
:1020B00085000196E4CFB983A883D0932501C0930E
:1020C000240196CF0E940E06CF92DF92EF92FF92EC
:1020D0000F931F93CF93DF93EC017B016A011FB72E
:1020E0001078F894A881B981109719F462C0A08182
:1020F000B1811496ED91FC9115973097C1F720911D
:102100000001309101012A173B0709F44CC011234B
:10211000A1F18A819B81009719F0FC01158214823C
:102120003B832A83F901D583C483CD010E94AE0588
:10213000E0910001F091010182819381892B09F4E2
:1021400041C0F983E8838A819B81019709F07894E3
:10215000B601CE01F7010995F82E092F8FB7F89433
:10216000198218828A819B8182309105A0F4112303
:1021700079F078948F2D902F02C08FEF9FEFDF9131
:10218000CF911F910F91FF90EF90DF90CF90089526
:102190008F2D902FF4CF1B821A82FC01158214829E
:1021A0000E94AE05E4CF112341F378948FEF9FEFA7
:1021B000E6CF8091000190910101998388831123DA
:1021C00039F2C1CF789480E090E0D9CFC09124015A
:1021D000D0912501E0910001F0910101209709F4CF
:1021E0006EC0888199819093250180932401D383C7
:1021F000C28378944E855F856C857D858A859B85B5
:102200000E9464108FB7F8948091060190910701A5
:1022100099838883D0930701C0930601E09002015F
:10222000F0900301F701A081B18112968D919C91EC
:102230001397C0912401D09125012097A9F0009710
:1022400049F24E815F8168857985FC01068117819D
:1022500020853185401B510B620B730B141615063C
:10226000160617060CF0B6CFB0930301A093020137
:102270008091040190910501F70191838083F09290
:102280000501E09204011496ED91FC9115973097A9
:1022900041F0A081B1811496ED91FC911597309792
:1022A000C1F7CD010E94AE05C0912401D091250156
:1022B000E0910001F0910101209709F092CF0E9476
:1022C0000E064231B8F42FB7F89450E0440F551F72
:1022D000FA01EA5DFE4F91838083FA01E254FE4FDA
:1022E0007183608341E050E0FC015383428327FF08
:1022F00001C0789408958C017B016A018FB7F8942E
:102300000E9443057894E114F10441F020E030E0AC
:10231000A90160E070E0CB010E94F40E8FB7F89441
:102320000E94CE05789481E083BF8895FDCF4EB1A1
:1023300021E030E0672B79F4B901FC01048002C090
:10234000660F771F0A94E2F7CB01809584238EB93C
:1023500080E090E00895B901FC01048002C0660F9E
:10236000771F0A94E2F7CB01842B8EB980E090E0CE
:1023700008954EB121E030E0FC01048002C0220F3C
:10238000331F0A94E2F724272EB980E090E00895E5
:1023900097FB072E16F4009407D077FD09D00E9412
:1023A000021207FC05D03EF4909581959F4F089549
:1023B000709561957F4F0895052E97FB1EF400944C
:1023C0000E94F31157FD07D00E94161207FC03D09C
:1023D0004EF40C94F31150954095309521953F4F54
:1023E0004F4F5F4F089590958095709561957F4F01
:1023F0008F4F9F4F08950E943812B7FF0895821B98
:10240000930B0895AA1BBB1B51E107C0AA1FBB1F5A
:10241000A617B70710F0A61BB70B881F991F5A9570
:10242000A9F780959095BC01CD010895A1E21A2EDF
:10243000AA1BBB1BFD010DC0AA1FBB1FEE1FFF1F68
:10244000A217B307E407F50720F0A21BB30BE40BB8
:10245000F50B661F771F881F991F1A9469F76095FF
:102460007095809590959B01AC01BD01CF010895B9
:10247000A29FB001B39FC001A39F700D811D1124C5
:10248000911DB29F700D811D1124911D0895DC01D5
:102490002D923D924D925D926D927D928D929D9284
:1024A000AD92BD92CD92DD92ED92FD920D931D9372
:1024B000CD93DD93FF91EF918DB78D938EB78D9373
:1024C0008FB78D93ED93FD93882799270994DC01AD
:1024D000CB0181309105811D2D903D904D905D90F7
:1024E0006D907D908D909D90AD90BD90CD90DD9044
:1024F000ED90FD900D911D91CD91DD91ED91FD91AE
:102500000D90F894FEBF0FBEEDBFED91FD910994C3
:04251000F894FFCF6D
:10251400E201E2014A01FF0151151001111E111BD4
:0C252400500B411B411F1101511F511BA6
:00000001FF
