S00C00004C6162342E73726563D5
S11300000C942E000C9453060C94BF060C942B07EE
S11300100C9497070C9403080C944B000C94DA0E80
S11300200C944B000C94880E0C946F080C94DB0811
S11300300C9447090C94B3090C941F0A0C948B0A72
S11300400C94F70A0C94630B0C94CF0B0C943B0C9C
S11300500C94A70C0C94130D0C947F0D11241FBE4B
S1130060CFEFD4E0DEBFCDBF11E0A0E0B1E0EAE81D
S1130070F5E202C005900D92A435B107D9F724E04A
S1130080A4E5B1E001C01D92A73AB207E1F70E94CE
S11300909D040C94C3120C940000CF92DF92EF9253
S11300A0FF920F931F93CF93DF93FC0120852223AC
S11300B041F11E9924C0EC0104811581C12CD12C7D
S11300C00F2EF3E3EF2EF3E0FF2EF02D20E030E0CF
S11300D0A90160E070E0CB010E948F0F0F2EFDE4B8
S11300E0EF2EF0E0FF2EF02D8E0120E030E0A9018C
S11300F065E37CE080E090E00E948F0F02C0FC0189
S1130100108680E090E0DF91CF911F910F91FF90D6
S1130110EF90DF90CF900895CF92DF92EF92FF920D
S11301200F931F93CF93DF93FC012185222341F189
S11301301F9924C0EC0104811581C12CD12C0F2EF0
S1130140F0E8EF2EF3E0FF2EF02D20E030E0A901DF
S113015060E070E0CB010E948F0F0F2EFCE8EF2EC1
S1130160F0E0FF2EF02D8E0120E030E0A90165E3E0
S11301707CE080E090E00E948F0F02C0FC011186B9
S113018080E090E0DF91CF911F910F91FF90EF906D
S1130190DF90CF90089585B1806D85B98EB18C6064
S11301A08EB98DB3806C8DBBEBE6F0E080818C6002
S11301B08083ECE6F0E08081806D80830895CF92A7
S11301C0DF92EF92FF920F931F93629913C0FC0189
S11301D004811581C12CD12C0F2EFDE0EF2EF3E00C
S11301E0FF2EF02D20E030E0A90160E070E0CB01AB
S11301F00E948F0F80E090E01F910F91FF90EF908D
S1130200DF90CF900895CF92DF92EF92FF920F93F9
S11302101F93639914C0FC0104811581CC24C394F9
S1130220D12C0F2EFDE0EF2EF3E0FF2EF02D20E079
S113023030E0A90160E070E0CB010E948F0F80E004
S113024090E01F910F91FF90EF90DF90CF90089571
S1130250CF93DF93EC01629904C060E070E00E94E8
S1130260DF00639905C060E070E0CE010E940301E5
S113027080E090E0DF91CF910895CF92DF92EF92EA
S1130280FF920F931F93CF93DF931E992FC0FC010E
S1130290268121112BC0EC0181E086830481158124
S11302A0C12CD12C0F2EF3E3EF2EF3E0FF2EF02D13
S11302B020E030E0A90160E070E0CB010E948F0FE4
S11302C08885811117C081E088870F2EFDE4EF2E09
S11302D0F0E0FF2EF02D8E0120E030E0A90169E06E
S11302E07DE380E090E00E948F0F04C01E9B02C05B
S11302F0FC01168280E090E0DF91CF911F910F9175
S1130300FF90EF90DF90CF900895CF92DF92EF921D
S1130310FF920F931F93CF93DF931F992FC0FC017C
S1130320278121112BC0EC0181E087830481158191
S1130330C12CD12C0F2EF0E8EF2EF3E0FF2EF02D80
S113034020E030E0A90160E070E0CB010E948F0F53
S11303508985811117C081E089870F2EFCE8EF2E73
S1130360F0E0FF2EF02D8E0120E030E0A90169E0DD
S11303707DE380E090E00E948F0F04C01F9B02C0C9
S1130380FC01178280E090E0DF91CF911F910F91E3
S1130390FF90EF90DF90CF900895CF92DF92EF928D
S11303A0FF920F931F931C9919C0FC012285211100
S11303B015C081E0828704811581C12CD12C0F2EB8
S11303C0FDECEF2EF3E0FF2EF02D20E030E0A9014C
S11303D060E070E0CB010E948F0F04C01C9B02C040
S11303E0FC01128680E090E01F910F91FF90EF9046
S11303F0DF90CF900895CF93DF93EC011E9905C051
S113040060E070E00E943D0101C01E821F9906C099
S113041060E070E0CE010E94850101C01F821C993A
S113042006C060E070E0CE010E94CD0101C01A86D2
S113043080E090E0DF91CF91089580EC8093E40018
S113044087EB8093E5008FE08093E70008956630A2
S1130450710508F06BC090ED980F9A3048F4E82FBE
S1130460F0E0EE0FFF1FE052FF4F2081318102C008
S113047020E030E0FB0177230CF43196F595E79505
S1130480E451FF4F61707078772334F4615071093F
S11304906E6F7F6F6F5F7F4F660F771F660F771FDB
S11304A08FE090E0062E02C0880F991F0A94E2F7AD
S11304B080954081982F9423A9014F705527062ECB
S11304C002C0440F551F0A94E2F7492B4083A90147
S11304D0529542954F7045275F7045274F705527B9
S11304E0062E02C0440F551F0A94E2F79581982303
S11304F0492B4583432F55274F705527062E02C09D
S1130500440F551F0A94E2F792859823492B42879A
S113051047854823C901892F992782958F7002C086
S1130520880F991F6A95E2F7842B878708958F9225
S11305309F92AF92BF92CF92DF92EF92FF92CF93AE
S1130540DF934B015C01EA0124E630E040E050E037
S11305500E9417120F2EFAE0CF2ED12CE12CF12C91
S1130560F02DA70196010E941712BE0180E3820FAD
S11305700E9427022196C501B401A70196010E9499
S11305801712862FBE01805D0E942702DF91CF9152
S1130590FF90EF90DF90CF90BF90AF909F908F909F
S11305A00895CF93DF93EC0140E050E061E375E000
S11305B08C819D810E94A010BC01990F880B990B1E
S11305C040E050E00E94970240E050E061E375E0B3
S11305D08E819F810E94A010BC01990F880B990BFA
S11305E044E050E00E9497028885811109C042E0EE
S11305F050E06AE070E080E090E00E94970208C05A
S113060042E050E061E070E080E090E00E949702F8
S113061080E090E0DF91CF910895CF92DF92EF9246
S1130620FF920F931F9321E0672B09F420E0FC0154
S11306302087C12CD12C0F2EF1EDEF2EF2E0FF2EEE
S1130640F02D8C0120E030E0A90160E070E0CB01E6
S11306500E948F0F80E090E01F910F91FF90EF9028
S1130660DF90CF900895CF92DF92EF92FF920F9395
S11306701F93CF93DF93EC018885811113C00C8104
S11306801D81C12CD12C0F2EF5E3EF2EF5E0FF2EAA
S1130690F02D20E030E0A90160E070E0CB010E9481
S11306A08F0F12C00E811F81C12CD12C0F2EF5E3A8
S11306B0EF2EF5E0FF2EF02D20E030E0A90160E000
S11306C070E0CB010E948F0FC12CD12C0F2EF1EDC5
S11306D0EF2EF2E0FF2EF02D8E0120E030E0A90194
S11306E060E070E0CB010E948F0F80E090E0DF912A
S11306F0CF911F910F91FF90EF90DF90CF900895CD
S1130700CF92DF92EF92FF920F931F93CF93DF93D9
S1130710EC018885811113C00C811D81C12CD12C61
S11307200F2EFEE3EF2EF5E0FF2EF02D20E030E05B
S1130730A90160E070E0CB010E948F0F12C00E810E
S11307401F81C12CD12C0F2EFEE3EF2EF5E0FF2EDE
S1130750F02D20E030E0A90160E070E0CB010E94C0
S11307608F0FC12CD12C0F2EF1EDEF2EF2E0FF2EC6
S1130770F02D8E0120E030E0A90160E070E0CB01B3
S11307800E948F0F80E090E0DF91CF911F910F9135
S1130790FF90EF90DF90CF900895CF92DF92EF9289
S11307A0FF920F931F93CF93DF93EC018885811100
S11307B013C00C811D81C12CD12C0F2EF7E4EF2E18
S11307C0F5E0FF2EF02D20E030E0A90160E070E0BC
S11307D0CB010E948F0F12C00E811F81C12CD12C1E
S11307E00F2EF7E4EF2EF5E0FF2EF02D20E030E0A1
S11307F0A90160E070E0CB010E948F0FC12CD12CC5
S11308000F2EF1EDEF2EF2E0FF2EF02D8E0120E001
S113081030E0A90160E070E0CB010E948F0F80E01E
S113082090E0DF91CF911F910F91FF90EF90DF90B7
S1130830CF900895CF92DF92EF92FF920F931F9380
S1130840FC0104811581C12CD12C0F2EF8E2EF2E6E
S1130850F1E0FF2EF02D20E030E0A90160E070E02F
S1130860CB010E948F0F80E090E01F910F91FF90C9
S1130870EF90DF90CF900895CF92DF92EF92FF92A6
S11308800F931F93FC0104811581C12CD12C0F2ED1
S1130890FBEFEF2EF1E0FF2EF02D20E030E0A90178
S11308A060E070E0CB010E948F0F80E090E01F9128
S11308B00F91FF90EF90DF90CF900895CF92DF9249
S11308C0EF92FF920F931F93CF93DF93EC01C12C10
S11308D0D12C0F2EFAEBEF2EF4E0FF2EF02D04E2D4
S11308E011E020E030E0A90160E070E0CB010E945B
S11308F08F0F0AE111E020E030E0A90160E070E030
S1130900CB010E948F0F0F2EF1EDEF2EF2E0FF2EA0
S1130910F02D8E0120E030E0A90160E070E0CB0111
S11309200E948F0F80E090E0DF91CF911F910F9193
S1130930FF90EF90DF90CF9008950E9471050E9480
S11309401D020E94CB0041E06AE174E080E091E086
S11309500E949B1142E06CE374E080E091E00E940D
S11309609B1140E050E06EE574E081E191E00E946B
S1130970B5110895CF92DF92EF92FF920F931F93D8
S1130980CF93DF93EC018C81811123C00F811885F3
S1130990C12CD12C0F2EF1EDEF2EF1E1FF2EF02D15
S11309A020E030E0A90160E070E0CB010E948F0FED
S11309B00F2EFAEBEF2EF4E0FF2EF02D8E0120E047
S11309C030E0A90162E17AE780E090E00E948F0FB5
S11309D03DC00F811885C12CD12C0F2EF4EFEF2EC2
S11309E0F1E1FF2EF02D20E030E0A90160E070E09D
S11309F0CB010E948F0F6C8170E088EE93E00E941F
S1130A0003122DE730E0DB010E9436128B019C01BA
S1130A10992324F40D5F1F4F2F4F3F4FC901B80195
S1130A209595879577956795959587957795679526
S1130A30C12CD12C0F2EFAEBEF2EF4E0FF2EF02D6B
S1130A408E0120E030E0A9010E948F0F80E090E049
S1130A50DF91CF911F910F91FF90EF90DF90CF9096
S1130A600895FC01848190E00895FC0194819336FB
S1130A7010F49F5F948380E090E00895FC019481DA
S1130A80992311F09150948380E090E00895CF92DF
S1130A90DF92EF92FF920F931F93FC0184818111E7
S1130AA003C08581848314C08583148207811085E3
S1130AB0C12CD12C0F2EF1EDEF2EF1E1FF2EF02DF4
S1130AC020E030E0A90160E070E0CB010E948F0FCC
S1130AD080E090E01F910F91FF90EF90DF90CF9016
S1130AE00895E1E6F0E080E88083108227982F9A49
S1130AF0E1E8F0E080818D6080831092850010929F
S1130B008400EFE6F0E080818260808382EC90E0F4
S1130B1090938900809388000895CF93DF9300D049
S1130B2000D0CDB7DEB787E492E027E233E0FC01E2
S1130B30709791838083409682179307C1F7109230
S1130B40180310921703E2E8F1E08FE991E0918332
S1130B5080838CEB91E0968F858FA9EDB1E0B3AFE4
S1130B60A2AF1D921C92FA83E983E3E8F3E0FC83CD
S1130B70EB8389819A8106960E9482128B819C81E3
S1130B80E981FA81978B868B918F808F8DE291E139
S1130B90948F838F158214827D96FA83E983EB8187
S1130BA0FC81E05AFF4FFC83EB8389819A81865F45
S1130BB09140F9F6EAE1F2E0118210821582148282
S1130BC013821282E1E6F0E080E8808310821092C2
S1130BD085001092840084E08093810081E08093FA
S1130BE06F000F900F900F900F90DF91CF910895A9
S1130BF0CF93DF9300D0CDB7DEB79A8389838091FA
S1130C0038019091390106960E948212892B59F479
S1130C1089819A81909339018093380161E070E071
S1130C2006960E94A2120F900F90DF91CF91089523
S1130C300F931F93CF93DF93E0915C01F0915D01DB
S1130C40309761F180913C0190913D01009731F121
S1130C50C0913A01D0913B01AA81BB81109779F0F0
S1130C60468157816085718516960D911D912D9150
S1130C703C911997401B510B620B730B7AF4FC01E6
S1130C802081318130933D0120933C01D183C08385
S1130C9090933B0180933A010E94F805DF91CF9134
S1130CA01F910F9108951F920F920FB60F92112466
S1130CB02F933F934F935F936F937F938F939F9360
S1130CC0AF93BF93EF93FF9320915401309155015B
S1130CD04091840050918500C901032E000CAA0B99
S1130CE0BB0BDC019927882760E070E0842B952BEF
S1130CF0A62BB72B8093560190935701A0935801CC
S1130D00B0935901B09B1BC0409184005091850061
S1130D10C9010196092E000CAA0BBB0BDC01992713
S1130D20882760E070E0842B952BA62BB72B80934B
S1130D30560190935701A0935801B0935901E09143
S1130D40F601F091F701309739F060E070E080919E
S1130D505E0190915F0109950E941806FF91EF9141
S1130D60BF91AF919F918F917F916F915F914F91BF
S1130D703F912F910F900FBE0F901F9018951F92C7
S1130D800F920FB60F9211242F933F934F935F93BB
S1130D906F937F938F939F93AF93BF93EF93FF933F
S1130DA02091540130915501409184005091850067
S1130DB0C901032E000CAA0BBB0BDC019927882761
S1130DC060E070E0842B952BA62BB72B8093560103
S1130DD090935701A0935801B0935901B09B1BC045
S1130DE04091840050918500C9010196092E000CA0
S1130DF0AA0BBB0BDC019927882760E070E0842BE9
S1130E00952BA62BB72B8093560190935701A09353
S1130E105801B0935901E091F801F091F90130972C
S1130E2039F061E070E08091600190916101099571
S1130E300E941806FF91EF91BF91AF919F918F91FE
S1130E407F916F915F914F913F912F910F900FBEC2
S1130E500F901F9018951F920F920FB60F921124A6
S1130E602F933F934F935F936F937F938F939F93AE
S1130E70AF93BF93EF93FF932091540130915501A9
S1130E804091840050918500C901032E000CAA0BE7
S1130E90BB0BDC019927882760E070E0842B952B3D
S1130EA0A62BB72B8093560190935701A09358011A
S1130EB0B0935901B09B1BC04091840050918500B0
S1130EC0C9010196092E000CAA0BBB0BDC01992762
S1130ED0882760E070E0842B952BA62BB72B80939A
S1130EE0560190935701A0935801B0935901E09192
S1130EF0FA01F091FB01309739F062E070E08091E3
S1130F0062019091630109950E941806FF91EF9187
S1130F10BF91AF919F918F917F916F915F914F910D
S1130F203F912F910F900FBE0F901F9018951F9215
S1130F300F920FB60F9211242F933F934F935F9309
S1130F406F937F938F939F93AF93BF93EF93FF938D
S1130F5020915401309155014091840050918500B5
S1130F60C901032E000CAA0BBB0BDC0199278827AF
S1130F7060E070E0842B952BA62BB72B8093560151
S1130F8090935701A0935801B0935901B09B1BC093
S1130F904091840050918500C9010196092E000CEE
S1130FA0AA0BBB0BDC019927882760E070E0842B37
S1130FB0952BA62BB72B8093560190935701A093A2
S1130FC05801B0935901E091FC01F091FD01309773
S1130FD039F063E070E080916401909165010995B6
S1130FE00E941806FF91EF91BF91AF919F918F914D
S1130FF07F916F915F914F913F912F910F900FBE11
S11310000F901F9018951F920F920FB60F921124F4
S11310102F933F934F935F936F937F938F939F93FC
S1131020AF93BF93EF93FF932091540130915501F7
S11310304091840050918500C901032E000CAA0B35
S1131040BB0BDC019927882760E070E0842B952B8B
S1131050A62BB72B8093560190935701A093580168
S1131060B0935901B09B1BC04091840050918500FE
S1131070C9010196092E000CAA0BBB0BDC019927B0
S1131080882760E070E0842B952BA62BB72B8093E8
S1131090560190935701A0935801B0935901E091E0
S11310A0FE01F091FF01309739F064E070E0809127
S11310B066019091670109950E941806FF91EF91CE
S11310C0BF91AF919F918F917F916F915F914F915C
S11310D03F912F910F900FBE0F901F9018951F9264
S11310E00F920FB60F9211242F933F934F935F9358
S11310F06F937F938F939F93AF93BF93EF93FF93DC
S11311002091540130915501409184005091850003
S1131110C901032E000CAA0BBB0BDC0199278827FD
S113112060E070E0842B952BA62BB72B809356019F
S113113090935701A0935801B0935901B09B1BC0E1
S11311404091840050918500C9010196092E000C3C
S1131150AA0BBB0BDC019927882760E070E0842B85
S1131160952BA62BB72B8093560190935701A093F0
S11311705801B0935901E0910002F09101023097B7
S113118039F065E070E080916801909169010995FA
S11311900E941806FF91EF91BF91AF919F918F919B
S11311A07F916F915F914F913F912F910F900FBE5F
S11311B00F901F9018951F920F920FB60F92112443
S11311C02F933F934F935F936F937F938F939F934B
S11311D0AF93BF93EF93FF93209154013091550146
S11311E04091840050918500C901032E000CAA0B84
S11311F0BB0BDC019927882760E070E0842B952BDA
S1131200A62BB72B8093560190935701A0935801B6
S1131210B0935901B09B1BC040918400509185004C
S1131220C9010196092E000CAA0BBB0BDC019927FE
S1131230882760E070E0842B952BA62BB72B809336
S1131240560190935701A0935801B0935901E0912E
S11312500202F0910302309739F066E070E0809169
S11312606A0190916B0109950E941806FF91EF9114
S1131270BF91AF919F918F917F916F915F914F91AA
S11312803F912F910F900FBE0F901F9018951F92B2
S11312900F920FB60F9211242F933F934F935F93A6
S11312A06F937F938F939F93AF93BF93EF93FF932A
S11312B02091540130915501409184005091850052
S11312C0C901032E000CAA0BBB0BDC01992788274C
S11312D060E070E0842B952BA62BB72B80935601EE
S11312E090935701A0935801B0935901B09B1BC030
S11312F04091840050918500C9010196092E000C8B
S1131300AA0BBB0BDC019927882760E070E0842BD3
S1131310952BA62BB72B8093560190935701A0933E
S11313205801B0935901E0910402F09105023097FD
S113133039F067E070E080916C0190916D0109953E
S11313400E941806FF91EF91BF91AF919F918F91E9
S11313507F916F915F914F913F912F910F900FBEAD
S11313600F901F9018951F920F920FB60F92112491
S11313702F933F934F935F936F937F938F939F9399
S1131380AF93BF93EF93FF93209154013091550194
S11313904091840050918500C901032E000CAA0BD2
S11313A0BB0BDC019927882760E070E0842B952B28
S11313B0A62BB72B8093560190935701A093580105
S11313C0B0935901B09B1BC040918400509185009B
S11313D0C9010196092E000CAA0BBB0BDC0199274D
S11313E0882760E070E0842B952BA62BB72B809385
S11313F0560190935701A0935801B0935901E0917D
S11314000602F0910702309739F068E070E08091AD
S11314106E0190916F0109950E941806FF91EF915A
S1131420BF91AF919F918F917F916F915F914F91F8
S11314303F912F910F900FBE0F901F9018951F9200
S11314400F920FB60F9211242F933F934F935F93F4
S11314506F937F938F939F93AF93BF93EF93FF9378
S113146020915401309155014091840050918500A0
S1131470C901032E000CAA0BBB0BDC01992788279A
S113148060E070E0842B952BA62BB72B809356013C
S113149090935701A0935801B0935901B09B1BC07E
S11314A04091840050918500C9010196092E000CD9
S11314B0AA0BBB0BDC019927882760E070E0842B22
S11314C0952BA62BB72B8093560190935701A0938D
S11314D05801B0935901E0910802F0910902309744
S11314E039F069E070E08091700190917101099583
S11314F00E941806FF91EF91BF91AF919F918F9138
S11315007F916F915F914F913F912F910F900FBEFB
S11315100F901F9018951F920F920FB60F921124DF
S11315202F933F934F935F936F937F938F939F93E7
S1131530AF93BF93EF93FF932091540130915501E2
S11315404091840050918500C901032E000CAA0B20
S1131550BB0BDC019927882760E070E0842B952B76
S1131560A62BB72B8093560190935701A093580153
S1131570B0935901B09B1BC04091840050918500E9
S1131580C9010196092E000CAA0BBB0BDC0199279B
S1131590882760E070E0842B952BA62BB72B8093D3
S11315A0560190935701A0935801B0935901E091CB
S11315B00A02F0910B02309739F06AE070E08091F2
S11315C072019091730109950E941806FF91EF91A1
S11315D0BF91AF919F918F917F916F915F914F9147
S11315E03F912F910F900FBE0F901F9018951F924F
S11315F00F920FB60F9211242F933F934F935F9343
S11316006F937F938F939F93AF93BF93EF93FF93C6
S113161020915401309155014091840050918500EE
S1131620C901032E000CAA0BBB0BDC0199278827E8
S113163060E070E0842B952BA62BB72B809356018A
S113164090935701A0935801B0935901B09B1BC0CC
S11316504091840050918500C9010196092E000C27
S1131660AA0BBB0BDC019927882760E070E0842B70
S1131670952BA62BB72B8093560190935701A093DB
S11316805801B0935901E0910C02F0910D0230978A
S113169039F06BE070E080917401909175010995C7
S11316A00E941806FF91EF91BF91AF919F918F9186
S11316B07F916F915F914F913F912F910F900FBE4A
S11316C00F901F9018951F920F920FB60F9211242E
S11316D02F933F934F935F936F937F938F939F9336
S11316E0AF93BF93EF93FF93209154013091550131
S11316F04091840050918500C901032E000CAA0B6F
S1131700BB0BDC019927882760E070E0842B952BC4
S1131710A62BB72B8093560190935701A0935801A1
S1131720B0935901B09B1BC0409184005091850037
S1131730C9010196092E000CAA0BBB0BDC019927E9
S1131740882760E070E0842B952BA62BB72B809321
S1131750560190935701A0935801B0935901E09119
S11317600E02F0910F02309739F06CE070E0809136
S113177076019091770109950E941806FF91EF91E7
S1131780BF91AF919F918F917F916F915F914F9195
S11317903F912F910F900FBE0F901F9018951F929D
S11317A00F920FB60F9211242F933F934F935F9391
S11317B06F937F938F939F93AF93BF93EF93FF9315
S11317C0209154013091550140918400509185003D
S11317D0C901032E000CAA0BBB0BDC019927882737
S11317E060E070E0842B952BA62BB72B80935601D9
S11317F090935701A0935801B0935901B09B1BC01B
S11318004091840050918500C9010196092E000C75
S1131810AA0BBB0BDC019927882760E070E0842BBE
S1131820952BA62BB72B8093560190935701A09329
S11318305801B0935901E0911002F09111023097D0
S113184039F06DE070E0809178019091790109950B
S11318500E941806FF91EF91BF91AF919F918F91D4
S11318607F916F915F914F913F912F910F900FBE98
S11318700F901F9018951F920F920FB60F9211247C
S11318802F933F934F935F936F937F938F939F9384
S1131890AF93BF93EF93FF9320915401309155017F
S11318A04091840050918500C901032E000CAA0BBD
S11318B0BB0BDC019927882760E070E0842B952B13
S11318C0A62BB72B8093560190935701A0935801F0
S11318D0B0935901B09B1BC0409184005091850086
S11318E0C9010196092E000CAA0BBB0BDC01992738
S11318F0882760E070E0842B952BA62BB72B809370
S1131900560190935701A0935801B0935901E09167
S11319101202F0911302309739F06EE070E080917A
S11319207A0190917B0109950E941806FF91EF912D
S1131930BF91AF919F918F917F916F915F914F91E3
S11319403F912F910F900FBE0F901F9018951F92EB
S11319500F920FB60F9211242F933F934F935F93DF
S11319606F937F938F939F93AF93BF93EF93FF9363
S1131970209154013091550140918400509185008B
S1131980C901032E000CAA0BBB0BDC019927882785
S113199060E070E0842B952BA62BB72B8093560127
S11319A090935701A0935801B0935901B09B1BC069
S11319B04091840050918500C9010196092E000CC4
S11319C0AA0BBB0BDC019927882760E070E0842B0D
S11319D0952BA62BB72B8093560190935701A09378
S11319E05801B0935901E0911402F0911502309717
S11319F039F06FE070E080917C0190917D01099550
S1131A000E941806FF91EF91BF91AF919F918F9122
S1131A107F916F915F914F913F912F910F900FBEE6
S1131A200F901F9018951F920F920FB60F921124CA
S1131A302F933F934F935F936F937F938F939F93D2
S1131A40AF93BF93EF93FF932091540130915501CD
S1131A504091840050918500C901032E000CAA0B0B
S1131A60BB0BDC019927882760E070E0842B952B61
S1131A70A62BB72B8093560190935701A09358013E
S1131A80B0935901B09B1BC04091840050918500D4
S1131A90C9010196092E000CAA0BBB0BDC01992786
S1131AA0882760E070E0842B952BA62BB72B8093BE
S1131AB0560190935701A0935801B0935901E091B6
S1131AC01602F0911702309739F060E170E08091CE
S1131AD07E0190917F0109950E941806FF91EF9174
S1131AE0BF91AF919F918F917F916F915F914F9132
S1131AF03F912F910F900FBE0F901F9018951F923A
S1131B000F920FB60F9211242F933F934F935F932D
S1131B106F937F938F939F93AF93BF93EF93FF93B1
S1131B2020915401309155014091840050918500D9
S1131B30C901032E000CAA0BBB0BDC0199278827D3
S1131B4060E070E0842B952BA62BB72B8093560175
S1131B5090935701A0935801B0935901B09B1BC0B7
S1131B604091840050918500C9010196092E000C12
S1131B70AA0BBB0BDC019927882760E070E0842B5B
S1131B80952BA62BB72B8093560190935701A093C6
S1131B905801B0935901E0911802F091190230975D
S1131BA039F061E170E080918001909181010995A3
S1131BB00E941806FF91EF91BF91AF919F918F9171
S1131BC07F916F915F914F913F912F910F900FBE35
S1131BD00F901F901895EF92FF920F931F93CF933E
S1131BE0DF937B01EB01A881B981109761F1FC01BE
S1131BF0068117812085318516964D915D916D91F1
S1131C007C911997041715072607370714F41BC08E
S1131C10DF01ED91FC911197309749F0468157818E
S1131C206085718504171507260737078CF7EC01C3
S1131C30F983E883109721F4F7019183808307C027
S1131C408D939C9304C0EC01B983A883F5CFDF91F5
S1131C50CF911F910F91FF90EF900895EF92FF9213
S1131C600F931F93CF93DF937B01EB01A881B9817D
S1131C70109761F1FC010281138124813581129650
S1131C804D915D916D917C91159704171507260769
S1131C90370714F41BC0DF01ED91FC9111973097C5
S1131CA049F0428153816481758104171507260721
S1131CB037078CF7EC01F983E883109721F4F701D7
S1131CC09183808307C08D939C9304C0EC01B983F6
S1131CD0A883F5CFDF91CF911F910F91FF90EF90E3
S1131CE00895DC01ED91FC911197309759F48FEF31
S1131CF08093EC008093ED008093EE0081E083BF3D
S1131D008895FDCF208131812D933C93CF01089597
S1131D101F920F920FB60F9211242F933F934F935C
S1131D205F936F937F938F939F93EF93FF93809130
S1131D30540190915501019690935501809354015B
S1131D40E0915A01F0915B01309701F14281538196
S1131D506481758186179707C9F4CA0120918400AC
S1131D6030918500421B530B4130510529F4809179
S1131D708400909185000196909389008093880057
S1131D80EFE6F0E080818260808305C0EFE6F0E05A
S1131D9080818D7F8083FF91EF919F918F917F91BF
S1131DA06F915F914F913F912F910F900FBE0F90C4
S1131DB01F9018951F920F920FB60F921124CF9275
S1131DC0DF92EF92FF922F933F934F935F936F9322
S1131DD07F938F939F93AF93BF93EF93FF93C090A1
S1131DE05401D09055012091840030918500B09920
S1131DF00FC00D2C000CEE08FF08D6019927882788
S1131E006901E12CF12CC82AD92AEA2AFB2A15C037
S1131E1020918400309185008FEFC81AD80A0D2CC8
S1131E20000CEE08FF08D601992788276901E12CE8
S1131E30F12CC82AD92AEA2AFB2AE0915A01F09106
S1131E405B01309709F442C082819381A481B581FA
S1131E508C199D09AE09BF09181619061A061B0626
S1131E60ECF18AE591E00E94710E6CE571E00E944C
S1131E70EB0DE0915A01F0915B01309739F18281C9
S1131E809381A481B5818C199D09AE09BF091816E7
S1131E9019061A061B062CF721C09C0140918400E8
S1131EA050918500841B950B019731F42091840097
S1131EB0309185002F5F3F4F309389002093880035
S1131EC0EFE6F0E080818260808305C0EFE6F0E019
S1131ED080818D7F80830E9418060CC0828193814B
S1131EE0A481B58120915401309155012A173B07F3
S1131EF069F7D3CFFF91EF91BF91AF919F918F91EC
S1131F007F916F915F914F913F912F91FF90EF904F
S1131F10DF90CF900F900FBE0F901F9018953F92B7
S1131F204F925F926F927F928F929F92AF92BF92E5
S1131F30CF92DF92EF92FF920F931F93CF93DF9391
S1131F402B013C0149015A018FB78078382EF8944F
S1131F508EE391E00E94710EEC011B870A87FD86D7
S1131F60EC86DF86CE86332061F0E0913801F09173
S1131F7039010280F381E02D82819381A481B581AE
S1131F8008C08091560190915701A0915801B091D9
S1131F905901480E591E6A1E7B1E4A825B826C825E
S1131FA07D82181419041A041B0444F00F2E88248B
S1131FB08A94982CA82CFFE7BF2EF02D840C951C36
S1131FC0A61CB71C8E829F82A886B9868091540174
S1131FD0909155014091840050918500B0990EC0B4
S1131FE0092E000CAA0BBB0BDC019927882760E0A3
S1131FF070E0842B952BA62BB72B13C02091840063
S1132000309185000196092E000CAA0BBB0BDC0154
S113201099278827A90160E070E0842B952BA62BD3
S1132020B72B481A590A6A0A7B0A141415041604B1
S11320301704ACF56AE571E0CE010E942E0EE09122
S11320405A01F0915B01309721F182819381A4813F
S1132050B58120915401309155012A173B07C9F4E9
S11320609C014091840050918500841B950B01973D
S113207031F420918400309185002F5F3F4F3093DD
S1132080890020938800EFE6F0E0808182608083FD
S113209041C0EFE6F0E080818D7F80833BC06CE53A
S11320A071E0CE010E94EB0D3320B9F180913C0127
S11320B090913D01009781F1E0913A01F0913B014B
S11320C020915C0130915D0102811381D901169642
S11320D04D915D916D917C911997D80116960D9152
S11320E01D912D913C911997401B510B620B730B61
S11320F09AF4DC012D913C91119730933D0120938A
S11321003C01ED93FC9390933B0180933A010E9430
S1132110F80502C0332009F07894CE01DF91CF9105
S11321201F910F91FF90EF90DF90CF90BF90AF90F1
S11321309F908F907F906F905F904F903F90089505
S1132140CF92DF92EF92FF920F931F93CF93DF937F
S1132150EC017B016A011FB71078F894A881B9815A
S1132160109761F11496ED91FC911597309741F019
S1132170A081B1811496ED91FC9115973097C1F728
S113218020913801309139012A173B0721F011239E
S113219009F43DC007C0112309F43CC078948FEFC3
S11321A09FEF52C08A819B810097D1F1FC01158277
S11321B0148236C0789480E090E046C08091380163
S11321C09091390199838883112329F08A819B8115
S11321D0019709F07894B601CE01F7010995F82E1C
S11321E0092F8FB7F894198218828A819B818230D3
S11321F0910538F01B821A82FC01158214820E9418
S1132200F805112351F078948F2D902F1DC08FEF76
S11322109FEF1AC08FEF9FEF17C08F2D902F14C020
S11322203B832A83F901D583C483CD010E94F80539
S1132230E0913801F091390182819381892B09F46D
S1132240B9CFF983E883C2CFDF91CF911F910F916A
S1132250FF90EF90DF90CF90089500913801109196
S113226039018CE591E00E94710EEC01D8011396BE
S11322709C938E93129778944E855F856C857D85AB
S11322808A859B850E94A0108FB7F89480913E01A7
S113229090913F0199838883D0933F01C0933E017D
S11322A0E0913A01F0913B0100811181E8012A811A
S11322B03B81A0915C01B0915D011097C1F02115A3
S11322C0310559F216968D919D910D90BC91A02DDA
S11322D0E9014E815F8168857985841B950BA60B86
S11322E0B70B181619061A061B060CF0B6CF109376
S11322F03B0100933A0180913C0190913D0191830F
S11323008083F0933D01E0933C01A0913A01B091A8
S11323103B011496ED91FC911597309741F0A08103
S1132320B1811496ED91FC9115973097C1F7CD01C9
S11323300E94F80592CF4231B8F42FB7F89450E0D8
S1132340440F551FFA01E25AFE4F91838083FA012C
S1132350EA50FE4F7183608341E050E0FC015383F7
S1132360428322230CF4789408958C017B016A0142
S11323708FB7F8940E948D057894E114F10441F02C
S113238020E030E0A90160E070E0CB010E948F0FF3
S11323908FB7F8940E941806789481E083BF8895DB
S11323A0FDCF672B79F04EB121E030E0B901FC019B
S11323B0048002C0660F771F0A94E2F7CB01842BD6
S11323C08EB90FC04EB121E030E0B901FC010480A8
S11323D002C0660F771F0A94E2F7CB01809584232D
S11323E08EB980E090E008954EB121E030E0FC0128
S11323F0048002C0220F331F0A94E2F724272EB967
S113240080E090E0089597FB072E16F4009407D01F
S113241077FD09D00E943D1207FC05D03EF490954B
S113242081959F4F0895709561957F4F0895052E6E
S113243097FB1EF400940E942E1257FD07D00E94B1
S1132440511207FC03D04EF40C942E125095409573
S1132450309521953F4F4F4F5F4F0895909580954C
S1132460709561957F4F8F4F9F4F08950E9473120F
S1132470B7FF0895821B930B0895AA1BBB1B51E160
S113248007C0AA1FBB1FA617B70710F0A61BB70BE0
S1132490881F991F5A95A9F780959095BC01CD0185
S11324A00895A1E21A2EAA1BBB1BFD010DC0AA1F91
S11324B0BB1FEE1FFF1FA217B307E407F50720F0A9
S11324C0A21BB30BE40BF50B661F771F881F991F24
S11324D01A9469F760957095809590959B01AC016D
S11324E0BD01CF010895A29FB001B39FC001A39F76
S11324F0700D811D1124911DB29F700D811D112439
S1132500911D0895DC012D923D924D925D926D9244
S11325107D928D929D92AD92BD92CD92DD92ED927F
S1132520FD920D931D93CD93DD93FF91EF918DB7A4
S11325308D938EB78D938FB78D93ED93FD938827ED
S113254099270994DC01CB0181309105811D2D90DF
S11325503D904D905D906D907D908D909D90AD904F
S1132560BD90CD90DD90ED90FD900D911D91CD919C
S1132570DD91ED91FD910D90F894FEBF0FBEEDBF7E
S10D2580ED91FD910994F894FFCF4A
S113258A0000000006010000000011010000000024
S113259A000000000024011A0100000000000000ED
S11325AA002E0100000000000000003301000000BA
S11325BA00000600000000041A021A02820137020F
S11325CA51151001111E111B500B411B411F110102
S10725DA511F511B1D
S9030000FC
