:100000000C942E000C9451050C94BD050C942906FB
:100010000C9495060C9401070C944B000C94D80D8D
:100020000C944B000C94860D0C946D070C94D9071E
:100030000C9445080C94B1080C941D090C94890982
:100040000C94F5090C94610A0C94CD0A0C94390BAC
:100050000C94A50B0C94110C0C947D0C11241FBE58
:10006000CFEFD4E0DEBFCDBF11E0A0E0B1E0E0E330
:10007000F3E202C005900D92A434B107D9F724E051
:10008000A4E4B1E001C01D92AC39B207E1F70E94CF
:100090007D030C9496110C94000085B1806D85B998
:1000A0008EB18C608EB98DB3806C8DBBEBE6F0E0C9
:1000B00080818C608083ECE6F0E08081806D8083BD
:1000C0000895CF92DF92EF92FF920F931F93629960
:1000D00013C0FC0104811581C12CD12C0F2EF0E33B
:1000E000EF2EF2E0FF2EF02D20E030E0A90160E0DD
:1000F00070E0CB010E948D0E80E090E01F910F9187
:10010000FF90EF90DF90CF900895CF92DF92EF9223
:10011000FF920F931F93639914C0FC010481158112
:10012000CC24C394D12C0F2EF0E3EF2EF2E0FF2E5F
:10013000F02D20E030E0A90160E070E0CB010E94EA
:100140008D0E80E090E01F910F91FF90EF90DF9077
:10015000CF900895CF92DF92EF92FF920F931F936B
:100160001E9913C0FC0104811581C12CD12C0F2EC6
:10017000F7E5EF2EF2E0FF2EF02D20E030E0A901B0
:1001800060E070E0CB010E948D0E80E090E01F9156
:100190000F91FF90EF90DF90CF900895CF92DF9274
:1001A000EF92FF920F931F931F9913C0FC010481DC
:1001B0001581C12CD12C0F2EF4EAEF2EF2E0FF2E88
:1001C000F02D20E030E0A90160E070E0CB010E945A
:1001D0008D0E80E090E01F910F91FF90EF90DF90E7
:1001E000CF900895CF92DF92EF92FF920F931F93DB
:1001F0001C9913C0FC0104811581C12CD12C0F2E38
:10020000F1EFEF2EF2E0FF2EF02D20E030E0A9011B
:1002100060E070E0CB010E948D0E80E090E01F91C5
:100220000F91FF90EF90DF90CF900895CF93DF93E1
:10023000EC01629904C060E070E00E946100639983
:1002400005C060E070E0CE010E9485001E9905C0E7
:1002500060E070E0CE010E94AA001F9905C060E036
:1002600070E0CE010E94CE001C9905C060E070E0F5
:10027000CE010E94F20080E090E0DF91CF910895DE
:1002800080EC8093E40087EB8093E5008FE080931F
:10029000E70008956630710508F06BC090ED980F87
:1002A0009A3048F4E82FF0E0EE0FFF1FE153FF4FC4
:1002B0002081318102C020E030E0FB0177230CF483
:1002C0003196F595E795E451FF4F6170707877238B
:1002D00034F4615071096E6F7F6F6F5F7F4F660FEF
:1002E000771F660F771F8FE090E0062E02C0880F01
:1002F000991F0A94E2F780954081982F9423A901D1
:100300004F705527062E02C0440F551F0A94E2F77E
:10031000492B4083A901529542954F7045275F7044
:1003200045274F705527062E02C0440F551F0A94CB
:10033000E2F795819823492B4583432F55274F702A
:100340005527062E02C0440F551F0A94E2F79285E6
:100350009823492B428747854823C901892F99272C
:1003600082958F7002C0880F991F6A95E2F7842BDF
:10037000878708958F929F92AF92BF92CF92DF921C
:10038000EF92FF92CF93DF934B015C01EA0124E6E9
:1003900030E040E050E00E94FE100F2EFAE0CF2E39
:1003A000D12CE12CF12CF02DA70196010E94FE101A
:1003B000BE0180E3820F0E944A012196C501B4016B
:1003C000A70196010E94FE10862FBE01805D0E944B
:1003D0004A01DF91CF91FF90EF90DF90CF90BF90D7
:1003E000AF909F908F900895CF93DF93EC0140E002
:1003F00050E064EF73E08C819D810E949E0FBC01F0
:10040000990F880B990B40E050E00E94BA0140E040
:1004100050E064EF73E08E819F810E949E0FBC01CB
:10042000990F880B990B44E050E00E94BA0188852F
:10043000811109C042E050E06AE070E080E090E0A5
:100440000E94BA0108C042E050E061E070E080E044
:1004500090E00E94BA0180E090E0DF91CF91089592
:10046000CF92DF92EF92FF920F931F93FC012085B2
:1004700030E02617370791F08C016087C12CD12C12
:100480000F2EF4EFEF2EF1E0FF2EF02D20E030E004
:10049000A90160E070E0CB010E948D0E80E090E049
:1004A0001F910F91FF90EF90DF90CF900895CF9222
:1004B000DF92EF92FF920F931F93CF93DF93EC01A4
:1004C0008885811113C00C811D81C12CD12C0F2E68
:1004D000F8EFEF2EF3E0FF2EF02D20E030E0A90141
:1004E00060E070E0CB010E948D0E12C00E811F8172
:1004F000C12CD12C0F2EF8EFEF2EF3E0FF2EF02DB4
:1005000020E030E0A90160E070E0CB010E948D0E98
:10051000C12CD12C0F2EF4EFEF2EF1E0FF2EF02D99
:100520008E0120E030E0A90160E070E0CB010E9484
:100530008D0E80E090E0DF91CF911F910F91FF90A1
:10054000EF90DF90CF900895CF92DF92EF92FF92DD
:100550000F931F93CF93DF93EC018885811113C014
:100560000C811D81C12CD12C0F2EF9E2EF2EF4E06D
:10057000FF2EF02D20E030E0A90160E070E0CB011B
:100580000E948D0E12C00E811F81C12CD12C0F2E06
:10059000F9E2EF2EF4E0FF2EF02D20E030E0A9018B
:1005A00060E070E0CB010E948D0EC12CD12C0F2E8B
:1005B000F4EFEF2EF1E0FF2EF02D8E0120E030E081
:1005C000A90160E070E0CB010E948D0E80E090E018
:1005D000DF91CF911F910F91FF90EF90DF90CF901F
:1005E0000895CF92DF92EF92FF920F931F93CF93D4
:1005F000DF93EC018885811113C00C811D81C12C12
:10060000D12C0F2EF6E3EF2EF4E0FF2EF02D20E09C
:1006100030E0A90160E070E0CB010E948D0E12C0B5
:100620000E811F81C12CD12C0F2EF6E3EF2EF4E0AA
:10063000FF2EF02D20E030E0A90160E070E0CB015A
:100640000E948D0EC12CD12C0F2EF4EFEF2EF1E075
:10065000FF2EF02D8E0120E030E0A90160E070E077
:10066000CB010E948D0E80E090E0DF91CF911F9131
:100670000F91FF90EF90DF90CF900895CF92DF928F
:10068000EF92FF920F931F93CF93DF93EC01C12C56
:10069000D12C0F2EFAE9EF2EF3E0FF2EF02D0BE117
:1006A00011E020E030E0A90160E070E0CB010E94A1
:1006B0008D0E0FE011E020E030E0A90160E070E075
:1006C000CB010E948D0E0F2EF4EFEF2EF1E0FF2EE6
:1006D000F02D8E0120E030E0A90160E070E0CB0158
:1006E0000E948D0E80E090E0DF91CF911F910F91DD
:1006F000FF90EF90DF90CF9008950E946F040E94CA
:1007000040010E944D0041E066E171E080E091E02F
:100710000E94991042E066E171E080E091E00E9461
:10072000991040E050E06EE373E086E091E00E94B3
:10073000B3100895CF92DF92EF92FF920F931F9321
:10074000CF93DF93EC018C819D81892B51F4188626
:10075000598540E06FEC70E18A859B850E949E0F71
:1007600038C0488581E048274887898550E0582B64
:100770006FEC70E18A859B850E949E0F6C817D8164
:1007800084EF91E00E94EA102DE730E0DB010E9447
:100790001D118B019C01992324F40D5F1F4F2F4FD6
:1007A0003F4FC901B80195958795779567959595C0
:1007B000879577956795C12CD12C0F2EFAE9EF2EEE
:1007C000F3E0FF2EF02D8E0120E030E0A9010E9421
:1007D0008D0E80E090E0DF91CF911F910F91FF90FF
:1007E000EF90DF90CF900895FC018481958108956A
:1007F000CF92DF92EF92FF920F931F93CF93DF93ED
:10080000EC018C819D8183369105C0F49C012F5FA2
:100810003F4F3D832C83892B89F4C12CD12C0F2E83
:10082000FAE9EF2EF3E0FF2EF02D8E0120E030E00C
:10083000A90160E070E0CB010E948D0E8C819D814A
:10084000DF91CF911F910F91FF90EF90DF90CF90AC
:100850000895FC01248135812115310521F02150B5
:10086000310935832483848195810895CF92DF9265
:10087000EF92FF920F931F93FC0184819581009763
:10088000C1F48681978195838483892BF9F0C12CEB
:10089000D12C0F2EFAE9EF2EF3E0FF2EF02D8F0171
:1008A00020E030E0A90160E070E0CB010E948D0EF5
:1008B0000DC097838683158214821086518540E08F
:1008C0006FEC70E1828593850E949E0F80E090E03E
:1008D0001F910F91FF90EF90DF90CF900895E1E688
:1008E000F0E080E88083108227982F9AE1E8F0E01A
:1008F00080818D6080831092850010928400EFE6E5
:10090000F0E080818260808382EC90E090938900A7
:10091000809388000895CF93DF9300D000D0CDB7A7
:10092000DEB78CE392E02CE133E0FC017097918319
:100930008083409682179307C1F710920D0310929F
:100940000C03E7E7F1E084E991E09183808381EB98
:1009500091E0968F858FAEECB1E0B3AFA2AF1D9260
:100960001C92FA83E983E8E7F3E0FC83EB83898157
:100970009A8106960E9455118B819C81E981FA81AA
:10098000978B868B918F808F8BE290E1948F838FF2
:10099000158214827D96FA83E983EB81FC81E05A0B
:1009A000FF4FFC83EB8389819A818B5E9140F9F63E
:1009B000EFE0F2E01182108215821482138212821B
:1009C000E1E6F0E080E880831082109285001092CA
:1009D000840084E08093810081E080936F000F9019
:1009E0000F900F900F90DF91CF910895CF93DF93E9
:1009F00000D0CDB7DEB79A8389838091270190918B
:100A0000280106960E945511892B59F489819A81F3
:100A1000909328018093270161E070E006960E9480
:100A200075110F900F90DF91CF9108950F931F9341
:100A3000CF93DF93E0915101F0915201309761F132
:100A400080912B0190912C01009731F1C0912901E7
:100A5000D0912A01AA81BB81109779F046815781F4
:100A60006085718516960D911D912D913C91199778
:100A7000401B510B620B730B7AF4FC012081318116
:100A800030932C0120932B01D183C08390932A01B2
:100A9000809329010E94F604DF91CF911F910F915D
:100AA00008951F920F920FB60F9211242F933F9328
:100AB0004F935F936F937F938F939F93AF93BF9366
:100AC000EF93FF932091490130914A0140918400B6
:100AD00050918500C901032E000CAA0BBB0BDC0151
:100AE0009927882760E070E0842B952BA62BB72BE5
:100AF00080934B0190934C01A0934D01B0934E0114
:100B0000B09B1BC04091840050918500C9010196A3
:100B1000092E000CAA0BBB0BDC019927882760E08B
:100B200070E0842B952BA62BB72B80934B019093D1
:100B30004C01A0934D01B0934E01E091EB01F09177
:100B4000EC01309739F060E070E0809153019091B2
:100B5000540109950E941605FF91EF91BF91AF9145
:100B60009F918F917F916F915F914F913F912F91C5
:100B70000F900FBE0F901F9018951F920F920FB6F7
:100B80000F9211242F933F934F935F936F937F9313
:100B90008F939F93AF93BF93EF93FF93209149015E
:100BA00030914A014091840050918500C901032E83
:100BB000000CAA0BBB0BDC019927882760E070E0D2
:100BC000842B952BA62BB72B80934B0190934C0134
:100BD000A0934D01B0934E01B09B1BC04091840087
:100BE00050918500C9010196092E000CAA0BBB0B80
:100BF000DC019927882760E070E0842B952BA62BD9
:100C0000B72B80934B0190934C01A0934D01B0936F
:100C10004E01E091ED01F091EE01309739F061E085
:100C200070E0809155019091560109950E9416053A
:100C3000FF91EF91BF91AF919F918F917F916F91B4
:100C40005F914F913F912F910F900FBE0F901F908A
:100C500018951F920F920FB60F9211242F933F9366
:100C60004F935F936F937F938F939F93AF93BF93B4
:100C7000EF93FF932091490130914A014091840004
:100C800050918500C901032E000CAA0BBB0BDC019F
:100C90009927882760E070E0842B952BA62BB72B33
:100CA00080934B0190934C01A0934D01B0934E0162
:100CB000B09B1BC04091840050918500C9010196F2
:100CC000092E000CAA0BBB0BDC019927882760E0DA
:100CD00070E0842B952BA62BB72B80934B01909320
:100CE0004C01A0934D01B0934E01E091EF01F091C2
:100CF000F001309739F062E070E0809157019091F7
:100D0000580109950E941605FF91EF91BF91AF918F
:100D10009F918F917F916F915F914F913F912F9113
:100D20000F900FBE0F901F9018951F920F920FB645
:100D30000F9211242F933F934F935F936F937F9361
:100D40008F939F93AF93BF93EF93FF9320914901AC
:100D500030914A014091840050918500C901032ED1
:100D6000000CAA0BBB0BDC019927882760E070E020
:100D7000842B952BA62BB72B80934B0190934C0182
:100D8000A0934D01B0934E01B09B1BC040918400D5
:100D900050918500C9010196092E000CAA0BBB0BCE
:100DA000DC019927882760E070E0842B952BA62B27
:100DB000B72B80934B0190934C01A0934D01B093BE
:100DC0004E01E091F101F091F201309739F063E0CA
:100DD00070E08091590190915A0109950E94160581
:100DE000FF91EF91BF91AF919F918F917F916F9103
:100DF0005F914F913F912F910F900FBE0F901F90D9
:100E000018951F920F920FB60F9211242F933F93B4
:100E10004F935F936F937F938F939F93AF93BF9302
:100E2000EF93FF932091490130914A014091840052
:100E300050918500C901032E000CAA0BBB0BDC01ED
:100E40009927882760E070E0842B952BA62BB72B81
:100E500080934B0190934C01A0934D01B0934E01B0
:100E6000B09B1BC04091840050918500C901019640
:100E7000092E000CAA0BBB0BDC019927882760E028
:100E800070E0842B952BA62BB72B80934B0190936E
:100E90004C01A0934D01B0934E01E091F301F0910C
:100EA000F401309739F064E070E080915B0190913B
:100EB0005C0109950E941605FF91EF91BF91AF91DA
:100EC0009F918F917F916F915F914F913F912F9162
:100ED0000F900FBE0F901F9018951F920F920FB694
:100EE0000F9211242F933F934F935F936F937F93B0
:100EF0008F939F93AF93BF93EF93FF9320914901FB
:100F000030914A014091840050918500C901032E1F
:100F1000000CAA0BBB0BDC019927882760E070E06E
:100F2000842B952BA62BB72B80934B0190934C01D0
:100F3000A0934D01B0934E01B09B1BC04091840023
:100F400050918500C9010196092E000CAA0BBB0B1C
:100F5000DC019927882760E070E0842B952BA62B75
:100F6000B72B80934B0190934C01A0934D01B0930C
:100F70004E01E091F501F091F601309739F065E00E
:100F800070E080915D0190915E0109950E941605C7
:100F9000FF91EF91BF91AF919F918F917F916F9151
:100FA0005F914F913F912F910F900FBE0F901F9027
:100FB00018951F920F920FB60F9211242F933F9303
:100FC0004F935F936F937F938F939F93AF93BF9351
:100FD000EF93FF932091490130914A0140918400A1
:100FE00050918500C901032E000CAA0BBB0BDC013C
:100FF0009927882760E070E0842B952BA62BB72BD0
:1010000080934B0190934C01A0934D01B0934E01FE
:10101000B09B1BC04091840050918500C90101968E
:10102000092E000CAA0BBB0BDC019927882760E076
:1010300070E0842B952BA62BB72B80934B019093BC
:101040004C01A0934D01B0934E01E091F701F09156
:10105000F801309739F066E070E080915F0190917F
:10106000600109950E941605FF91EF91BF91AF9124
:101070009F918F917F916F915F914F913F912F91B0
:101080000F900FBE0F901F9018951F920F920FB6E2
:101090000F9211242F933F934F935F936F937F93FE
:1010A0008F939F93AF93BF93EF93FF932091490149
:1010B00030914A014091840050918500C901032E6E
:1010C000000CAA0BBB0BDC019927882760E070E0BD
:1010D000842B952BA62BB72B80934B0190934C011F
:1010E000A0934D01B0934E01B09B1BC04091840072
:1010F00050918500C9010196092E000CAA0BBB0B6B
:10110000DC019927882760E070E0842B952BA62BC3
:10111000B72B80934B0190934C01A0934D01B0935A
:101120004E01E091F901F091FA01309739F067E052
:1011300070E0809161019091620109950E9416050D
:10114000FF91EF91BF91AF919F918F917F916F919F
:101150005F914F913F912F910F900FBE0F901F9075
:1011600018951F920F920FB60F9211242F933F9351
:101170004F935F936F937F938F939F93AF93BF939F
:10118000EF93FF932091490130914A0140918400EF
:1011900050918500C901032E000CAA0BBB0BDC018A
:1011A0009927882760E070E0842B952BA62BB72B1E
:1011B00080934B0190934C01A0934D01B0934E014D
:1011C000B09B1BC04091840050918500C9010196DD
:1011D000092E000CAA0BBB0BDC019927882760E0C5
:1011E00070E0842B952BA62BB72B80934B0190930B
:1011F0004C01A0934D01B0934E01E091FB01F091A1
:10120000FC01309739F068E070E0809163019091C3
:10121000640109950E941605FF91EF91BF91AF916E
:101220009F918F917F916F915F914F913F912F91FE
:101230000F900FBE0F901F9018951F920F920FB630
:101240000F9211242F933F934F935F936F937F934C
:101250008F939F93AF93BF93EF93FF932091490197
:1012600030914A014091840050918500C901032EBC
:10127000000CAA0BBB0BDC019927882760E070E00B
:10128000842B952BA62BB72B80934B0190934C016D
:10129000A0934D01B0934E01B09B1BC040918400C0
:1012A00050918500C9010196092E000CAA0BBB0BB9
:1012B000DC019927882760E070E0842B952BA62B12
:1012C000B72B80934B0190934C01A0934D01B093A9
:1012D0004E01E091FD01F091FE01309739F069E097
:1012E00070E0809165019091660109950E94160554
:1012F000FF91EF91BF91AF919F918F917F916F91EE
:101300005F914F913F912F910F900FBE0F901F90C3
:1013100018951F920F920FB60F9211242F933F939F
:101320004F935F936F937F938F939F93AF93BF93ED
:10133000EF93FF932091490130914A01409184003D
:1013400050918500C901032E000CAA0BBB0BDC01D8
:101350009927882760E070E0842B952BA62BB72B6C
:1013600080934B0190934C01A0934D01B0934E019B
:10137000B09B1BC04091840050918500C90101962B
:10138000092E000CAA0BBB0BDC019927882760E013
:1013900070E0842B952BA62BB72B80934B01909359
:1013A0004C01A0934D01B0934E01E091FF01F091EB
:1013B0000002309739F06AE070E080916701909107
:1013C000680109950E941605FF91EF91BF91AF91B9
:1013D0009F918F917F916F915F914F913F912F914D
:1013E0000F900FBE0F901F9018951F920F920FB67F
:1013F0000F9211242F933F934F935F936F937F939B
:101400008F939F93AF93BF93EF93FF9320914901E5
:1014100030914A014091840050918500C901032E0A
:10142000000CAA0BBB0BDC019927882760E070E059
:10143000842B952BA62BB72B80934B0190934C01BB
:10144000A0934D01B0934E01B09B1BC0409184000E
:1014500050918500C9010196092E000CAA0BBB0B07
:10146000DC019927882760E070E0842B952BA62B60
:10147000B72B80934B0190934C01A0934D01B093F7
:101480004E01E0910102F0910202309739F06BE0D9
:1014900070E08091690190916A0109950E9416059A
:1014A000FF91EF91BF91AF919F918F917F916F913C
:1014B0005F914F913F912F910F900FBE0F901F9012
:1014C00018951F920F920FB60F9211242F933F93EE
:1014D0004F935F936F937F938F939F93AF93BF933C
:1014E000EF93FF932091490130914A01409184008C
:1014F00050918500C901032E000CAA0BBB0BDC0127
:101500009927882760E070E0842B952BA62BB72BBA
:1015100080934B0190934C01A0934D01B0934E01E9
:10152000B09B1BC04091840050918500C901019679
:10153000092E000CAA0BBB0BDC019927882760E061
:1015400070E0842B952BA62BB72B80934B019093A7
:101550004C01A0934D01B0934E01E0910302F09134
:101560000402309739F06CE070E080916B0190914B
:101570006C0109950E941605FF91EF91BF91AF9103
:101580009F918F917F916F915F914F913F912F919B
:101590000F900FBE0F901F9018951F920F920FB6CD
:1015A0000F9211242F933F934F935F936F937F93E9
:1015B0008F939F93AF93BF93EF93FF932091490134
:1015C00030914A014091840050918500C901032E59
:1015D000000CAA0BBB0BDC019927882760E070E0A8
:1015E000842B952BA62BB72B80934B0190934C010A
:1015F000A0934D01B0934E01B09B1BC0409184005D
:1016000050918500C9010196092E000CAA0BBB0B55
:10161000DC019927882760E070E0842B952BA62BAE
:10162000B72B80934B0190934C01A0934D01B09345
:101630004E01E0910502F0910602309739F06DE01D
:1016400070E080916D0190916E0109950E941605E0
:10165000FF91EF91BF91AF919F918F917F916F918A
:101660005F914F913F912F910F900FBE0F901F9060
:1016700018951F920F920FB60F9211242F933F933C
:101680004F935F936F937F938F939F93AF93BF938A
:10169000EF93FF932091490130914A0140918400DA
:1016A00050918500C901032E000CAA0BBB0BDC0175
:1016B0009927882760E070E0842B952BA62BB72B09
:1016C00080934B0190934C01A0934D01B0934E0138
:1016D000B09B1BC04091840050918500C9010196C8
:1016E000092E000CAA0BBB0BDC019927882760E0B0
:1016F00070E0842B952BA62BB72B80934B019093F6
:101700004C01A0934D01B0934E01E0910702F0917E
:101710000802309739F06EE070E080916F0190918F
:10172000700109950E941605FF91EF91BF91AF914D
:101730009F918F917F916F915F914F913F912F91E9
:101740000F900FBE0F901F9018951F920F920FB61B
:101750000F9211242F933F934F935F936F937F9337
:101760008F939F93AF93BF93EF93FF932091490182
:1017700030914A014091840050918500C901032EA7
:10178000000CAA0BBB0BDC019927882760E070E0F6
:10179000842B952BA62BB72B80934B0190934C0158
:1017A000A0934D01B0934E01B09B1BC040918400AB
:1017B00050918500C9010196092E000CAA0BBB0BA4
:1017C000DC019927882760E070E0842B952BA62BFD
:1017D000B72B80934B0190934C01A0934D01B09394
:1017E0004E01E0910902F0910A02309739F06FE062
:1017F00070E0809171019091720109950E94160527
:10180000FF91EF91BF91AF919F918F917F916F91D8
:101810005F914F913F912F910F900FBE0F901F90AE
:1018200018951F920F920FB60F9211242F933F938A
:101830004F935F936F937F938F939F93AF93BF93D8
:10184000EF93FF932091490130914A014091840028
:1018500050918500C901032E000CAA0BBB0BDC01C3
:101860009927882760E070E0842B952BA62BB72B57
:1018700080934B0190934C01A0934D01B0934E0186
:10188000B09B1BC04091840050918500C901019616
:10189000092E000CAA0BBB0BDC019927882760E0FE
:1018A00070E0842B952BA62BB72B80934B01909344
:1018B0004C01A0934D01B0934E01E0910B02F091C9
:1018C0000C02309739F060E170E0809173019091E3
:1018D000740109950E941605FF91EF91BF91AF9198
:1018E0009F918F917F916F915F914F913F912F9138
:1018F0000F900FBE0F901F9018951F920F920FB66A
:101900000F9211242F933F934F935F936F937F9385
:101910008F939F93AF93BF93EF93FF9320914901D0
:1019200030914A014091840050918500C901032EF5
:10193000000CAA0BBB0BDC019927882760E070E044
:10194000842B952BA62BB72B80934B0190934C01A6
:10195000A0934D01B0934E01B09B1BC040918400F9
:1019600050918500C9010196092E000CAA0BBB0BF2
:10197000DC019927882760E070E0842B952BA62B4B
:10198000B72B80934B0190934C01A0934D01B093E2
:101990004E01E0910D02F0910E02309739F061E1B5
:1019A00070E0809175019091760109950E9416056D
:1019B000FF91EF91BF91AF919F918F917F916F9127
:1019C0005F914F913F912F910F900FBE0F901F90FD
:1019D0001895EF92FF920F931F93CF93DF937B01A4
:1019E000EB01A881B981109761F1FC010681178193
:1019F0002085318516964D915D916D917C91199759
:101A0000041715072607370714F41BC0DF01ED91F3
:101A1000FC911197309749F0468157816085718517
:101A200004171507260737078CF7EC01F983E883BD
:101A3000109721F4F7019183808307C08D939C93C5
:101A400004C0EC01B983A883F5CFDF91CF911F913A
:101A50000F91FF90EF900895EF92FF920F931F93D5
:101A6000CF93DF937B01EB01A881B981109761F1DE
:101A7000FC01028113812481358112964D915D9183
:101A80006D917C911597041715072607370714F4F5
:101A90001BC0DF01ED91FC911197309749F0428115
:101AA00053816481758104171507260737078CF762
:101AB000EC01F983E883109721F4F7019183808387
:101AC00007C08D939C9304C0EC01B983A883F5CF24
:101AD000DF91CF911F910F91FF90EF900895DC015E
:101AE000ED91FC911197309759F48FEF8093EC00B2
:101AF0008093ED008093EE0081E083BF8895FDCF59
:101B0000208131812D933C93CF0108951F920F9234
:101B10000FB60F9211242F933F934F935F936F93C0
:101B20007F938F939F93EF93FF93809149019091BF
:101B30004A01019690934A0180934901E0914F0137
:101B4000F0915001309701F1428153816481758198
:101B500086179707C9F4CA01209184003091850047
:101B6000421B530B4130510529F480918400909120
:101B7000850001969093890080938800EFE6F0E05D
:101B800080818260808305C0EFE6F0E080818D7FF8
:101B90008083FF91EF919F918F917F916F915F91E2
:101BA0004F913F912F910F900FBE0F901F9018955E
:101BB0001F920F920FB60F921124CF92DF92EF92E5
:101BC000FF922F933F934F935F936F937F938F93E6
:101BD0009F93AF93BF93EF93FF93C0904901D09031
:101BE0004A012091840030918500B0990FC00D2CDE
:101BF000000CEE08FF08D601992788276901E12C1F
:101C0000F12CC82AD92AEA2AFB2A15C0209184007F
:101C1000309185008FEFC81AD80A0D2C000CEE0801
:101C2000FF08D601992788276901E12CF12CC82AE1
:101C3000D92AEA2AFB2AE0914F01F091500130970E
:101C400009F442C082819381A481B5818C199D09D8
:101C5000AE09BF09181619061A061B06ECF18FE427
:101C600091E00E946F0D61E571E00E94E90CE09146
:101C70004F01F0915001309739F182819381A48115
:101C8000B5818C199D09AE09BF09181619061A06E7
:101C90001B062CF721C09C014091840050918500C7
:101CA000841B950B019731F42091840030918500BD
:101CB0002F5F3F4F3093890020938800EFE6F0E0DC
:101CC00080818260808305C0EFE6F0E080818D7FB7
:101CD00080830E9416050CC082819381A481B58106
:101CE0002091490130914A012A173B0769F7D3CF68
:101CF000FF91EF91BF91AF919F918F917F916F91E4
:101D00005F914F913F912F91FF90EF90DF90CF9097
:101D10000F900FBE0F901F9018953F924F925F92B9
:101D20006F927F928F929F92AF92BF92CF92DF92EB
:101D3000EF92FF920F931F93CF93DF932B013C0100
:101D400049015A018FB78078382EF8948DE291E0DE
:101D50000E946F0DEC011B870A87FD86EC86DF86EB
:101D6000CE86332061F0E0912701F09128010280B6
:101D7000F381E02D82819381A481B58108C0809197
:101D80004B0190914C01A0914D01B0914E01480E34
:101D9000591E6A1E7B1E4A825B826C827D821814E9
:101DA00019041A041B0444F00F2E88248A94982CDA
:101DB000A82CFFE7BF2EF02D840C951CA61CB71C89
:101DC0008E829F82A886B9868091490190914A01AE
:101DD0004091840050918500B0990EC0092E000CEE
:101DE000AA0BBB0BDC019927882760E070E0842BED
:101DF000952BA62BB72B13C0209184003091850022
:101E00000196092E000CAA0BBB0BDC019927882731
:101E1000A90160E070E0842B952BA62BB72B481A04
:101E2000590A6A0A7B0A1414150416041704ACF53F
:101E30006FE471E0CE010E942C0DE0914F01F09112
:101E40005001309721F182819381A481B581209145
:101E5000490130914A012A173B07C9F49C0140917E
:101E6000840050918500841B950B019731F42091DB
:101E70008400309185002F5F3F4F3093890020937D
:101E80008800EFE6F0E080818260808341C0EFE669
:101E9000F0E080818D7F80833BC061E571E0CE0101
:101EA0000E94E90C3320B9F180912B0190912C0113
:101EB000009781F1E0912901F0912A0120915101CF
:101EC0003091520102811381D90116964D915D9195
:101ED0006D917C911997D80116960D911D912D91B8
:101EE0003C911997401B510B620B730B9AF4DC0168
:101EF0002D913C91119730932C0120932B01ED9360
:101F0000FC9390932A01809329010E94F60402C059
:101F1000332009F07894CE01DF91CF911F910F917A
:101F2000FF90EF90DF90CF90BF90AF909F908F90F9
:101F30007F906F905F904F903F900895CF92DF9287
:101F4000EF92FF920F931F93CF93DF93EC017B01EE
:101F50006A011FB71078F894A881B981109761F1D0
:101F60001496ED91FC911597309741F0A081B181C5
:101F70001496ED91FC9115973097C1F720912701A8
:101F8000309128012A173B0721F0112309F43DC0A5
:101F900007C0112309F43CC078948FEF9FEF52C023
:101FA0008A819B810097D1F1FC011582148236C091
:101FB000789480E090E046C08091270190912801BC
:101FC00099838883112329F08A819B81019709F0E5
:101FD0007894B601CE01F7010995F82E092F8FB735
:101FE000F894198218828A819B818230910538F099
:101FF0001B821A82FC01158214820E94F6041123AE
:1020000051F078948F2D902F1DC08FEF9FEF1AC045
:102010008FEF9FEF17C08F2D902F14C03B832A8323
:10202000F901D583C483CD010E94F604E091270114
:10203000F091280182819381892B09F4B9CFF9832A
:10204000E883C2CFDF91CF911F910F91FF90EF9066
:10205000DF90CF900895009127011091280181E52C
:1020600091E00E946F0DEC01D80113969C938E9322
:10207000129778944E855F856C857D858A859B85D2
:102080000E949E0F8FB7F89480912D0190912E01A0
:1020900099838883D0932E01C0932D01E09129016B
:1020A000F0912A0100811181E8012A813B81A091F0
:1020B0005101B09152011097C1F02115310559F22B
:1020C00016968D919D910D90BC91A02DE9014E81A8
:1020D0005F8168857985841B950BA60BB70B181655
:1020E00019061A061B060CF0B6CF10932A010093AE
:1020F000290180912B0190912C0191838083F09391
:102100002C01E0932B01A0912901B0912A01149692
:10211000ED91FC911597309741F0A081B181149613
:10212000ED91FC9115973097C1F7CD010E94F6040F
:1021300092CF4231B8F42FB7F89450E0440F551FB6
:10214000FA01ED5AFE4F91838083FA01E551FE4F6B
:102150007183608341E050E0FC015383428322237A
:102160000CF4789408958C017B016A018FB7F89480
:102170000E948B047894E114F10441F020E030E0F7
:10218000A90160E070E0CB010E948D0E8FB7F8943A
:102190000E941605789481E083BF8895FDCF662361
:1021A00059F02EB181E090E002C0880F991F7A9516
:1021B000E2F7822B8EB90BC02EB181E090E002C015
:1021C000880F991F7A95E2F7809582238EB980E077
:1021D00090E00895AA1BBB1B51E107C0AA1FBB1FBB
:1021E000A617B70710F0A61BB70B881F991F5A95A3
:1021F000A9F780959095BC01CD010895052E97FB18
:102200001EF400940E94151157FD07D00E9424115E
:1022100007FC03D04EF40C94151150954095309561
:1022200021953F4F4F4F5F4F089590958095709542
:1022300061957F4F8F4F9F4F08950E944611B7FFC2
:102240000895821B930B0895A1E21A2EAA1BBB1BB3
:10225000FD010DC0AA1FBB1FEE1FFF1FA217B30772
:10226000E407F50720F0A21BB30BE40BF50B661F88
:10227000771F881F991F1A9469F76095709580954C
:1022800090959B01AC01BD01CF010895A29FB001C3
:10229000B39FC001A39F700D811D1124911DB29F9A
:1022A000700D811D1124911D0895DC012D923D9228
:1022B0004D925D926D927D928D929D92AD92BD9266
:1022C000CD92DD92ED92FD920D931D93CD93DD9312
:1022D000FF91EF918DB78D938EB78D938FB78D93BF
:1022E000ED93FD93882799270994DC01CB01813078
:1022F0009105811D2D903D904D905D906D907D904C
:102300008D909D90AD90BD90CD90DD90ED90FD9025
:102310000D911D91CD91DD91ED91FD910D90F89470
:10232000FEBF0FBEEDBFED91FD910994F894FFCF74
:10233000000000000601000000001B010F0100006A
:102340000000000000000000064401000000000042
:10235000000000000444010F020F0277012C02511B
:10236000151001111E111B500B411B411F11015172
:042370001F511B00DE
:00000001FF
