:100000000C942E000C94B1050C941D060C948906DA
:100010000C94F5060C9461070C944B000C94380E6C
:100020000C944B000C94E60D0C94CD070C943908FD
:100030000C94A5080C9411090C947D090C94E90901
:100040000C94550A0C94C10A0C942D0B0C94990B2A
:100050000C94050C0C94710C0C94DD0C11241FBE37
:10006000CFEFD4E0DEBFCDBF11E0A0E0B1E0E0E033
:10007000F4E202C005900D92AC34B107D9F724E048
:10008000ACE4B1E001C01D92AF39B207E1F70E94C4
:10009000C4030C94FE110C94000085B1806D85B9E9
:1000A0008EB18C608EB98DB3806C8DBBEBE6F0E0C9
:1000B00080818C608083ECE6F0E08081806D8083BD
:1000C0000895CF92DF92EF92FF920F931F93629960
:1000D00013C0FC0104811581C12CD12C0F2EF7E334
:1000E000EF2EF2E0FF2EF02D20E030E0A90160E0DD
:1000F00070E0CB010E94ED0E80E090E01F910F9127
:10010000FF90EF90DF90CF900895CF92DF92EF9223
:10011000FF920F931F93639914C0FC010481158112
:10012000CC24C394D12C0F2EF7E3EF2EF2E0FF2E58
:10013000F02D20E030E0A90160E070E0CB010E94EA
:10014000ED0E80E090E01F910F91FF90EF90DF9017
:10015000CF900895CF93DF93EC01629904C060E0E3
:1001600070E00E946100639905C060E070E0CE011C
:100170000E94850080E090E0DF91CF910895CF92BA
:10018000DF92EF92FF920F931F931E9913C0FC0111
:1001900004811581C12CD12C0F2EFEE5EF2EF2E04B
:1001A000FF2EF02D20E030E0A90160E070E0CB01EF
:1001B0000E94ED0E80E090E01F910F91FF90EF9074
:1001C000DF90CF900895CF92DF92EF92FF920F933E
:1001D0001F931F9913C0FC0104811581C12CD12CE0
:1001E0000F2EFBEAEF2EF2E0FF2EF02D20E030E0A4
:1001F000A90160E070E0CB010E94ED0E80E090E08C
:100200001F910F91FF90EF90DF90CF900895CF92C4
:10021000DF92EF92FF920F931F931C9913C0FC0182
:1002200004811581C12CD12C0F2EF8EFEF2EF2E0B6
:10023000FF2EF02D20E030E0A90160E070E0CB015E
:100240000E94ED0E80E090E01F910F91FF90EF90E3
:10025000DF90CF900895CF93DF93EC011E9904C0F7
:1002600060E070E00E94BF001F9905C060E070E090
:10027000CE010E94E3001C9905C060E070E0CE0151
:100280000E94070180E090E0DF91CF91089580EC1B
:100290008093E40087EB8093E5008FE08093E70094
:1002A00008956630710508F06BC090ED980F9A3094
:1002B00048F4E82FF0E0EE0FFF1FE952FF4F2081D6
:1002C000318102C020E030E0FB0177230CF431964D
:1002D000F595E795E451FF4F61707078772334F41A
:1002E000615071096E6F7F6F6F5F7F4F660F771F71
:1002F000660F771F8FE090E0062E02C0880F991FCF
:100300000A94E2F780954081982F9423A9014F70B9
:100310005527062E02C0440F551F0A94E2F7492BB9
:100320004083A901529542954F7045275F7045273C
:100330004F705527062E02C0440F551F0A94E2F74E
:1003400095819823492B4583432F55274F70552777
:10035000062E02C0440F551F0A94E2F79285982397
:10036000492B428747854823C901892F99278295C0
:100370008F7002C0880F991F6A95E2F7842B8787D8
:1003800008958F929F92AF92BF92CF92DF92EF9299
:10039000FF92CF93DF934B015C01EA0124E630E04A
:1003A00040E050E00E9466110F2EFAE0CF2ED12CD3
:1003B000E12CF12CF02DA70196010E946611BE01DF
:1003C00080E3820F0E9451012196C501B401A7016B
:1003D00096010E946611862FBE01805D0E94510128
:1003E000DF91CF91FF90EF90DF90CF90BF90AF90D3
:1003F0009F908F900895CF93DF93EC0140E050E001
:1004000060E574E08C819D810E94FE0FBC01990F14
:10041000880B990B40E050E00E94C10140E050E0A1
:1004200060E574E08E819F810E94FE0FBC01990FF0
:10043000880B990B44E050E00E94C101888581112E
:1004400009C042E050E06AE070E080E090E00E9485
:10045000C10108C042E050E061E070E080E090E05F
:100460000E94C10180E090E0DF91CF910895CF928A
:10047000DF92EF92FF920F931F93FC01208530E0F3
:100480002617370791F08C016087C12CD12C0F2ED5
:10049000FBEFEF2EF1E0FF2EF02D20E030E0A90180
:1004A00060E070E0CB010E94ED0E80E090E01F91D3
:1004B0000F91FF90EF90DF90CF900895CF92DF9251
:1004C000EF92FF920F931F93CF93DF93EC018885F8
:1004D000811113C00C811D81C12CD12C0F2EF4E58C
:1004E000EF2EF4E0FF2EF02D20E030E0A90160E0D7
:1004F00070E0CB010E94ED0E12C00E811F81C12C55
:10050000D12C0F2EF4E5EF2EF4E0FF2EF02D20E09D
:1005100030E0A90160E070E0CB010E94ED0EC12C3B
:10052000D12C0F2EFBEFEF2EF1E0FF2EF02D8E01E0
:1005300020E030E0A90160E070E0CB010E94ED0E08
:1005400080E090E0DF91CF911F910F91FF90EF90AD
:10055000DF90CF900895CF92DF92EF92FF920F93AA
:100560001F93CF93DF93EC018885811113C00C8119
:100570001D81C12CD12C0F2EF9E8EF2EF4E0FF2EB7
:10058000F02D20E030E0A90160E070E0CB010E9496
:10059000ED0E12C00E811F81C12CD12C0F2EF9E857
:1005A000EF2EF4E0FF2EF02D20E030E0A90160E016
:1005B00070E0CB010E94ED0EC12CD12C0F2EFBEF71
:1005C000EF2EF1E0FF2EF02D8E0120E030E0A901AA
:1005D00060E070E0CB010E94ED0E80E090E0DF91E2
:1005E000CF911F910F91FF90EF90DF90CF900895E2
:1005F000CF92DF92EF92FF920F931F93CF93DF93EF
:10060000EC018885811113C00C811D81C12CD12C76
:100610000F2EF6E9EF2EF4E0FF2EF02D20E030E073
:10062000A90160E070E0CB010E94ED0E12C00E81C6
:100630001F81C12CD12C0F2EF6E9EF2EF4E0FF2EF6
:10064000F02D20E030E0A90160E070E0CB010E94D5
:10065000ED0EC12CD12C0F2EFBEFEF2EF1E0FF2E73
:10066000F02D8E0120E030E0A90160E070E0CB01C8
:100670000E94ED0E80E090E0DF91CF911F910F91ED
:10068000FF90EF90DF90CF900895CF92DF92EF929E
:10069000FF920F931F93FC0104811581C12CD12C73
:1006A0000F2EFAEAEF2EF0E0FF2EF02D20E030E0E2
:1006B000A90160E070E0CB010E94ED0E1F910F9147
:1006C000FF90EF90DF90CF900895CF92DF92EF925E
:1006D000FF920F931F93FC0104811581C12CD12C33
:1006E0000F2EFBE2EF2EF1E0FF2EF02D20E030E0A8
:1006F000A90160E070E0CB010E94ED0E1F910F9107
:10070000FF90EF90DF90CF900895CF92DF92EF921D
:10071000FF920F931F93CF93DF93EC01C12CD12C49
:100720000F2EF8EFEF2EF3E0FF2EF02D0AE111E08F
:1007300020E030E0A90160E070E0CB010E94ED0E06
:100740000FE011E020E030E0A90160E070E0CB01B3
:100750000E94ED0E0F2EFBEFEF2EF1E0FF2EF02D9D
:100760008E0120E030E0A90160E070E0CB010E9442
:10077000ED0E80E090E0DF91CF911F910F91FF90FF
:10078000EF90DF90CF900895CF93DF9300D000D00B
:1007900000D0CDB7DEB70E94CF040E9447010E946F
:1007A0004D001A8219821C821B8280E091E09E8398
:1007B0008D8341E065E473E0CE0101960E94F9105B
:1007C00042E065E673E0CE0101960E94F91040E038
:1007D00050E065E873E086E091E00E9413112696F0
:1007E0000FB6F894DEBF0FBECDBFDF91CF91089555
:1007F000CF92DF92EF92FF920F931F93CF93DF93ED
:10080000EC018C819D81892B51F4188640E050E0E9
:100810006FE271E189859A850E94FE0F36C0488596
:1008200081E04827488750E06FE271E189859A8529
:100830000E94FE0F6C817D8188EE93E00E94521130
:100840002DE730E0DB010E9485118B019C0199238B
:1008500024F40D5F1F4F2F4F3F4FC901B8019595ED
:100860008795779567959595879577956795C12C29
:10087000D12C0F2EF8EFEF2EF3E0FF2EF02D8E018E
:1008800020E030E0A9010E94ED0E80E090E0DF91D1
:10089000CF911F910F91FF90EF90DF90CF9008952F
:1008A000FC01848195810895CF92DF92EF92FF92AF
:1008B0000F931F93CF93DF93EC018C819D8183363F
:1008C000910528F49C012F5F3F4F3D832C83892B9A
:1008D000A9F48C819D81892B89F0C12CD12C0F2EFC
:1008E000F8EFEF2EF3E0FF2EF02D8E0120E030E048
:1008F000A90160E070E0CB010E94ED0E8C819D812A
:10090000DF91CF911F910F91FF90EF90DF90CF90EB
:100910000895FC01248135812115310521F02150F4
:10092000310935832483848195810895CF92DF92A4
:10093000EF92FF920F931F93FC01848195810097A2
:10094000C1F48681978195838483892BF9F0C12C2A
:10095000D12C0F2EF8EFEF2EF3E0FF2EF02D8F01AC
:1009600020E030E0A90160E070E0CB010E94ED0ED4
:100970000DC09783868315821482108640E050E074
:100980006FE271E1818592850E94FE0F80E090E028
:100990001F910F91FF90EF90DF90CF900895E1E6C7
:1009A000F0E080E88083108227982F9AE1E8F0E059
:1009B00080818D6080831092850010928400EFE624
:1009C000F0E080818260808382EC90E090938900E7
:1009D000809388000895CF93DF9300D000D0CDB7E7
:1009E000DEB78FE392E02FE133E0FC017097918353
:1009F0008083409682179307C1F7109210031092DC
:100A00000F03EAE7F1E087E991E09183808384EBCB
:100A100091E0968F858FA1EDB1E0B3AFA2AF1D92AB
:100A20001C92FA83E983EBE7F3E0FC83EB83898193
:100A30009A8106960E94BD118B819C81E981FA8181
:100A4000978B868B918F808F8BE890E1948F838F2B
:100A5000158214827D96FA83E983EB81FC81E05A4A
:100A6000FF4FFC83EB8389819A818E5E9140F9F67A
:100A7000E2E1F2E011821082158214821382128266
:100A8000E1E6F0E080E88083108210928500109209
:100A9000840084E08093810081E080936F000F9058
:100AA0000F900F900F90DF91CF910895CF93DF9328
:100AB00000D0CDB7DEB79A83898380912F019091C2
:100AC000300106960E94BD11892B59F489819A81C3
:100AD0009093300180932F0161E070E006960E94B0
:100AE000DD110F900F90DF91CF9108950F931F9319
:100AF000CF93DF93E0915401F0915501309761F16C
:100B00008091330190913401009731F1C09131010E
:100B1000D0913201AA81BB81109779F0468157812B
:100B20006085718516960D911D912D913C911997B7
:100B3000401B510B620B730B7AF4FC012081318155
:100B40003093340120933301D183C08390933201D9
:100B5000809331010E945605DF91CF911F910F9133
:100B600008951F920F920FB60F9211242F933F9367
:100B70004F935F936F937F938F939F93AF93BF93A5
:100B8000EF93FF9320914C0130914D0140918400EF
:100B900050918500C901032E000CAA0BBB0BDC0190
:100BA0009927882760E070E0842B952BA62BB72B24
:100BB00080934E0190934F01A0935001B093510147
:100BC000B09B1BC04091840050918500C9010196E3
:100BD000092E000CAA0BBB0BDC019927882760E0CB
:100BE00070E0842B952BA62BB72B80934E0190930E
:100BF0004F01A0935001B0935101E091EE01F091AB
:100C0000EF01309739F060E070E0809156019091EB
:100C1000570109950E947605FF91EF91BF91AF9121
:100C20009F918F917F916F915F914F913F912F9104
:100C30000F900FBE0F901F9018951F920F920FB636
:100C40000F9211242F933F934F935F936F937F9352
:100C50008F939F93AF93BF93EF93FF9320914C019A
:100C600030914D014091840050918500C901032EBF
:100C7000000CAA0BBB0BDC019927882760E070E011
:100C8000842B952BA62BB72B80934E0190934F016D
:100C9000A0935001B0935101B09B1BC040918400C0
:100CA00050918500C9010196092E000CAA0BBB0BBF
:100CB000DC019927882760E070E0842B952BA62B18
:100CC000B72B80934E0190934F01A0935001B093A6
:100CD0005101E091F001F091F101309739F061E0BC
:100CE00070E0809158019091590109950E94760514
:100CF000FF91EF91BF91AF919F918F917F916F91F4
:100D00005F914F913F912F910F900FBE0F901F90C9
:100D100018951F920F920FB60F9211242F933F93A5
:100D20004F935F936F937F938F939F93AF93BF93F3
:100D3000EF93FF9320914C0130914D01409184003D
:100D400050918500C901032E000CAA0BBB0BDC01DE
:100D50009927882760E070E0842B952BA62BB72B72
:100D600080934E0190934F01A0935001B093510195
:100D7000B09B1BC04091840050918500C901019631
:100D8000092E000CAA0BBB0BDC019927882760E019
:100D900070E0842B952BA62BB72B80934E0190935C
:100DA0004F01A0935001B0935101E091F201F091F5
:100DB000F301309739F062E070E080915A01909130
:100DC0005B0109950E947605FF91EF91BF91AF916C
:100DD0009F918F917F916F915F914F913F912F9153
:100DE0000F900FBE0F901F9018951F920F920FB685
:100DF0000F9211242F933F934F935F936F937F93A1
:100E00008F939F93AF93BF93EF93FF9320914C01E8
:100E100030914D014091840050918500C901032E0D
:100E2000000CAA0BBB0BDC019927882760E070E05F
:100E3000842B952BA62BB72B80934E0190934F01BB
:100E4000A0935001B0935101B09B1BC0409184000E
:100E500050918500C9010196092E000CAA0BBB0B0D
:100E6000DC019927882760E070E0842B952BA62B66
:100E7000B72B80934E0190934F01A0935001B093F4
:100E80005101E091F401F091F501309739F063E000
:100E900070E080915C0190915D0109950E9476055A
:100EA000FF91EF91BF91AF919F918F917F916F9142
:100EB0005F914F913F912F910F900FBE0F901F9018
:100EC00018951F920F920FB60F9211242F933F93F4
:100ED0004F935F936F937F938F939F93AF93BF9342
:100EE000EF93FF9320914C0130914D01409184008C
:100EF00050918500C901032E000CAA0BBB0BDC012D
:100F00009927882760E070E0842B952BA62BB72BC0
:100F100080934E0190934F01A0935001B0935101E3
:100F2000B09B1BC04091840050918500C90101967F
:100F3000092E000CAA0BBB0BDC019927882760E067
:100F400070E0842B952BA62BB72B80934E019093AA
:100F50004F01A0935001B0935101E091F601F0913F
:100F6000F701309739F064E070E080915E01909174
:100F70005F0109950E947605FF91EF91BF91AF91B6
:100F80009F918F917F916F915F914F913F912F91A1
:100F90000F900FBE0F901F9018951F920F920FB6D3
:100FA0000F9211242F933F934F935F936F937F93EF
:100FB0008F939F93AF93BF93EF93FF9320914C0137
:100FC00030914D014091840050918500C901032E5C
:100FD000000CAA0BBB0BDC019927882760E070E0AE
:100FE000842B952BA62BB72B80934E0190934F010A
:100FF000A0935001B0935101B09B1BC0409184005D
:1010000050918500C9010196092E000CAA0BBB0B5B
:10101000DC019927882760E070E0842B952BA62BB4
:10102000B72B80934E0190934F01A0935001B09342
:101030005101E091F801F091F901309739F065E044
:1010400070E0809160019091610109950E947605A0
:10105000FF91EF91BF91AF919F918F917F916F9190
:101060005F914F913F912F910F900FBE0F901F9066
:1010700018951F920F920FB60F9211242F933F9342
:101080004F935F936F937F938F939F93AF93BF9390
:10109000EF93FF9320914C0130914D0140918400DA
:1010A00050918500C901032E000CAA0BBB0BDC017B
:1010B0009927882760E070E0842B952BA62BB72B0F
:1010C00080934E0190934F01A0935001B093510132
:1010D000B09B1BC04091840050918500C9010196CE
:1010E000092E000CAA0BBB0BDC019927882760E0B6
:1010F00070E0842B952BA62BB72B80934E019093F9
:101100004F01A0935001B0935101E091FA01F09189
:10111000FB01309739F066E070E0809162019091B8
:10112000630109950E947605FF91EF91BF91AF9100
:101130009F918F917F916F915F914F913F912F91EF
:101140000F900FBE0F901F9018951F920F920FB621
:101150000F9211242F933F934F935F936F937F933D
:101160008F939F93AF93BF93EF93FF9320914C0185
:1011700030914D014091840050918500C901032EAA
:10118000000CAA0BBB0BDC019927882760E070E0FC
:10119000842B952BA62BB72B80934E0190934F0158
:1011A000A0935001B0935101B09B1BC040918400AB
:1011B00050918500C9010196092E000CAA0BBB0BAA
:1011C000DC019927882760E070E0842B952BA62B03
:1011D000B72B80934E0190934F01A0935001B09391
:1011E0005101E091FC01F091FD01309739F067E089
:1011F00070E0809164019091650109950E947605E7
:10120000FF91EF91BF91AF919F918F917F916F91DE
:101210005F914F913F912F910F900FBE0F901F90B4
:1012200018951F920F920FB60F9211242F933F9390
:101230004F935F936F937F938F939F93AF93BF93DE
:10124000EF93FF9320914C0130914D014091840028
:1012500050918500C901032E000CAA0BBB0BDC01C9
:101260009927882760E070E0842B952BA62BB72B5D
:1012700080934E0190934F01A0935001B093510180
:10128000B09B1BC04091840050918500C90101961C
:10129000092E000CAA0BBB0BDC019927882760E004
:1012A00070E0842B952BA62BB72B80934E01909347
:1012B0004F01A0935001B0935101E091FE01F091D4
:1012C000FF01309739F068E070E0809166019091FD
:1012D000670109950E947605FF91EF91BF91AF914B
:1012E0009F918F917F916F915F914F913F912F913E
:1012F0000F900FBE0F901F9018951F920F920FB670
:101300000F9211242F933F934F935F936F937F938B
:101310008F939F93AF93BF93EF93FF9320914C01D3
:1013200030914D014091840050918500C901032EF8
:10133000000CAA0BBB0BDC019927882760E070E04A
:10134000842B952BA62BB72B80934E0190934F01A6
:10135000A0935001B0935101B09B1BC040918400F9
:1013600050918500C9010196092E000CAA0BBB0BF8
:10137000DC019927882760E070E0842B952BA62B51
:10138000B72B80934E0190934F01A0935001B093DF
:101390005101E0910002F0910102309739F069E0CB
:1013A00070E0809168019091690109950E9476052D
:1013B000FF91EF91BF91AF919F918F917F916F912D
:1013C0005F914F913F912F910F900FBE0F901F9003
:1013D00018951F920F920FB60F9211242F933F93DF
:1013E0004F935F936F937F938F939F93AF93BF932D
:1013F000EF93FF9320914C0130914D014091840077
:1014000050918500C901032E000CAA0BBB0BDC0117
:101410009927882760E070E0842B952BA62BB72BAB
:1014200080934E0190934F01A0935001B0935101CE
:10143000B09B1BC04091840050918500C90101966A
:10144000092E000CAA0BBB0BDC019927882760E052
:1014500070E0842B952BA62BB72B80934E01909395
:101460004F01A0935001B0935101E0910202F0911D
:101470000302309739F06AE070E080916A01909140
:101480006B0109950E947605FF91EF91BF91AF9195
:101490009F918F917F916F915F914F913F912F918C
:1014A0000F900FBE0F901F9018951F920F920FB6BE
:1014B0000F9211242F933F934F935F936F937F93DA
:1014C0008F939F93AF93BF93EF93FF9320914C0122
:1014D00030914D014091840050918500C901032E47
:1014E000000CAA0BBB0BDC019927882760E070E099
:1014F000842B952BA62BB72B80934E0190934F01F5
:10150000A0935001B0935101B09B1BC04091840047
:1015100050918500C9010196092E000CAA0BBB0B46
:10152000DC019927882760E070E0842B952BA62B9F
:10153000B72B80934E0190934F01A0935001B0932D
:101540005101E0910402F0910502309739F06BE00F
:1015500070E080916C0190916D0109950E94760573
:10156000FF91EF91BF91AF919F918F917F916F917B
:101570005F914F913F912F910F900FBE0F901F9051
:1015800018951F920F920FB60F9211242F933F932D
:101590004F935F936F937F938F939F93AF93BF937B
:1015A000EF93FF9320914C0130914D0140918400C5
:1015B00050918500C901032E000CAA0BBB0BDC0166
:1015C0009927882760E070E0842B952BA62BB72BFA
:1015D00080934E0190934F01A0935001B09351011D
:1015E000B09B1BC04091840050918500C9010196B9
:1015F000092E000CAA0BBB0BDC019927882760E0A1
:1016000070E0842B952BA62BB72B80934E019093E3
:101610004F01A0935001B0935101E0910602F09167
:101620000702309739F06CE070E080916E01909184
:101630006F0109950E947605FF91EF91BF91AF91DF
:101640009F918F917F916F915F914F913F912F91DA
:101650000F900FBE0F901F9018951F920F920FB60C
:101660000F9211242F933F934F935F936F937F9328
:101670008F939F93AF93BF93EF93FF9320914C0170
:1016800030914D014091840050918500C901032E95
:10169000000CAA0BBB0BDC019927882760E070E0E7
:1016A000842B952BA62BB72B80934E0190934F0143
:1016B000A0935001B0935101B09B1BC04091840096
:1016C00050918500C9010196092E000CAA0BBB0B95
:1016D000DC019927882760E070E0842B952BA62BEE
:1016E000B72B80934E0190934F01A0935001B0937C
:1016F0005101E0910802F0910902309739F06DE054
:1017000070E0809170019091710109950E947605B9
:10171000FF91EF91BF91AF919F918F917F916F91C9
:101720005F914F913F912F910F900FBE0F901F909F
:1017300018951F920F920FB60F9211242F933F937B
:101740004F935F936F937F938F939F93AF93BF93C9
:10175000EF93FF9320914C0130914D014091840013
:1017600050918500C901032E000CAA0BBB0BDC01B4
:101770009927882760E070E0842B952BA62BB72B48
:1017800080934E0190934F01A0935001B09351016B
:10179000B09B1BC04091840050918500C901019607
:1017A000092E000CAA0BBB0BDC019927882760E0EF
:1017B00070E0842B952BA62BB72B80934E01909332
:1017C0004F01A0935001B0935101E0910A02F091B2
:1017D0000B02309739F06EE070E0809172019091C9
:1017E000730109950E947605FF91EF91BF91AF912A
:1017F0009F918F917F916F915F914F913F912F9129
:101800000F900FBE0F901F9018951F920F920FB65A
:101810000F9211242F933F934F935F936F937F9376
:101820008F939F93AF93BF93EF93FF9320914C01BE
:1018300030914D014091840050918500C901032EE3
:10184000000CAA0BBB0BDC019927882760E070E035
:10185000842B952BA62BB72B80934E0190934F0191
:10186000A0935001B0935101B09B1BC040918400E4
:1018700050918500C9010196092E000CAA0BBB0BE3
:10188000DC019927882760E070E0842B952BA62B3C
:10189000B72B80934E0190934F01A0935001B093CA
:1018A0005101E0910C02F0910D02309739F06FE098
:1018B00070E0809174019091750109950E94760500
:1018C000FF91EF91BF91AF919F918F917F916F9118
:1018D0005F914F913F912F910F900FBE0F901F90EE
:1018E00018951F920F920FB60F9211242F933F93CA
:1018F0004F935F936F937F938F939F93AF93BF9318
:10190000EF93FF9320914C0130914D014091840061
:1019100050918500C901032E000CAA0BBB0BDC0102
:101920009927882760E070E0842B952BA62BB72B96
:1019300080934E0190934F01A0935001B0935101B9
:10194000B09B1BC04091840050918500C901019655
:10195000092E000CAA0BBB0BDC019927882760E03D
:1019600070E0842B952BA62BB72B80934E01909380
:101970004F01A0935001B0935101E0910E02F091FC
:101980000F02309739F060E170E08091760190911C
:10199000770109950E947605FF91EF91BF91AF9174
:1019A0009F918F917F916F915F914F913F912F9177
:1019B0000F900FBE0F901F9018951F920F920FB6A9
:1019C0000F9211242F933F934F935F936F937F93C5
:1019D0008F939F93AF93BF93EF93FF9320914C010D
:1019E00030914D014091840050918500C901032E32
:1019F000000CAA0BBB0BDC019927882760E070E084
:101A0000842B952BA62BB72B80934E0190934F01DF
:101A1000A0935001B0935101B09B1BC04091840032
:101A200050918500C9010196092E000CAA0BBB0B31
:101A3000DC019927882760E070E0842B952BA62B8A
:101A4000B72B80934E0190934F01A0935001B09318
:101A50005101E0911002F0911102309739F061E1EB
:101A600070E0809178019091790109950E94760546
:101A7000FF91EF91BF91AF919F918F917F916F9166
:101A80005F914F913F912F910F900FBE0F901F903C
:101A90001895EF92FF920F931F93CF93DF937B01E3
:101AA000EB01A881B981109761F1FC0106811781D2
:101AB0002085318516964D915D916D917C91199798
:101AC000041715072607370714F41BC0DF01ED9133
:101AD000FC911197309749F0468157816085718557
:101AE00004171507260737078CF7EC01F983E883FD
:101AF000109721F4F7019183808307C08D939C9305
:101B000004C0EC01B983A883F5CFDF91CF911F9179
:101B10000F91FF90EF900895EF92FF920F931F9314
:101B2000CF93DF937B01EB01A881B981109761F11D
:101B3000FC01028113812481358112964D915D91C2
:101B40006D917C911597041715072607370714F434
:101B50001BC0DF01ED91FC911197309749F0428154
:101B600053816481758104171507260737078CF7A1
:101B7000EC01F983E883109721F4F70191838083C6
:101B800007C08D939C9304C0EC01B983A883F5CF63
:101B9000DF91CF911F910F91FF90EF900895DC019D
:101BA000ED91FC911197309759F48FEF8093EC00F1
:101BB0008093ED008093EE0081E083BF8895FDCF98
:101BC000208131812D933C93CF0108951F920F9274
:101BD0000FB60F9211242F933F934F935F936F9300
:101BE0007F938F939F93EF93FF9380914C019091FC
:101BF0004D01019690934D0180934C01E09152016B
:101C0000F0915301309701F14281538164817581D4
:101C100086179707C9F4CA01209184003091850086
:101C2000421B530B4130510529F48091840090915F
:101C3000850001969093890080938800EFE6F0E09C
:101C400080818260808305C0EFE6F0E080818D7F37
:101C50008083FF91EF919F918F917F916F915F9121
:101C60004F913F912F910F900FBE0F901F9018959D
:101C70001F920F920FB60F921124CF92DF92EF9224
:101C8000FF922F933F934F935F936F937F938F9325
:101C90009F93AF93BF93EF93FF93C0904C01D0906D
:101CA0004D012091840030918500B0990FC00D2C1A
:101CB000000CEE08FF08D601992788276901E12C5E
:101CC000F12CC82AD92AEA2AFB2A15C020918400BF
:101CD000309185008FEFC81AD80A0D2C000CEE0841
:101CE000FF08D601992788276901E12CF12CC82A21
:101CF000D92AEA2AFB2AE0915201F0915301309748
:101D000009F442C082819381A481B5818C199D0917
:101D1000AE09BF09181619061A061B06ECF182E572
:101D200091E00E94CF0D64E571E00E94490DE091C1
:101D30005201F0915301309739F182819381A4814E
:101D4000B5818C199D09AE09BF09181619061A0626
:101D50001B062CF721C09C01409184005091850006
:101D6000841B950B019731F42091840030918500FC
:101D70002F5F3F4F3093890020938800EFE6F0E01B
:101D800080818260808305C0EFE6F0E080818D7FF6
:101D900080830E9476050CC082819381A481B581E5
:101DA00020914C0130914D012A173B0769F7D3CFA1
:101DB000FF91EF91BF91AF919F918F917F916F9123
:101DC0005F914F913F912F91FF90EF90DF90CF90D7
:101DD0000F900FBE0F901F9018953F924F925F92F9
:101DE0006F927F928F929F92AF92BF92CF92DF922B
:101DF000EF92FF920F931F93CF93DF932B013C0140
:101E000049015A018FB78078382EF89485E391E024
:101E10000E94CF0DEC011B870A87FD86EC86DF86CA
:101E2000CE86332061F0E0912F01F09130010280E5
:101E3000F381E02D82819381A481B58108C08091D6
:101E40004E0190914F01A0915001B0915101480E67
:101E5000591E6A1E7B1E4A825B826C827D82181428
:101E600019041A041B0444F00F2E88248A94982C19
:101E7000A82CFFE7BF2EF02D840C951CA61CB71CC8
:101E80008E829F82A886B98680914C0190914D01E7
:101E90004091840050918500B0990EC0092E000C2D
:101EA000AA0BBB0BDC019927882760E070E0842B2C
:101EB000952BA62BB72B13C0209184003091850061
:101EC0000196092E000CAA0BBB0BDC019927882771
:101ED000A90160E070E0842B952BA62BB72B481A44
:101EE000590A6A0A7B0A1414150416041704ACF57F
:101EF00062E571E0CE010E948C0DE0915201F091FB
:101F00005301309721F182819381A481B581209181
:101F10004C0130914D012A173B07C9F49C014091B7
:101F2000840050918500841B950B019731F420911A
:101F30008400309185002F5F3F4F309389002093BC
:101F40008800EFE6F0E080818260808341C0EFE6A8
:101F5000F0E080818D7F80833BC064E571E0CE013D
:101F60000E94490D3320B9F18091330190913401E1
:101F7000009781F1E0913101F091320120915401FB
:101F80003091550102811381D90116964D915D91D1
:101F90006D917C911997D80116960D911D912D91F7
:101FA0003C911997401B510B620B730B9AF4DC01A7
:101FB0002D913C9111973093340120933301ED938F
:101FC000FC9390933201809331010E94560502C028
:101FD000332009F07894CE01DF91CF911F910F91BA
:101FE000FF90EF90DF90CF90BF90AF909F908F9039
:101FF0007F906F905F904F903F900895CF92DF92C7
:10200000EF92FF920F931F93CF93DF93EC017B012D
:102010006A011FB71078F894A881B981109761F10F
:102020001496ED91FC911597309741F0A081B18104
:102030001496ED91FC9115973097C1F720912F01DF
:10204000309130012A173B0721F0112309F43DC0DC
:1020500007C0112309F43CC078948FEF9FEF52C062
:102060008A819B810097D1F1FC011582148236C0D0
:10207000789480E090E046C080912F0190913001EB
:1020800099838883112329F08A819B81019709F024
:102090007894B601CE01F7010995F82E092F8FB774
:1020A000F894198218828A819B818230910538F0D8
:1020B0001B821A82FC01158214820E94560511238C
:1020C00051F078948F2D902F1DC08FEF9FEF1AC085
:1020D0008FEF9FEF17C08F2D902F14C03B832A8363
:1020E000F901D583C483CD010E945605E0912F01EB
:1020F000F091300182819381892B09F4B9CFF98362
:10210000E883C2CFDF91CF911F910F91FF90EF90A5
:10211000DF90CF90089500912F011091300184E558
:1021200091E00E94CF0DEC01D80113969C938E9301
:10213000129778944E855F856C857D858A859B8511
:102140000E94FE0F8FB7F89480913501909136016F
:1021500099838883D0933601C0933501E091310192
:10216000F091320100811181E8012A813B81A09127
:102170005401B09155011097C1F02115310559F264
:1021800016968D919D910D90BC91A02DE9014E81E7
:102190005F8168857985841B950BA60BB70B181694
:1021A00019061A061B060CF0B6CF109332010093E5
:1021B0003101809133019091340191838083F093B8
:1021C0003401E0933301A0913101B09132011496B2
:1021D000ED91FC911597309741F0A081B181149653
:1021E000ED91FC9115973097C1F7CD010E945605EE
:1021F00092CF4231B8F42FB7F89450E0440F551FF6
:10220000FA01EA5AFE4F91838083FA01E251FE4FB0
:102210007183608341E050E0FC01538342832223B9
:102220000CF4789408958C017B016A018FB7F894BF
:102230000E94EB047894E114F10441F020E030E0D6
:10224000A90160E070E0CB010E94ED0E8FB7F89419
:102250000E947605789481E083BF8895FDCF672B37
:1022600079F04EB121E030E0B901FC01048002C0F8
:10227000660F771F0A94E2F7CB01842B8EB90FC04B
:102280004EB121E030E0B901FC01048002C0660FCC
:10229000771F0A94E2F7CB01809584238EB980E002
:1022A00090E00895AA1BBB1B51E107C0AA1FBB1FEA
:1022B000A617B70710F0A61BB70B881F991F5A95D2
:1022C000A9F780959095BC01CD010895052E97FB47
:1022D0001EF400940E947D1157FD07D00E948C11BE
:1022E00007FC03D04EF40C947D1150954095309529
:1022F00021953F4F4F4F5F4F089590958095709572
:1023000061957F4F8F4F9F4F08950E94AE11B7FF89
:102310000895821B930B0895A1E21A2EAA1BBB1BE2
:10232000FD010DC0AA1FBB1FEE1FFF1FA217B307A1
:10233000E407F50720F0A21BB30BE40BF50B661FB7
:10234000771F881F991F1A9469F76095709580957B
:1023500090959B01AC01BD01CF010895A29FB001F2
:10236000B39FC001A39F700D811D1124911DB29FC9
:10237000700D811D1124911D0895DC012D923D9257
:102380004D925D926D927D928D929D92AD92BD9295
:10239000CD92DD92ED92FD920D931D93CD93DD9341
:1023A000FF91EF918DB78D938EB78D938FB78D93EE
:1023B000ED93FD93882799270994DC01CB018130A7
:1023C0009105811D2D903D904D905D906D907D907B
:1023D0008D909D90AD90BD90CD90DD90ED90FD9055
:1023E0000D911D91CD91DD91ED91FD910D90F894A0
:1023F000FEBF0FBEEDBFED91FD910994F894FFCFA4
:10240000000000000601000000001A010F0100009A
:102410000000000000000000250100000000000096
:102420000000002A01000000000600000000041265
:102430000212027A012F0251151001111E111B50B8
:0C2440000B411B411F1101511F511B00DB
:00000001FF
