:100000000C942E000C94C3050C942F060C949B06A4
:100010000C9407070C9473070C944B000C94AE0DD2
:100020000C944B000C945B0D0C94DF070C944B0864
:100030000C94B7080C9423090C948F090C94FB09B9
:100040000C94670A0C94D30A0C943F0B0C94AB0BE2
:100050000C94170C0C94830C0C94EF0C11241FBE01
:10006000CFEFD4E0DEBFCDBF11E0A0E0B1E0E8E625
:10007000F4E202C005900D92A635B107D9F724E04D
:10008000A6E5B1E001C01D92A93AB207E1F70E94CE
:1000900018040C9432120C940000CF92DF92EF926D
:1000A000FF920F931F93FC012285222321F01E9BB8
:1000B0000BC0FC01128680E090E01F910F91FF9031
:1000C000EF90DF90CF9008958C0140E050E062EF18
:1000D00072E0848195810E940E10C12CD12C8DE498
:1000E000E82E80E0F82E20E030E0A90165E37CE016
:1000F00080E090E00E949E0EDECFCF92DF92EF92E2
:10010000FF920F931F93FC012385222321F01F9B55
:100110000BC0FC01138680E090E01F910F91FF90CF
:10012000EF90DF90CF9008958C0140E050E06BE2BB
:1001300073E0848195810E940E10C12CD12C8DE733
:10014000E82E80E0F82E20E030E0A90165E37CE0B5
:1001500080E090E00E949E0EDECF85B1806D85B973
:100160008EB18C608EB98DB3806C8DBBEBE6F0E008
:1001700080818C608083ECE6F0E08081806D8083FC
:100180000895629904C0FC012085222339F0629B06
:1001900002C0FC01108680E090E0089581E0808735
:1001A00040E050E06EEC72E0848195810E940E1078
:1001B00080E090E00895639904C0FC01218522232A
:1001C00039F0639B02C0FC01118680E090E0089545
:1001D00081E0818741E050E06EEC72E0848195819E
:1001E0000E940E1080E090E00895CF93DF93EC0121
:1001F000629903C08885882361F01886639903C0DB
:100200008985882361F0198680E090E0DF91CF91A5
:10021000089560E070E0CE010E94C100EFCF60E081
:1002200070E0CE010E94DB0080E090E0DF91CF9192
:100230000895CF92DF92EF92FF920F931F931E9932
:1002400012C0FC01268121110EC021E026833285D7
:10025000332371F080E090E01F910F91FF90EF90B9
:10026000DF90CF9008951E9BF5CFFC011682F2CF50
:100270008C012287C12CD12C8DE4E82E80E0F82E51
:1002800020E030E0A9016AE176E080E090E00E94A1
:100290009E0EE0CFCF92DF92EF92FF920F931F93CB
:1002A0001F9912C0FC01278121110EC021E0278374
:1002B0003385332371F080E090E01F910F91FF9020
:1002C000EF90DF90CF9008951F9BF5CFFC01178230
:1002D000F2CF8C012387C12CD12C8DE7E82E80E052
:1002E000F82E20E030E0A9016AE176E080E090E0BD
:1002F0000E949E0EE0CF1C9904C0FC01248522239D
:1003000039F01C9B02C0FC01148680E090E0089547
:1003100081E0848740E050E064E673E08481958169
:100320000E940E1080E090E00895CF93DF93EC01DF
:100330001E9903C08E818823C1F01E821F9903C0BD
:100340008F81882361F01F821C9903C08C858823CC
:1003500091F01C8680E090E0DF91CF91089560E0FD
:1003600070E0CE010E944A01EFCF60E070E0CE0164
:100370000E941901E3CF60E070E0CE010E947B0192
:1003800080E090E0DF91CF91089590ED980F9A3042
:1003900060F19B012170307837FD71C0220F331F4F
:1003A000220F331F50E040E0A0E0B0E077FD5DC0D9
:1003B00075956795FB01E451FF4F8FE090E001C018
:1003C000880F2A95EAF78095908198239B2B90833C
:1003D000958198239A2B958392859823942B9287C5
:1003E00097858923852B87870895E82FF0E0EE0F06
:1003F000FF1FEE51FF4F408151819B0121703078EA
:1004000037FD36C0220F331F220F331FCA018F70F2
:100410009927982F022E01C0990F0A94EAF7B92F55
:10042000CA01929582958F7089279F7089278F7056
:100430009927982F022E01C0990F0A94EAF7A92F45
:10044000852F99278F709927022E01C0880F0A9453
:10045000EAF7482F852F82958F70022E01C0880FF2
:100460000A94EAF7582F77FFA3CF6F5F7F4FA0CF93
:10047000215031092E6F3F6F2F5F3F4FC3CF215067
:1004800031092E6F3F6F2F5F3F4F88CF80EC8093F5
:10049000E40087EB8093E5008FE08093E700089508
:1004A000CF92DF92EF92FF92CF93DF936B017C01AB
:1004B000EA0146305105F0F02196C630D10538F0FA
:1004C000DF91CF91FF90EF90DF90CF900895C7011B
:1004D000B6012AE030E040E050E00E948611862F0D
:1004E000BE01805DDF91CF91FF90EF90DF90CF90C4
:1004F0000C94C50124E630E040E050E00E948611F3
:100500002AE030E040E050E00E948611BE0180E326
:10051000820F0E94C501D0CFCF93DF93EC0140E062
:1005200050E063E974E08C819D810E940E10BC0153
:10053000990F880B990B40E050E00E94500240E078
:1005400050E063E974E08E819F810E940E10BC012F
:10055000990F880B990B44E050E00E945002888567
:1005600062E070E0882369F080E30E94C50163E0E7
:1005700070E081E30E94C50180E090E0DF91CF91BF
:10058000089581E30E94C50163E070E080E30E946A
:10059000C50180E090E0DF91CF910895CF92DF9286
:1005A000EF92FF920F931F9321E0672B09F420E055
:1005B000FC012087C12CD12C2CE8E22E22E0F22E67
:1005C0008C0120E030E0A90160E070E0CB010E94E6
:1005D0009E0E80E090E01F910F91FF90EF90DF90D2
:1005E000CF900895CF92DF92EF92FF920F931F93D7
:1005F000CF93DF93EC018885882351F10E811F8111
:10060000C12CD12C87E9E82E84E0F82E20E030E0E0
:10061000A90160E070E0CB010E949E0EC12CD12C9C
:100620009CE8E92E92E0F92E8E0120E030E0A9014D
:1006300060E070E0CB010E949E0E80E090E0DF91D0
:10064000CF911F910F91FF90EF90DF90CF90089581
:100650000C811D81D5CFCF92DF92EF92FF920F9345
:100660001F93CF93DF93EC018885882351F10E818E
:100670001F81C12CD12C80EAE82E84E0F82E20E0E6
:1006800030E0A90160E070E0CB010E949E0EC12C19
:10069000D12C9CE8E92E92E0F92E8E0120E030E08A
:1006A000A90160E070E0CB010E949E0E80E090E026
:1006B000DF91CF911F910F91FF90EF90DF90CF903E
:1006C00008950C811D81D5CFCF92DF92EF92FF92DA
:1006D0000F931F93CF93DF93EC018885882351F10B
:1006E0000E811F81C12CD12C89EAE82E84E0F82EDE
:1006F00020E030E0A90160E070E0CB010E949E0E96
:10070000C12CD12C9CE8E92E92E0F92E8E0120E03C
:1007100030E0A90160E070E0CB010E949E0E80E015
:1007200090E0DF91CF911F910F91FF90EF90DF90BC
:10073000CF9008950C811D81D5CFCF92DF92EF929B
:10074000FF920F931F93FC0104811581C12CD12CC2
:1007500085EFE82E80E0F82E20E030E0A90160E08F
:1007600070E0CB010E949E0E80E090E01F910F91FF
:10077000FF90EF90DF90CF900895CF92DF92EF92AD
:10078000FF920F931F93FC0104811581C12CD12C82
:1007900085E9E82E81E0F82E20E030E0A90160E054
:1007A00070E0CB010E949E0E80E090E01F910F91BF
:1007B000FF90EF90DF90CF900895CF92DF92EF926D
:1007C000FF920F931F93CF93DF93EC01C12CD12C99
:1007D00084E3E82E84E0F82E06E211E020E030E029
:1007E000A90160E070E0CB010E949E0E0CE111E0D7
:1007F00020E030E0A90160E070E0CB010E949E0E95
:100800009CE8E92E92E0F92E8E0120E030E0A9016B
:1008100060E070E0CB010E949E0E80E090E0DF91EE
:10082000CF911F910F91FF90EF90DF90CF9008959F
:100830000E94D1040E9446020E94AD0041E06DE991
:1008400073E080E091E00E940B1142E06DEB73E0F9
:1008500080E091E00E940B1140E050E06DED73E00C
:1008600083E191E00C942511CF92DF92EF92FF92F9
:100870000F931F93CF93DF93EC018C810F81188529
:10088000C12CD12C8823A1F183E6E82E81E1F82E3A
:1008900020E030E0A90160E070E0CB010E949E0EF4
:1008A0006C8170E084EF91E00E9472112DE730E0DE
:1008B000DB010E94A511959587957795679595958C
:1008C00087957795679534E3E32E34E0F32E8E0118
:1008D00020E030E0A9010E949E0E80E090E0DF91D0
:1008E000CF911F910F91FF90EF90DF90CF900895DF
:1008F00041E4E42E41E1F42E20E030E0A90160E083
:1009000070E0CB010E949E0E54E3E52E54E0F52EDC
:100910008E0120E030E0A90162E17AE780E090E01A
:100920000E949E0EDACFFC01848190E00895FC01C4
:100930009481933610F49F5F948380E090E0089553
:10094000FC019481992311F09150948380E090E010
:100950000895CF92DF92EF92FF920F931F93FC01C5
:10096000848181110BC08581848380E090E01F9198
:100970000F91FF90EF90DF90CF90089585831482C0
:1009800007811085C12CD12C81E4E82E81E1F82E5D
:1009900020E030E0A90160E070E0CB010E949E0EF3
:1009A000E4CFE1E6F0E080E88083108227982F9A78
:1009B000E1E8F0E080818D608083109285001092E4
:1009C0008400EFE6F0E080818260808382EC90E03A
:1009D00090938900809388000895CF93DF9300D08F
:1009E00000D0CDB7DEB789E492E029E233E0FC0124
:1009F000709791838083409682179307C1F7109276
:100A00001A0310921903E4E8F1E081EA91E091837E
:100A100080838EEB91E0968F858FABEDB1E0B3AF25
:100A2000A2AF1D921C92FA83E983E5E8F3E0FC8310
:100A3000EB8389819A8106960E94F1118B819C81BA
:100A4000E981FA81978B868B918F808F80E990E185
:100A5000948F838F158214827D96FA83E983EB81CC
:100A6000FC81E05AFF4FFC83EB8389819A81885F88
:100A70009140F9F6ECE1F2E01182108215821482C5
:100A800013821282E1E6F0E080E880831082109207
:100A900085001092840084E08093810081E080933F
:100AA0006F000F900F900F900F90DF91CF910895EE
:100AB000CF93DF9300D0CDB7DEB79A83898380913F
:100AC0003A0190913B0106960E94F111892B29F081
:100AD0000F900F90DF91CF91089589819A81909323
:100AE0003B0180933A0161E070E006960E9411128A
:100AF0000F931F93CF93DF93E0915E01F0915F011D
:100B00003097F1F080913E0190913F010097C1F044
:100B1000C0913C01D0913D01AA81BB811097A9F001
:100B2000468157816085718516960D911D912D9195
:100B30003C911997401B510B620B730B77FD05C05D
:100B4000DF91CF911F910F910895FC012081318198
:100B500030933F0120933E01D183C08390933D01A8
:100B600080933C01DF91CF911F910F910C94580518
:100B70008FEF8093EC008093ED008093EE0081E096
:100B800083BF8895FDCF1F920F920FB60F9211244D
:100B90002F933F934F935F936F937F938F939F9385
:100BA000AF93BF93EF93FF9320915601309157017C
:100BB0004091840050918500C901032E000CAA0BBE
:100BC000BB0BDC019927882760E070E0842B952B14
:100BD000A62BB72B8093580190935901A0935A01EB
:100BE000B0935B01B09B1BC0409184005091850085
:100BF000C9010196092E000CAA0BBB0BDC01992739
:100C0000882760E070E0842B952BA62BB72B809370
:100C1000580190935901A0935A01B0935B01E09160
:100C2000F801F091F901309739F060E070E08091BF
:100C300060019091610109950E947805FF91EF9103
:100C4000BF91AF919F918F917F916F915F914F91E4
:100C50003F912F910F900FBE0F901F9018951F92EC
:100C60000F920FB60F9211242F933F934F935F93E0
:100C70006F937F938F939F93AF93BF93EF93FF9364
:100C80002091560130915701409184005091850088
:100C9000C901032E000CAA0BBB0BDC019927882786
:100CA00060E070E0842B952BA62BB72B8093580126
:100CB00090935901A0935A01B0935B01B09B1BC064
:100CC0004091840050918500C9010196092E000CC5
:100CD000AA0BBB0BDC019927882760E070E0842B0E
:100CE000952BA62BB72B8093580190935901A09375
:100CF0005A01B0935B01E091FA01F091FB0130974A
:100D000039F061E070E08091620190916301099592
:100D10000E947805FF91EF91BF91AF919F918F91C4
:100D20007F916F915F914F913F912F910F900FBEE7
:100D30000F901F9018951F920F920FB60F921124CB
:100D40002F933F934F935F936F937F938F939F93D3
:100D5000AF93BF93EF93FF932091560130915701CA
:100D60004091840050918500C901032E000CAA0B0C
:100D7000BB0BDC019927882760E070E0842B952B62
:100D8000A62BB72B8093580190935901A0935A0139
:100D9000B0935B01B09B1BC04091840050918500D3
:100DA000C9010196092E000CAA0BBB0BDC01992787
:100DB000882760E070E0842B952BA62BB72B8093BF
:100DC000580190935901A0935A01B0935B01E091AF
:100DD000FC01F091FD01309739F062E070E0809104
:100DE00064019091650109950E947805FF91EF914A
:100DF000BF91AF919F918F917F916F915F914F9133
:100E00003F912F910F900FBE0F901F9018951F923A
:100E10000F920FB60F9211242F933F934F935F932E
:100E20006F937F938F939F93AF93BF93EF93FF93B2
:100E300020915601309157014091840050918500D6
:100E4000C901032E000CAA0BBB0BDC0199278827D4
:100E500060E070E0842B952BA62BB72B8093580174
:100E600090935901A0935A01B0935B01B09B1BC0B2
:100E70004091840050918500C9010196092E000C13
:100E8000AA0BBB0BDC019927882760E070E0842B5C
:100E9000952BA62BB72B8093580190935901A093C3
:100EA0005A01B0935B01E091FE01F091FF01309790
:100EB00039F063E070E080916601909167010995D7
:100EC0000E947805FF91EF91BF91AF919F918F9113
:100ED0007F916F915F914F913F912F910F900FBE36
:100EE0000F901F9018951F920F920FB60F9211241A
:100EF0002F933F934F935F936F937F938F939F9322
:100F0000AF93BF93EF93FF93209156013091570118
:100F10004091840050918500C901032E000CAA0B5A
:100F2000BB0BDC019927882760E070E0842B952BB0
:100F3000A62BB72B8093580190935901A0935A0187
:100F4000B0935B01B09B1BC0409184005091850021
:100F5000C9010196092E000CAA0BBB0BDC019927D5
:100F6000882760E070E0842B952BA62BB72B80930D
:100F7000580190935901A0935A01B0935B01E091FD
:100F80000002F0910102309739F064E070E0809146
:100F900068019091690109950E947805FF91EF9190
:100FA000BF91AF919F918F917F916F915F914F9181
:100FB0003F912F910F900FBE0F901F9018951F9289
:100FC0000F920FB60F9211242F933F934F935F937D
:100FD0006F937F938F939F93AF93BF93EF93FF9301
:100FE0002091560130915701409184005091850025
:100FF000C901032E000CAA0BBB0BDC019927882723
:1010000060E070E0842B952BA62BB72B80935801C2
:1010100090935901A0935A01B0935B01B09B1BC000
:101020004091840050918500C9010196092E000C61
:10103000AA0BBB0BDC019927882760E070E0842BAA
:10104000952BA62BB72B8093580190935901A09311
:101050005A01B0935B01E0910202F09103023097D4
:1010600039F065E070E080916A0190916B0109951B
:101070000E947805FF91EF91BF91AF919F918F9161
:101080007F916F915F914F913F912F910F900FBE84
:101090000F901F9018951F920F920FB60F92112468
:1010A0002F933F934F935F936F937F938F939F9370
:1010B000AF93BF93EF93FF93209156013091570167
:1010C0004091840050918500C901032E000CAA0BA9
:1010D000BB0BDC019927882760E070E0842B952BFF
:1010E000A62BB72B8093580190935901A0935A01D6
:1010F000B0935B01B09B1BC0409184005091850070
:10110000C9010196092E000CAA0BBB0BDC01992723
:10111000882760E070E0842B952BA62BB72B80935B
:10112000580190935901A0935A01B0935B01E0914B
:101130000402F0910502309739F066E070E080918A
:101140006C0190916D0109950E947805FF91EF91D6
:10115000BF91AF919F918F917F916F915F914F91CF
:101160003F912F910F900FBE0F901F9018951F92D7
:101170000F920FB60F9211242F933F934F935F93CB
:101180006F937F938F939F93AF93BF93EF93FF934F
:101190002091560130915701409184005091850073
:1011A000C901032E000CAA0BBB0BDC019927882771
:1011B00060E070E0842B952BA62BB72B8093580111
:1011C00090935901A0935A01B0935B01B09B1BC04F
:1011D0004091840050918500C9010196092E000CB0
:1011E000AA0BBB0BDC019927882760E070E0842BF9
:1011F000952BA62BB72B8093580190935901A09360
:101200005A01B0935B01E0910602F091070230971A
:1012100039F067E070E080916E0190916F0109955F
:101220000E947805FF91EF91BF91AF919F918F91AF
:101230007F916F915F914F913F912F910F900FBED2
:101240000F901F9018951F920F920FB60F921124B6
:101250002F933F934F935F936F937F938F939F93BE
:10126000AF93BF93EF93FF932091560130915701B5
:101270004091840050918500C901032E000CAA0BF7
:10128000BB0BDC019927882760E070E0842B952B4D
:10129000A62BB72B8093580190935901A0935A0124
:1012A000B0935B01B09B1BC04091840050918500BE
:1012B000C9010196092E000CAA0BBB0BDC01992772
:1012C000882760E070E0842B952BA62BB72B8093AA
:1012D000580190935901A0935A01B0935B01E0919A
:1012E0000802F0910902309739F068E070E08091CF
:1012F00070019091710109950E947805FF91EF911D
:10130000BF91AF919F918F917F916F915F914F911D
:101310003F912F910F900FBE0F901F9018951F9225
:101320000F920FB60F9211242F933F934F935F9319
:101330006F937F938F939F93AF93BF93EF93FF939D
:1013400020915601309157014091840050918500C1
:10135000C901032E000CAA0BBB0BDC0199278827BF
:1013600060E070E0842B952BA62BB72B809358015F
:1013700090935901A0935A01B0935B01B09B1BC09D
:101380004091840050918500C9010196092E000CFE
:10139000AA0BBB0BDC019927882760E070E0842B47
:1013A000952BA62BB72B8093580190935901A093AE
:1013B0005A01B0935B01E0910A02F0910B02309761
:1013C00039F069E070E080917201909173010995A4
:1013D0000E947805FF91EF91BF91AF919F918F91FE
:1013E0007F916F915F914F913F912F910F900FBE21
:1013F0000F901F9018951F920F920FB60F92112405
:101400002F933F934F935F936F937F938F939F930C
:10141000AF93BF93EF93FF93209156013091570103
:101420004091840050918500C901032E000CAA0B45
:10143000BB0BDC019927882760E070E0842B952B9B
:10144000A62BB72B8093580190935901A0935A0172
:10145000B0935B01B09B1BC040918400509185000C
:10146000C9010196092E000CAA0BBB0BDC019927C0
:10147000882760E070E0842B952BA62BB72B8093F8
:10148000580190935901A0935A01B0935B01E091E8
:101490000C02F0910D02309739F06AE070E0809113
:1014A00074019091750109950E947805FF91EF9163
:1014B000BF91AF919F918F917F916F915F914F916C
:1014C0003F912F910F900FBE0F901F9018951F9274
:1014D0000F920FB60F9211242F933F934F935F9368
:1014E0006F937F938F939F93AF93BF93EF93FF93EC
:1014F0002091560130915701409184005091850010
:10150000C901032E000CAA0BBB0BDC01992788270D
:1015100060E070E0842B952BA62BB72B80935801AD
:1015200090935901A0935A01B0935B01B09B1BC0EB
:101530004091840050918500C9010196092E000C4C
:10154000AA0BBB0BDC019927882760E070E0842B95
:10155000952BA62BB72B8093580190935901A093FC
:101560005A01B0935B01E0910E02F0910F023097A7
:1015700039F06BE070E080917601909177010995E8
:101580000E947805FF91EF91BF91AF919F918F914C
:101590007F916F915F914F913F912F910F900FBE6F
:1015A0000F901F9018951F920F920FB60F92112453
:1015B0002F933F934F935F936F937F938F939F935B
:1015C000AF93BF93EF93FF93209156013091570152
:1015D0004091840050918500C901032E000CAA0B94
:1015E000BB0BDC019927882760E070E0842B952BEA
:1015F000A62BB72B8093580190935901A0935A01C1
:10160000B0935B01B09B1BC040918400509185005A
:10161000C9010196092E000CAA0BBB0BDC0199270E
:10162000882760E070E0842B952BA62BB72B809346
:10163000580190935901A0935A01B0935B01E09136
:101640001002F0911102309739F06CE070E0809157
:1016500078019091790109950E947805FF91EF91A9
:10166000BF91AF919F918F917F916F915F914F91BA
:101670003F912F910F900FBE0F901F9018951F92C2
:101680000F920FB60F9211242F933F934F935F93B6
:101690006F937F938F939F93AF93BF93EF93FF933A
:1016A000209156013091570140918400509185005E
:1016B000C901032E000CAA0BBB0BDC01992788275C
:1016C00060E070E0842B952BA62BB72B80935801FC
:1016D00090935901A0935A01B0935B01B09B1BC03A
:1016E0004091840050918500C9010196092E000C9B
:1016F000AA0BBB0BDC019927882760E070E0842BE4
:10170000952BA62BB72B8093580190935901A0934A
:101710005A01B0935B01E0911202F09113023097ED
:1017200039F06DE070E080917A0190917B0109952C
:101730000E947805FF91EF91BF91AF919F918F919A
:101740007F916F915F914F913F912F910F900FBEBD
:101750000F901F9018951F920F920FB60F921124A1
:101760002F933F934F935F936F937F938F939F93A9
:10177000AF93BF93EF93FF932091560130915701A0
:101780004091840050918500C901032E000CAA0BE2
:10179000BB0BDC019927882760E070E0842B952B38
:1017A000A62BB72B8093580190935901A0935A010F
:1017B000B0935B01B09B1BC04091840050918500A9
:1017C000C9010196092E000CAA0BBB0BDC0199275D
:1017D000882760E070E0842B952BA62BB72B809395
:1017E000580190935901A0935A01B0935B01E09185
:1017F0001402F0911502309739F06EE070E080919C
:101800007C0190917D0109950E947805FF91EF91EF
:10181000BF91AF919F918F917F916F915F914F9108
:101820003F912F910F900FBE0F901F9018951F9210
:101830000F920FB60F9211242F933F934F935F9304
:101840006F937F938F939F93AF93BF93EF93FF9388
:1018500020915601309157014091840050918500AC
:10186000C901032E000CAA0BBB0BDC0199278827AA
:1018700060E070E0842B952BA62BB72B809358014A
:1018800090935901A0935A01B0935B01B09B1BC088
:101890004091840050918500C9010196092E000CE9
:1018A000AA0BBB0BDC019927882760E070E0842B32
:1018B000952BA62BB72B8093580190935901A09399
:1018C0005A01B0935B01E0911602F0911702309734
:1018D00039F06FE070E080917E0190917F01099571
:1018E0000E947805FF91EF91BF91AF919F918F91E9
:1018F0007F916F915F914F913F912F910F900FBE0C
:101900000F901F9018951F920F920FB60F921124EF
:101910002F933F934F935F936F937F938F939F93F7
:10192000AF93BF93EF93FF932091560130915701EE
:101930004091840050918500C901032E000CAA0B30
:10194000BB0BDC019927882760E070E0842B952B86
:10195000A62BB72B8093580190935901A0935A015D
:10196000B0935B01B09B1BC04091840050918500F7
:10197000C9010196092E000CAA0BBB0BDC019927AB
:10198000882760E070E0842B952BA62BB72B8093E3
:10199000580190935901A0935A01B0935B01E091D3
:1019A0001802F0911902309739F060E170E08091EF
:1019B00080019091810109950E947805FF91EF9136
:1019C000BF91AF919F918F917F916F915F914F9157
:1019D0003F912F910F900FBE0F901F9018951F925F
:1019E0000F920FB60F9211242F933F934F935F9353
:1019F0006F937F938F939F93AF93BF93EF93FF93D7
:101A000020915601309157014091840050918500FA
:101A1000C901032E000CAA0BBB0BDC0199278827F8
:101A200060E070E0842B952BA62BB72B8093580198
:101A300090935901A0935A01B0935B01B09B1BC0D6
:101A40004091840050918500C9010196092E000C37
:101A5000AA0BBB0BDC019927882760E070E0842B80
:101A6000952BA62BB72B8093580190935901A093E7
:101A70005A01B0935B01E0911A02F0911B0230977A
:101A800039F061E170E080918201909183010995C4
:101A90000E947805FF91EF91BF91AF919F918F9137
:101AA0007F916F915F914F913F912F910F900FBE5A
:101AB0000F901F9018951F920F920FB60F9211243E
:101AC0002F933F934F935F936F937F938F939F9346
:101AD000EF93FF9380915601909157010196909357
:101AE000570180935601E0915C01F0915D013097C0
:101AF00039F0428153816481758186179707A1F07F
:101B000080916F008D7F80936F00FF91EF919F9187
:101B10008F917F916F915F914F913F912F910F9096
:101B20000FBE0F901F901895CA012091840030912C
:101B30008500421B530B4130510551F090938900B1
:101B40008093880080916F00826080936F00DDCF6A
:101B500080918400909185000196F0CF1F920F92A2
:101B60000FB60F9211248F929F92AF92BF92CF9295
:101B7000DF92EF92FF920F931F932F933F934F9318
:101B80005F936F937F938F939F93AF93BF93CF9305
:101B9000DF93EF93FF93E0905601F090570180910F
:101BA000840090918500B09998C047010F2C000CDB
:101BB000AA08BB08540199248824A0E0B0E0882A30
:101BC000992AAA2ABB2AC0915C01D0915D0180911B
:101BD0005E0190915F01209709F43FC04A815B81CB
:101BE0006C817D818A019B01081919092A093B0929
:101BF00010161106120613060CF440C0D880C980D6
:101C00000097B9F10E811F8128853985FC01468135
:101C100057816085718504171507260737074CF132
:101C2000DC010AC04681578160857185041715075C
:101C300026073707DCF0DF01ED91FC911197309713
:101C400089F719821882CD93DC93382F292FCD2D57
:101C5000DC2D832F922F209709F610925D011092B0
:101C60005C0190935F0180935E0113C0F983E88368
:101C7000EACF998388833C2F2D2FE9CFD0935D0144
:101C8000C0935C0190935F0180935E01E616F706B6
:101C9000D9F180916F008D7F80936F000E9478054D
:101CA000FF91EF91DF91CF91BF91AF919F918F9174
:101CB0007F916F915F914F913F912F911F910F9164
:101CC000FF90EF90DF90CF90BF90AF909F908F905C
:101CD0000F900FBE0F901F901895209184003091A7
:101CE000850047018FEF881A980A092C000CAA0872
:101CF000BB08D401992788274901A12CB12C882A37
:101D0000992AAA2ABB2A5FCFCA0120918400309168
:101D10008500421B530B4130510551F090938900CF
:101D20008093880080916F00826080936F00B6CFAF
:101D300080918400909185000196F0CF3F924F9260
:101D40005F926F927F928F929F92AF92BF92CF924B
:101D5000DF92EF92FF920F931F93CF93DF93EFB732
:101D6000E0783E2EF894C0914001D0914101209737
:101D700009F452C1E881F981F0934101E0934001F7
:101D80001B870A87FD86EC86DF86CE86332009F422
:101D90006FC0E0913A01F0913B010280F381E02DA8
:101DA000C280D380E480F580C60ED71EE81EF91EDF
:101DB000CA82DB82EC82FD82121613061406150617
:101DC0000CF0F8C0DA01C9018C019D010C0D1D1D3C
:101DD0002E1D3F1D0E831F83288739878091560152
:101DE000909157016091840070918500B09949C02D
:101DF0002C01092E000C66087708520199248824CA
:101E00002B01612C712C482859286A287B28B7019E
:101E1000A601441955096609770914161506160610
:101E200017060CF068C0A0915C01B0915D0110979D
:101E300009F4DCC012960D911D912D913C911597DE
:101E4000C016D106E206F3065CF4D0C0428153818D
:101E500064817581C416D506E606F7064CF1DF01EC
:101E6000ED91FC911197309789F71982188222C061
:101E7000C0905801D0905901E0905A01F0905B0158
:101E800093CFE0918400F09185002C014FEF441A2C
:101E9000540A052C000C66087708B2015527442720
:101EA0002F01612C712C442A552A662A772AAFCF3C
:101EB000F983E883CD93DC938217930709F47FC0FD
:101EC00080916F008D7F80936F00332009F07894AC
:101ED000CE01DF91CF911F910F91FF90EF90DF9096
:101EE000CF90BF90AF909F908F907F906F905F90BA
:101EF0004F903F900895A0915E01B0915F011097BF
:101F000009F483C01696CD90DD90ED90FC90199762
:101F10000C151D052E053F0564F477C0C680D780DB
:101F2000E084F1840C151D052E053F050CF45BC003
:101F3000DF01ED91FC911197309781F7198218829A
:101F4000CD93DC93332021F280913E0190913F01AB
:101F5000009709F4BCCFE0913C01F0913D01209144
:101F60005E0130915F0102811381D90116964D9176
:101F70005D916D917C911997D80116960D911D91E7
:101F80002D913C911997401B510B620B730B77FFFE
:101F90009ECFDC012D913C91119730933F0120930E
:101FA0003E01ED93FC9390933D0180933C010E9490
:101FB00058058DCF8FEF9FEFAFEFBFE705CFC8017B
:101FC0004091840050918500041B150B01301105D0
:101FD000B1F0909389008093880080916F008260B7
:101FE00080936F0072CFF983E883AACFB983A88367
:101FF000D0935D01C0935C01970186015DCF809114
:102000008400909185000196E4CFB983A883D09392
:102010005F01C0935E0196CF0E94B805CF92DF9218
:10202000EF92FF920F931F93CF93DF93EC017B010D
:102030006A011FB71078F894A881B981109719F434
:1020400062C0A081B1811496ED91FC9115973097F3
:10205000C1F720913A0130913B012A173B0709F45F
:102060004CC01123A1F18A819B81009719F0FC01DA
:10207000158214823B832A83F901D583C483CD0161
:102080000E945805E0913A01F0913B0182819381D1
:10209000892B09F441C0F983E8838A819B810197E8
:1020A00009F07894B601CE01F7010995F82E092FB1
:1020B0008FB7F894198218828A819B8182309105AA
:1020C000A0F4112379F078948F2D902F02C08FEF18
:1020D0009FEFDF91CF911F910F91FF90EF90DF90D5
:1020E000CF9008958F2D902FF4CF1B821A82FC0180
:1020F000158214820E945805E4CF112341F378948D
:102100008FEF9FEFE6CF80913A0190913B01998349
:102110008883112339F2C1CF789480E090E0D9CF41
:10212000C0915E01D0915F01E0913A01F0913B01D5
:10213000209709F46EC08881998190935F01809304
:102140005E01D383C28378944E855F856C857D85DF
:102150008A859B850E940E108FB7F894809140016C
:102160009091410199838883D0934101C0934001AC
:10217000E0903C01F0903D01F701A081B181129601
:102180008D919C911397C0915E01D0915F01209732
:10219000A9F0009749F24E815F8168857985FC013D
:1021A0000681178120853185401B510B620B730B13
:1021B00014161506160617060CF0B6CFB0933D019F
:1021C000A0933C0180913E0190913F01F7019183E2
:1021D0008083F0923F01E0923E011496ED91FC91D4
:1021E0001597309741F0A081B1811496ED91FC9143
:1021F00015973097C1F7CD010E945805C0915E0137
:10220000D0915F01E0913A01F0913B01209709F0F4
:1022100092CF0E94B8054231B8F42FB7F89450E03D
:10222000440F551FFA01E05AFE4F91838083FA0153
:10223000E850FE4F7183608341E050E0FC0153831E
:10224000428327FF01C0789408958C017B016A01C5
:102250008FB7F8940E94ED047894E114F10441F0F2
:1022600020E030E0A90160E070E0CB010E949E0E0A
:102270008FB7F8940E947805789481E083BF8895A1
:10228000FDCF4EB121E030E0672B79F4B901FC01BC
:10229000048002C0660F771F0A94E2F7CB01809595
:1022A00084238EB980E090E00895B901FC01048098
:1022B00002C0660F771F0A94E2F7CB01842B8EB918
:1022C00080E090E008954EB121E030E0FC01048010
:1022D00002C0220F331F0A94E2F724272EB980E0B0
:1022E00090E0089597FB072E16F4009407D077FD31
:1022F00009D00E94AC1107FC05D03EF49095819561
:102300009F4F0895709561957F4F0895052E97FB17
:102310001EF400940E949D1157FD07D00E94C01129
:1023200007FC03D04EF40C949D11509540953095C8
:1023300021953F4F4F4F5F4F089590958095709531
:1023400061957F4F8F4F9F4F08950E94E211B7FF15
:102350000895821B930B0895AA1BBB1B51E107C074
:10236000AA1FBB1FA617B70710F0A61BB70B881F25
:10237000991F5A95A9F780959095BC01CD010895B4
:10238000A1E21A2EAA1BBB1BFD010DC0AA1FBB1F79
:10239000EE1FFF1FA217B307E407F50720F0A21BEB
:1023A000B30BE40BF50B661F771F881F991F1A9458
:1023B00069F760957095809590959B01AC01BD0182
:1023C000CF010895A29FB001B39FC001A39F700DDC
:1023D000811D1124911DB29F700D811D1124911D2D
:1023E0000895DC012D923D924D925D926D927D9209
:1023F0008D929D92AD92BD92CD92DD92ED92FD9225
:102400000D931D93CD93DD93FF91EF918DB78D9338
:102410008EB78D938FB78D93ED93FD938827992772
:102420000994DC01CB0181309105811D2D903D90F7
:102430004D905D906D907D908D909D90AD90BD90F4
:10244000CD90DD90ED90FD900D911D91CD91DD91A0
:10245000ED91FD910D90F894FEBF0FBEEDBFED9193
:08246000FD910994F894FFCFEF
:102468000000000006010000000013010000000049
:102478000000000000000026011C01000000000010
:1024880000000030010000000000000000350100DD
:10249800000000000600000000041C021C02840169
:1024A800390251151001111E111B500B411B411F00
:0624B8001101511F511B30
:00000001FF
